
Aquarium.elf:     file format elf32-littlearm

Sections:
Idx Name          Size      VMA       LMA       File off  Algn
  0 .isr_vector   00000198  08000000  08000000  00010000  2**0
                  CONTENTS, ALLOC, LOAD, READONLY, DATA
  1 .text         0000353c  08000198  08000198  00010198  2**2
                  CONTENTS, ALLOC, LOAD, READONLY, CODE
  2 .rodata       00000018  080036d4  080036d4  000136d4  2**2
                  CONTENTS, ALLOC, LOAD, READONLY, DATA
  3 .ARM.extab    00000000  080036ec  080036ec  0002000c  2**0
                  CONTENTS
  4 .ARM          00000008  080036ec  080036ec  000136ec  2**2
                  CONTENTS, ALLOC, LOAD, READONLY, DATA
  5 .preinit_array 00000000  080036f4  080036f4  0002000c  2**0
                  CONTENTS, ALLOC, LOAD, DATA
  6 .init_array   00000004  080036f4  080036f4  000136f4  2**2
                  CONTENTS, ALLOC, LOAD, DATA
  7 .fini_array   00000004  080036f8  080036f8  000136f8  2**2
                  CONTENTS, ALLOC, LOAD, DATA
  8 .data         0000000c  20000000  080036fc  00020000  2**2
                  CONTENTS, ALLOC, LOAD, DATA
  9 .bss          00000118  2000000c  08003708  0002000c  2**2
                  ALLOC
 10 ._user_heap_stack 00000604  20000124  08003708  00020124  2**0
                  ALLOC
 11 .ARM.attributes 00000030  00000000  00000000  0002000c  2**0
                  CONTENTS, READONLY
 12 .debug_info   0000a14b  00000000  00000000  0002003c  2**0
                  CONTENTS, READONLY, DEBUGGING, OCTETS
 13 .debug_abbrev 00001811  00000000  00000000  0002a187  2**0
                  CONTENTS, READONLY, DEBUGGING, OCTETS
 14 .debug_aranges 000007e8  00000000  00000000  0002b998  2**3
                  CONTENTS, READONLY, DEBUGGING, OCTETS
 15 .debug_ranges 00000760  00000000  00000000  0002c180  2**3
                  CONTENTS, READONLY, DEBUGGING, OCTETS
 16 .debug_macro  00015d41  00000000  00000000  0002c8e0  2**0
                  CONTENTS, READONLY, DEBUGGING, OCTETS
 17 .debug_line   000099b7  00000000  00000000  00042621  2**0
                  CONTENTS, READONLY, DEBUGGING, OCTETS
 18 .debug_str    0008d8aa  00000000  00000000  0004bfd8  2**0
                  CONTENTS, READONLY, DEBUGGING, OCTETS
 19 .comment      00000053  00000000  00000000  000d9882  2**0
                  CONTENTS, READONLY
 20 .debug_frame  00001f9c  00000000  00000000  000d98d8  2**2
                  CONTENTS, READONLY, DEBUGGING, OCTETS

Disassembly of section .text:

08000198 <__do_global_dtors_aux>:
 8000198:	b510      	push	{r4, lr}
 800019a:	4c05      	ldr	r4, [pc, #20]	; (80001b0 <__do_global_dtors_aux+0x18>)
 800019c:	7823      	ldrb	r3, [r4, #0]
 800019e:	b933      	cbnz	r3, 80001ae <__do_global_dtors_aux+0x16>
 80001a0:	4b04      	ldr	r3, [pc, #16]	; (80001b4 <__do_global_dtors_aux+0x1c>)
 80001a2:	b113      	cbz	r3, 80001aa <__do_global_dtors_aux+0x12>
 80001a4:	4804      	ldr	r0, [pc, #16]	; (80001b8 <__do_global_dtors_aux+0x20>)
 80001a6:	f3af 8000 	nop.w
 80001aa:	2301      	movs	r3, #1
 80001ac:	7023      	strb	r3, [r4, #0]
 80001ae:	bd10      	pop	{r4, pc}
 80001b0:	2000000c 	.word	0x2000000c
 80001b4:	00000000 	.word	0x00000000
 80001b8:	080036bc 	.word	0x080036bc

080001bc <frame_dummy>:
 80001bc:	b508      	push	{r3, lr}
 80001be:	4b03      	ldr	r3, [pc, #12]	; (80001cc <frame_dummy+0x10>)
 80001c0:	b11b      	cbz	r3, 80001ca <frame_dummy+0xe>
 80001c2:	4903      	ldr	r1, [pc, #12]	; (80001d0 <frame_dummy+0x14>)
 80001c4:	4803      	ldr	r0, [pc, #12]	; (80001d4 <frame_dummy+0x18>)
 80001c6:	f3af 8000 	nop.w
 80001ca:	bd08      	pop	{r3, pc}
 80001cc:	00000000 	.word	0x00000000
 80001d0:	20000010 	.word	0x20000010
 80001d4:	080036bc 	.word	0x080036bc

080001d8 <__aeabi_uldivmod>:
 80001d8:	b953      	cbnz	r3, 80001f0 <__aeabi_uldivmod+0x18>
 80001da:	b94a      	cbnz	r2, 80001f0 <__aeabi_uldivmod+0x18>
 80001dc:	2900      	cmp	r1, #0
 80001de:	bf08      	it	eq
 80001e0:	2800      	cmpeq	r0, #0
 80001e2:	bf1c      	itt	ne
 80001e4:	f04f 31ff 	movne.w	r1, #4294967295	; 0xffffffff
 80001e8:	f04f 30ff 	movne.w	r0, #4294967295	; 0xffffffff
 80001ec:	f000 b96e 	b.w	80004cc <__aeabi_idiv0>
 80001f0:	f1ad 0c08 	sub.w	ip, sp, #8
 80001f4:	e96d ce04 	strd	ip, lr, [sp, #-16]!
 80001f8:	f000 f806 	bl	8000208 <__udivmoddi4>
 80001fc:	f8dd e004 	ldr.w	lr, [sp, #4]
 8000200:	e9dd 2302 	ldrd	r2, r3, [sp, #8]
 8000204:	b004      	add	sp, #16
 8000206:	4770      	bx	lr

08000208 <__udivmoddi4>:
 8000208:	e92d 47f0 	stmdb	sp!, {r4, r5, r6, r7, r8, r9, sl, lr}
 800020c:	9d08      	ldr	r5, [sp, #32]
 800020e:	4604      	mov	r4, r0
 8000210:	468c      	mov	ip, r1
 8000212:	2b00      	cmp	r3, #0
 8000214:	f040 8083 	bne.w	800031e <__udivmoddi4+0x116>
 8000218:	428a      	cmp	r2, r1
 800021a:	4617      	mov	r7, r2
 800021c:	d947      	bls.n	80002ae <__udivmoddi4+0xa6>
 800021e:	fab2 f282 	clz	r2, r2
 8000222:	b142      	cbz	r2, 8000236 <__udivmoddi4+0x2e>
 8000224:	f1c2 0020 	rsb	r0, r2, #32
 8000228:	fa24 f000 	lsr.w	r0, r4, r0
 800022c:	4091      	lsls	r1, r2
 800022e:	4097      	lsls	r7, r2
 8000230:	ea40 0c01 	orr.w	ip, r0, r1
 8000234:	4094      	lsls	r4, r2
 8000236:	ea4f 4817 	mov.w	r8, r7, lsr #16
 800023a:	0c23      	lsrs	r3, r4, #16
 800023c:	fbbc f6f8 	udiv	r6, ip, r8
 8000240:	fa1f fe87 	uxth.w	lr, r7
 8000244:	fb08 c116 	mls	r1, r8, r6, ip
 8000248:	ea43 4301 	orr.w	r3, r3, r1, lsl #16
 800024c:	fb06 f10e 	mul.w	r1, r6, lr
 8000250:	4299      	cmp	r1, r3
 8000252:	d909      	bls.n	8000268 <__udivmoddi4+0x60>
 8000254:	18fb      	adds	r3, r7, r3
 8000256:	f106 30ff 	add.w	r0, r6, #4294967295	; 0xffffffff
 800025a:	f080 8119 	bcs.w	8000490 <__udivmoddi4+0x288>
 800025e:	4299      	cmp	r1, r3
 8000260:	f240 8116 	bls.w	8000490 <__udivmoddi4+0x288>
 8000264:	3e02      	subs	r6, #2
 8000266:	443b      	add	r3, r7
 8000268:	1a5b      	subs	r3, r3, r1
 800026a:	b2a4      	uxth	r4, r4
 800026c:	fbb3 f0f8 	udiv	r0, r3, r8
 8000270:	fb08 3310 	mls	r3, r8, r0, r3
 8000274:	ea44 4403 	orr.w	r4, r4, r3, lsl #16
 8000278:	fb00 fe0e 	mul.w	lr, r0, lr
 800027c:	45a6      	cmp	lr, r4
 800027e:	d909      	bls.n	8000294 <__udivmoddi4+0x8c>
 8000280:	193c      	adds	r4, r7, r4
 8000282:	f100 33ff 	add.w	r3, r0, #4294967295	; 0xffffffff
 8000286:	f080 8105 	bcs.w	8000494 <__udivmoddi4+0x28c>
 800028a:	45a6      	cmp	lr, r4
 800028c:	f240 8102 	bls.w	8000494 <__udivmoddi4+0x28c>
 8000290:	3802      	subs	r0, #2
 8000292:	443c      	add	r4, r7
 8000294:	ea40 4006 	orr.w	r0, r0, r6, lsl #16
 8000298:	eba4 040e 	sub.w	r4, r4, lr
 800029c:	2600      	movs	r6, #0
 800029e:	b11d      	cbz	r5, 80002a8 <__udivmoddi4+0xa0>
 80002a0:	40d4      	lsrs	r4, r2
 80002a2:	2300      	movs	r3, #0
 80002a4:	e9c5 4300 	strd	r4, r3, [r5]
 80002a8:	4631      	mov	r1, r6
 80002aa:	e8bd 87f0 	ldmia.w	sp!, {r4, r5, r6, r7, r8, r9, sl, pc}
 80002ae:	b902      	cbnz	r2, 80002b2 <__udivmoddi4+0xaa>
 80002b0:	deff      	udf	#255	; 0xff
 80002b2:	fab2 f282 	clz	r2, r2
 80002b6:	2a00      	cmp	r2, #0
 80002b8:	d150      	bne.n	800035c <__udivmoddi4+0x154>
 80002ba:	1bcb      	subs	r3, r1, r7
 80002bc:	ea4f 4e17 	mov.w	lr, r7, lsr #16
 80002c0:	fa1f f887 	uxth.w	r8, r7
 80002c4:	2601      	movs	r6, #1
 80002c6:	fbb3 fcfe 	udiv	ip, r3, lr
 80002ca:	0c21      	lsrs	r1, r4, #16
 80002cc:	fb0e 331c 	mls	r3, lr, ip, r3
 80002d0:	ea41 4103 	orr.w	r1, r1, r3, lsl #16
 80002d4:	fb08 f30c 	mul.w	r3, r8, ip
 80002d8:	428b      	cmp	r3, r1
 80002da:	d907      	bls.n	80002ec <__udivmoddi4+0xe4>
 80002dc:	1879      	adds	r1, r7, r1
 80002de:	f10c 30ff 	add.w	r0, ip, #4294967295	; 0xffffffff
 80002e2:	d202      	bcs.n	80002ea <__udivmoddi4+0xe2>
 80002e4:	428b      	cmp	r3, r1
 80002e6:	f200 80e9 	bhi.w	80004bc <__udivmoddi4+0x2b4>
 80002ea:	4684      	mov	ip, r0
 80002ec:	1ac9      	subs	r1, r1, r3
 80002ee:	b2a3      	uxth	r3, r4
 80002f0:	fbb1 f0fe 	udiv	r0, r1, lr
 80002f4:	fb0e 1110 	mls	r1, lr, r0, r1
 80002f8:	ea43 4401 	orr.w	r4, r3, r1, lsl #16
 80002fc:	fb08 f800 	mul.w	r8, r8, r0
 8000300:	45a0      	cmp	r8, r4
 8000302:	d907      	bls.n	8000314 <__udivmoddi4+0x10c>
 8000304:	193c      	adds	r4, r7, r4
 8000306:	f100 33ff 	add.w	r3, r0, #4294967295	; 0xffffffff
 800030a:	d202      	bcs.n	8000312 <__udivmoddi4+0x10a>
 800030c:	45a0      	cmp	r8, r4
 800030e:	f200 80d9 	bhi.w	80004c4 <__udivmoddi4+0x2bc>
 8000312:	4618      	mov	r0, r3
 8000314:	eba4 0408 	sub.w	r4, r4, r8
 8000318:	ea40 400c 	orr.w	r0, r0, ip, lsl #16
 800031c:	e7bf      	b.n	800029e <__udivmoddi4+0x96>
 800031e:	428b      	cmp	r3, r1
 8000320:	d909      	bls.n	8000336 <__udivmoddi4+0x12e>
 8000322:	2d00      	cmp	r5, #0
 8000324:	f000 80b1 	beq.w	800048a <__udivmoddi4+0x282>
 8000328:	2600      	movs	r6, #0
 800032a:	e9c5 0100 	strd	r0, r1, [r5]
 800032e:	4630      	mov	r0, r6
 8000330:	4631      	mov	r1, r6
 8000332:	e8bd 87f0 	ldmia.w	sp!, {r4, r5, r6, r7, r8, r9, sl, pc}
 8000336:	fab3 f683 	clz	r6, r3
 800033a:	2e00      	cmp	r6, #0
 800033c:	d14a      	bne.n	80003d4 <__udivmoddi4+0x1cc>
 800033e:	428b      	cmp	r3, r1
 8000340:	d302      	bcc.n	8000348 <__udivmoddi4+0x140>
 8000342:	4282      	cmp	r2, r0
 8000344:	f200 80b8 	bhi.w	80004b8 <__udivmoddi4+0x2b0>
 8000348:	1a84      	subs	r4, r0, r2
 800034a:	eb61 0103 	sbc.w	r1, r1, r3
 800034e:	2001      	movs	r0, #1
 8000350:	468c      	mov	ip, r1
 8000352:	2d00      	cmp	r5, #0
 8000354:	d0a8      	beq.n	80002a8 <__udivmoddi4+0xa0>
 8000356:	e9c5 4c00 	strd	r4, ip, [r5]
 800035a:	e7a5      	b.n	80002a8 <__udivmoddi4+0xa0>
 800035c:	f1c2 0320 	rsb	r3, r2, #32
 8000360:	fa20 f603 	lsr.w	r6, r0, r3
 8000364:	4097      	lsls	r7, r2
 8000366:	fa01 f002 	lsl.w	r0, r1, r2
 800036a:	ea4f 4e17 	mov.w	lr, r7, lsr #16
 800036e:	40d9      	lsrs	r1, r3
 8000370:	4330      	orrs	r0, r6
 8000372:	0c03      	lsrs	r3, r0, #16
 8000374:	fbb1 f6fe 	udiv	r6, r1, lr
 8000378:	fa1f f887 	uxth.w	r8, r7
 800037c:	fb0e 1116 	mls	r1, lr, r6, r1
 8000380:	ea43 4301 	orr.w	r3, r3, r1, lsl #16
 8000384:	fb06 f108 	mul.w	r1, r6, r8
 8000388:	4299      	cmp	r1, r3
 800038a:	fa04 f402 	lsl.w	r4, r4, r2
 800038e:	d909      	bls.n	80003a4 <__udivmoddi4+0x19c>
 8000390:	18fb      	adds	r3, r7, r3
 8000392:	f106 3cff 	add.w	ip, r6, #4294967295	; 0xffffffff
 8000396:	f080 808d 	bcs.w	80004b4 <__udivmoddi4+0x2ac>
 800039a:	4299      	cmp	r1, r3
 800039c:	f240 808a 	bls.w	80004b4 <__udivmoddi4+0x2ac>
 80003a0:	3e02      	subs	r6, #2
 80003a2:	443b      	add	r3, r7
 80003a4:	1a5b      	subs	r3, r3, r1
 80003a6:	b281      	uxth	r1, r0
 80003a8:	fbb3 f0fe 	udiv	r0, r3, lr
 80003ac:	fb0e 3310 	mls	r3, lr, r0, r3
 80003b0:	ea41 4103 	orr.w	r1, r1, r3, lsl #16
 80003b4:	fb00 f308 	mul.w	r3, r0, r8
 80003b8:	428b      	cmp	r3, r1
 80003ba:	d907      	bls.n	80003cc <__udivmoddi4+0x1c4>
 80003bc:	1879      	adds	r1, r7, r1
 80003be:	f100 3cff 	add.w	ip, r0, #4294967295	; 0xffffffff
 80003c2:	d273      	bcs.n	80004ac <__udivmoddi4+0x2a4>
 80003c4:	428b      	cmp	r3, r1
 80003c6:	d971      	bls.n	80004ac <__udivmoddi4+0x2a4>
 80003c8:	3802      	subs	r0, #2
 80003ca:	4439      	add	r1, r7
 80003cc:	1acb      	subs	r3, r1, r3
 80003ce:	ea40 4606 	orr.w	r6, r0, r6, lsl #16
 80003d2:	e778      	b.n	80002c6 <__udivmoddi4+0xbe>
 80003d4:	f1c6 0c20 	rsb	ip, r6, #32
 80003d8:	fa03 f406 	lsl.w	r4, r3, r6
 80003dc:	fa22 f30c 	lsr.w	r3, r2, ip
 80003e0:	431c      	orrs	r4, r3
 80003e2:	fa20 f70c 	lsr.w	r7, r0, ip
 80003e6:	fa01 f306 	lsl.w	r3, r1, r6
 80003ea:	ea4f 4e14 	mov.w	lr, r4, lsr #16
 80003ee:	fa21 f10c 	lsr.w	r1, r1, ip
 80003f2:	431f      	orrs	r7, r3
 80003f4:	0c3b      	lsrs	r3, r7, #16
 80003f6:	fbb1 f9fe 	udiv	r9, r1, lr
 80003fa:	fa1f f884 	uxth.w	r8, r4
 80003fe:	fb0e 1119 	mls	r1, lr, r9, r1
 8000402:	ea43 4101 	orr.w	r1, r3, r1, lsl #16
 8000406:	fb09 fa08 	mul.w	sl, r9, r8
 800040a:	458a      	cmp	sl, r1
 800040c:	fa02 f206 	lsl.w	r2, r2, r6
 8000410:	fa00 f306 	lsl.w	r3, r0, r6
 8000414:	d908      	bls.n	8000428 <__udivmoddi4+0x220>
 8000416:	1861      	adds	r1, r4, r1
 8000418:	f109 30ff 	add.w	r0, r9, #4294967295	; 0xffffffff
 800041c:	d248      	bcs.n	80004b0 <__udivmoddi4+0x2a8>
 800041e:	458a      	cmp	sl, r1
 8000420:	d946      	bls.n	80004b0 <__udivmoddi4+0x2a8>
 8000422:	f1a9 0902 	sub.w	r9, r9, #2
 8000426:	4421      	add	r1, r4
 8000428:	eba1 010a 	sub.w	r1, r1, sl
 800042c:	b2bf      	uxth	r7, r7
 800042e:	fbb1 f0fe 	udiv	r0, r1, lr
 8000432:	fb0e 1110 	mls	r1, lr, r0, r1
 8000436:	ea47 4701 	orr.w	r7, r7, r1, lsl #16
 800043a:	fb00 f808 	mul.w	r8, r0, r8
 800043e:	45b8      	cmp	r8, r7
 8000440:	d907      	bls.n	8000452 <__udivmoddi4+0x24a>
 8000442:	19e7      	adds	r7, r4, r7
 8000444:	f100 31ff 	add.w	r1, r0, #4294967295	; 0xffffffff
 8000448:	d22e      	bcs.n	80004a8 <__udivmoddi4+0x2a0>
 800044a:	45b8      	cmp	r8, r7
 800044c:	d92c      	bls.n	80004a8 <__udivmoddi4+0x2a0>
 800044e:	3802      	subs	r0, #2
 8000450:	4427      	add	r7, r4
 8000452:	ea40 4009 	orr.w	r0, r0, r9, lsl #16
 8000456:	eba7 0708 	sub.w	r7, r7, r8
 800045a:	fba0 8902 	umull	r8, r9, r0, r2
 800045e:	454f      	cmp	r7, r9
 8000460:	46c6      	mov	lr, r8
 8000462:	4649      	mov	r1, r9
 8000464:	d31a      	bcc.n	800049c <__udivmoddi4+0x294>
 8000466:	d017      	beq.n	8000498 <__udivmoddi4+0x290>
 8000468:	b15d      	cbz	r5, 8000482 <__udivmoddi4+0x27a>
 800046a:	ebb3 020e 	subs.w	r2, r3, lr
 800046e:	eb67 0701 	sbc.w	r7, r7, r1
 8000472:	fa07 fc0c 	lsl.w	ip, r7, ip
 8000476:	40f2      	lsrs	r2, r6
 8000478:	ea4c 0202 	orr.w	r2, ip, r2
 800047c:	40f7      	lsrs	r7, r6
 800047e:	e9c5 2700 	strd	r2, r7, [r5]
 8000482:	2600      	movs	r6, #0
 8000484:	4631      	mov	r1, r6
 8000486:	e8bd 87f0 	ldmia.w	sp!, {r4, r5, r6, r7, r8, r9, sl, pc}
 800048a:	462e      	mov	r6, r5
 800048c:	4628      	mov	r0, r5
 800048e:	e70b      	b.n	80002a8 <__udivmoddi4+0xa0>
 8000490:	4606      	mov	r6, r0
 8000492:	e6e9      	b.n	8000268 <__udivmoddi4+0x60>
 8000494:	4618      	mov	r0, r3
 8000496:	e6fd      	b.n	8000294 <__udivmoddi4+0x8c>
 8000498:	4543      	cmp	r3, r8
 800049a:	d2e5      	bcs.n	8000468 <__udivmoddi4+0x260>
 800049c:	ebb8 0e02 	subs.w	lr, r8, r2
 80004a0:	eb69 0104 	sbc.w	r1, r9, r4
 80004a4:	3801      	subs	r0, #1
 80004a6:	e7df      	b.n	8000468 <__udivmoddi4+0x260>
 80004a8:	4608      	mov	r0, r1
 80004aa:	e7d2      	b.n	8000452 <__udivmoddi4+0x24a>
 80004ac:	4660      	mov	r0, ip
 80004ae:	e78d      	b.n	80003cc <__udivmoddi4+0x1c4>
 80004b0:	4681      	mov	r9, r0
 80004b2:	e7b9      	b.n	8000428 <__udivmoddi4+0x220>
 80004b4:	4666      	mov	r6, ip
 80004b6:	e775      	b.n	80003a4 <__udivmoddi4+0x19c>
 80004b8:	4630      	mov	r0, r6
 80004ba:	e74a      	b.n	8000352 <__udivmoddi4+0x14a>
 80004bc:	f1ac 0c02 	sub.w	ip, ip, #2
 80004c0:	4439      	add	r1, r7
 80004c2:	e713      	b.n	80002ec <__udivmoddi4+0xe4>
 80004c4:	3802      	subs	r0, #2
 80004c6:	443c      	add	r4, r7
 80004c8:	e724      	b.n	8000314 <__udivmoddi4+0x10c>
 80004ca:	bf00      	nop

080004cc <__aeabi_idiv0>:
 80004cc:	4770      	bx	lr
 80004ce:	bf00      	nop

080004d0 <HAL_UART_RxCpltCallback>:
uint8_t rxindex=0;
uint8_t rxBuffer[12];
uint8_t newmesure=0;
uint32_t voie;

void HAL_UART_RxCpltCallback(UART_HandleTypeDef *huart){
 80004d0:	b580      	push	{r7, lr}
 80004d2:	b082      	sub	sp, #8
 80004d4:	af00      	add	r7, sp, #0
 80004d6:	6078      	str	r0, [r7, #4]

	if (rxData[0]==13){ // || rxData[0]=='\r\n'
 80004d8:	4b13      	ldr	r3, [pc, #76]	; (8000528 <HAL_UART_RxCpltCallback+0x58>)
 80004da:	781b      	ldrb	r3, [r3, #0]
 80004dc:	2b0d      	cmp	r3, #13
 80004de:	d106      	bne.n	80004ee <HAL_UART_RxCpltCallback+0x1e>
			rxindex=0;
 80004e0:	4b12      	ldr	r3, [pc, #72]	; (800052c <HAL_UART_RxCpltCallback+0x5c>)
 80004e2:	2200      	movs	r2, #0
 80004e4:	701a      	strb	r2, [r3, #0]
			newmesure=1;
 80004e6:	4b12      	ldr	r3, [pc, #72]	; (8000530 <HAL_UART_RxCpltCallback+0x60>)
 80004e8:	2201      	movs	r2, #1
 80004ea:	701a      	strb	r2, [r3, #0]
 80004ec:	e013      	b.n	8000516 <HAL_UART_RxCpltCallback+0x46>
	}
	else{
		rxBuffer[rxindex]=rxData[0];
 80004ee:	4b0f      	ldr	r3, [pc, #60]	; (800052c <HAL_UART_RxCpltCallback+0x5c>)
 80004f0:	781b      	ldrb	r3, [r3, #0]
 80004f2:	461a      	mov	r2, r3
 80004f4:	4b0c      	ldr	r3, [pc, #48]	; (8000528 <HAL_UART_RxCpltCallback+0x58>)
 80004f6:	7819      	ldrb	r1, [r3, #0]
 80004f8:	4b0e      	ldr	r3, [pc, #56]	; (8000534 <HAL_UART_RxCpltCallback+0x64>)
 80004fa:	5499      	strb	r1, [r3, r2]
		rxindex++;
 80004fc:	4b0b      	ldr	r3, [pc, #44]	; (800052c <HAL_UART_RxCpltCallback+0x5c>)
 80004fe:	781b      	ldrb	r3, [r3, #0]
 8000500:	3301      	adds	r3, #1
 8000502:	b2da      	uxtb	r2, r3
 8000504:	4b09      	ldr	r3, [pc, #36]	; (800052c <HAL_UART_RxCpltCallback+0x5c>)
 8000506:	701a      	strb	r2, [r3, #0]
		if (rxindex>11)
 8000508:	4b08      	ldr	r3, [pc, #32]	; (800052c <HAL_UART_RxCpltCallback+0x5c>)
 800050a:	781b      	ldrb	r3, [r3, #0]
 800050c:	2b0b      	cmp	r3, #11
 800050e:	d902      	bls.n	8000516 <HAL_UART_RxCpltCallback+0x46>
			rxindex=0;
 8000510:	4b06      	ldr	r3, [pc, #24]	; (800052c <HAL_UART_RxCpltCallback+0x5c>)
 8000512:	2200      	movs	r2, #0
 8000514:	701a      	strb	r2, [r3, #0]
	}
	 HAL_UART_Receive_IT(&UART,rxData,1);
 8000516:	2201      	movs	r2, #1
 8000518:	4903      	ldr	r1, [pc, #12]	; (8000528 <HAL_UART_RxCpltCallback+0x58>)
 800051a:	4807      	ldr	r0, [pc, #28]	; (8000538 <HAL_UART_RxCpltCallback+0x68>)
 800051c:	f002 f9ba 	bl	8002894 <HAL_UART_Receive_IT>
//	}
}
 8000520:	bf00      	nop
 8000522:	3708      	adds	r7, #8
 8000524:	46bd      	mov	sp, r7
 8000526:	bd80      	pop	{r7, pc}
 8000528:	2000002c 	.word	0x2000002c
 800052c:	20000028 	.word	0x20000028
 8000530:	20000029 	.word	0x20000029
 8000534:	200000c8 	.word	0x200000c8
 8000538:	200000d8 	.word	0x200000d8

0800053c <HW_AdcReadChannel>:
	}
	return i+1;
}

uint16_t HW_AdcReadChannel(uint32_t Channel)
{
 800053c:	b580      	push	{r7, lr}
 800053e:	b088      	sub	sp, #32
 8000540:	af00      	add	r7, sp, #0
 8000542:	6078      	str	r0, [r7, #4]

  ADC_ChannelConfTypeDef adcConf = {0};
 8000544:	f107 030c 	add.w	r3, r7, #12
 8000548:	2200      	movs	r2, #0
 800054a:	601a      	str	r2, [r3, #0]
 800054c:	605a      	str	r2, [r3, #4]
 800054e:	609a      	str	r2, [r3, #8]
 8000550:	60da      	str	r2, [r3, #12]

  uint16_t adcData = 0;
 8000552:	2300      	movs	r3, #0
 8000554:	83fb      	strh	r3, [r7, #30]


    /* configure adc channel */
    adcConf.Channel = Channel;
 8000556:	687b      	ldr	r3, [r7, #4]
 8000558:	60fb      	str	r3, [r7, #12]
    adcConf.Rank = 1;
 800055a:	2301      	movs	r3, #1
 800055c:	613b      	str	r3, [r7, #16]
    adcConf.SamplingTime = ADC_SAMPLETIME_3CYCLES;
 800055e:	2300      	movs	r3, #0
 8000560:	617b      	str	r3, [r7, #20]

       adcConf.Offset = 0;
 8000562:	2300      	movs	r3, #0
 8000564:	61bb      	str	r3, [r7, #24]


    if (HAL_ADC_ConfigChannel(&hadc1, &adcConf) != HAL_OK)
 8000566:	f107 030c 	add.w	r3, r7, #12
 800056a:	4619      	mov	r1, r3
 800056c:	480e      	ldr	r0, [pc, #56]	; (80005a8 <HW_AdcReadChannel+0x6c>)
 800056e:	f000 fe89 	bl	8001284 <HAL_ADC_ConfigChannel>
 8000572:	4603      	mov	r3, r0
 8000574:	2b00      	cmp	r3, #0
 8000576:	d001      	beq.n	800057c <HW_AdcReadChannel+0x40>
    {
      Error_Handler();
 8000578:	f000 fa7a 	bl	8000a70 <Error_Handler>
    }

    /* Start the conversion process */
    HAL_ADC_Start(&hadc1);
 800057c:	480a      	ldr	r0, [pc, #40]	; (80005a8 <HW_AdcReadChannel+0x6c>)
 800057e:	f000 fd01 	bl	8000f84 <HAL_ADC_Start>

    /* Wait for the end of conversion */
    HAL_ADC_PollForConversion(&hadc1, HAL_MAX_DELAY);
 8000582:	f04f 31ff 	mov.w	r1, #4294967295	; 0xffffffff
 8000586:	4808      	ldr	r0, [pc, #32]	; (80005a8 <HW_AdcReadChannel+0x6c>)
 8000588:	f000 fde3 	bl	8001152 <HAL_ADC_PollForConversion>

    /* Get the converted value of regular channel */
    adcData = HAL_ADC_GetValue(&hadc1);
 800058c:	4806      	ldr	r0, [pc, #24]	; (80005a8 <HW_AdcReadChannel+0x6c>)
 800058e:	f000 fe6b 	bl	8001268 <HAL_ADC_GetValue>
 8000592:	4603      	mov	r3, r0
 8000594:	83fb      	strh	r3, [r7, #30]
    HAL_ADC_Stop(&hadc1);
 8000596:	4804      	ldr	r0, [pc, #16]	; (80005a8 <HW_AdcReadChannel+0x6c>)
 8000598:	f000 fda8 	bl	80010ec <HAL_ADC_Stop>
 //   ADC_Disable(&hadc1) ;

 //   ADCCLK_DISABLE();
//  }
  return adcData;
 800059c:	8bfb      	ldrh	r3, [r7, #30]
}
 800059e:	4618      	mov	r0, r3
 80005a0:	3720      	adds	r7, #32
 80005a2:	46bd      	mov	sp, r7
 80005a4:	bd80      	pop	{r7, pc}
 80005a6:	bf00      	nop
 80005a8:	20000030 	.word	0x20000030

080005ac <commandeRelais>:
}

float mesurePH(){
	return HW_AdcReadChannel(ADC_CHANNEL_8);
}
void commandeRelais(char val){
 80005ac:	b580      	push	{r7, lr}
 80005ae:	b082      	sub	sp, #8
 80005b0:	af00      	add	r7, sp, #0
 80005b2:	4603      	mov	r3, r0
 80005b4:	71fb      	strb	r3, [r7, #7]
//	HAL_GPIO_WritePin(GPIOB, GPIO_PIN_4|GPIO_PIN_5, GPIO_PIN_RESET);
    if ((val&1)==0)
 80005b6:	79fb      	ldrb	r3, [r7, #7]
 80005b8:	f003 0301 	and.w	r3, r3, #1
 80005bc:	2b00      	cmp	r3, #0
 80005be:	d105      	bne.n	80005cc <commandeRelais+0x20>
        HAL_GPIO_WritePin(GPIOB, GPIO_PIN_5, GPIO_PIN_RESET);
 80005c0:	2200      	movs	r2, #0
 80005c2:	2120      	movs	r1, #32
 80005c4:	480e      	ldr	r0, [pc, #56]	; (8000600 <commandeRelais+0x54>)
 80005c6:	f001 fbb3 	bl	8001d30 <HAL_GPIO_WritePin>
 80005ca:	e004      	b.n	80005d6 <commandeRelais+0x2a>
    else HAL_GPIO_WritePin(GPIOB, GPIO_PIN_5, GPIO_PIN_SET);
 80005cc:	2201      	movs	r2, #1
 80005ce:	2120      	movs	r1, #32
 80005d0:	480b      	ldr	r0, [pc, #44]	; (8000600 <commandeRelais+0x54>)
 80005d2:	f001 fbad 	bl	8001d30 <HAL_GPIO_WritePin>
   if ((val&2)==0)
 80005d6:	79fb      	ldrb	r3, [r7, #7]
 80005d8:	f003 0302 	and.w	r3, r3, #2
 80005dc:	2b00      	cmp	r3, #0
 80005de:	d105      	bne.n	80005ec <commandeRelais+0x40>
        HAL_GPIO_WritePin(GPIOB, GPIO_PIN_4, GPIO_PIN_RESET);
 80005e0:	2200      	movs	r2, #0
 80005e2:	2110      	movs	r1, #16
 80005e4:	4806      	ldr	r0, [pc, #24]	; (8000600 <commandeRelais+0x54>)
 80005e6:	f001 fba3 	bl	8001d30 <HAL_GPIO_WritePin>
    else HAL_GPIO_WritePin(GPIOB, GPIO_PIN_4, GPIO_PIN_SET);
}
 80005ea:	e004      	b.n	80005f6 <commandeRelais+0x4a>
    else HAL_GPIO_WritePin(GPIOB, GPIO_PIN_4, GPIO_PIN_SET);
 80005ec:	2201      	movs	r2, #1
 80005ee:	2110      	movs	r1, #16
 80005f0:	4803      	ldr	r0, [pc, #12]	; (8000600 <commandeRelais+0x54>)
 80005f2:	f001 fb9d 	bl	8001d30 <HAL_GPIO_WritePin>
}
 80005f6:	bf00      	nop
 80005f8:	3708      	adds	r7, #8
 80005fa:	46bd      	mov	sp, r7
 80005fc:	bd80      	pop	{r7, pc}
 80005fe:	bf00      	nop
 8000600:	40020400 	.word	0x40020400

08000604 <main>:
/**
  * @brief  The application entry point.
  * @retval int
  */
int main(void)
{
 8000604:	b580      	push	{r7, lr}
 8000606:	af00      	add	r7, sp, #0
  /* USER CODE END 1 */

  /* MCU Configuration--------------------------------------------------------*/

  /* Reset of all peripherals, Initializes the Flash interface and the Systick. */
  HAL_Init();
 8000608:	f000 fbe2 	bl	8000dd0 <HAL_Init>
  /* USER CODE BEGIN Init */

  /* USER CODE END Init */

  /* Configure the system clock */
  SystemClock_Config();
 800060c:	f000 f89c 	bl	8000748 <SystemClock_Config>
  /* USER CODE BEGIN SysInit */

  /* USER CODE END SysInit */

  /* Initialize all configured peripherals */
  MX_GPIO_Init();
 8000610:	f000 f9aa 	bl	8000968 <MX_GPIO_Init>
  MX_USART2_UART_Init();
 8000614:	f000 f97e 	bl	8000914 <MX_USART2_UART_Init>
  MX_ADC1_Init();
 8000618:	f000 f900 	bl	800081c <MX_ADC1_Init>
  MX_USART1_UART_Init();
 800061c:	f000 f950 	bl	80008c0 <MX_USART1_UART_Init>
  /* USER CODE BEGIN 2 */
  HAL_UART_Receive_IT(&UART,rxData,1);
 8000620:	2201      	movs	r2, #1
 8000622:	4943      	ldr	r1, [pc, #268]	; (8000730 <main+0x12c>)
 8000624:	4843      	ldr	r0, [pc, #268]	; (8000734 <main+0x130>)
 8000626:	f002 f935 	bl	8002894 <HAL_UART_Receive_IT>
  /* Infinite loop */
  /* USER CODE BEGIN WHILE */
  while (1)
  {

   if (newmesure==1){
 800062a:	4b43      	ldr	r3, [pc, #268]	; (8000738 <main+0x134>)
 800062c:	781b      	ldrb	r3, [r3, #0]
 800062e:	2b01      	cmp	r3, #1
 8000630:	d179      	bne.n	8000726 <main+0x122>
           if (rxBuffer[0]=='#'){
 8000632:	4b42      	ldr	r3, [pc, #264]	; (800073c <main+0x138>)
 8000634:	781b      	ldrb	r3, [r3, #0]
 8000636:	2b23      	cmp	r3, #35	; 0x23
 8000638:	d171      	bne.n	800071e <main+0x11a>
               switch (rxBuffer[1]){
 800063a:	4b40      	ldr	r3, [pc, #256]	; (800073c <main+0x138>)
 800063c:	785b      	ldrb	r3, [r3, #1]
 800063e:	2b45      	cmp	r3, #69	; 0x45
 8000640:	d002      	beq.n	8000648 <main+0x44>
 8000642:	2b4c      	cmp	r3, #76	; 0x4c
 8000644:	d00c      	beq.n	8000660 <main+0x5c>
 8000646:	e06b      	b.n	8000720 <main+0x11c>
                   case 'E': HAL_UART_Transmit(&UART,rxBuffer,4,100);
 8000648:	2364      	movs	r3, #100	; 0x64
 800064a:	2204      	movs	r2, #4
 800064c:	493b      	ldr	r1, [pc, #236]	; (800073c <main+0x138>)
 800064e:	4839      	ldr	r0, [pc, #228]	; (8000734 <main+0x130>)
 8000650:	f002 f849 	bl	80026e6 <HAL_UART_Transmit>
                             commandeRelais(rxBuffer[2]);
 8000654:	4b39      	ldr	r3, [pc, #228]	; (800073c <main+0x138>)
 8000656:	789b      	ldrb	r3, [r3, #2]
 8000658:	4618      	mov	r0, r3
 800065a:	f7ff ffa7 	bl	80005ac <commandeRelais>
                             break;
 800065e:	e05f      	b.n	8000720 <main+0x11c>
                   case 'L': switch (rxBuffer[2]-0x30){
 8000660:	4b36      	ldr	r3, [pc, #216]	; (800073c <main+0x138>)
 8000662:	789b      	ldrb	r3, [r3, #2]
 8000664:	3b30      	subs	r3, #48	; 0x30
 8000666:	2b0a      	cmp	r3, #10
 8000668:	d82b      	bhi.n	80006c2 <main+0xbe>
 800066a:	a201      	add	r2, pc, #4	; (adr r2, 8000670 <main+0x6c>)
 800066c:	f852 f023 	ldr.w	pc, [r2, r3, lsl #2]
 8000670:	0800069d 	.word	0x0800069d
 8000674:	080006a5 	.word	0x080006a5
 8000678:	080006c3 	.word	0x080006c3
 800067c:	080006c3 	.word	0x080006c3
 8000680:	080006b5 	.word	0x080006b5
 8000684:	080006c3 	.word	0x080006c3
 8000688:	080006c3 	.word	0x080006c3
 800068c:	080006c3 	.word	0x080006c3
 8000690:	080006ad 	.word	0x080006ad
 8000694:	080006c3 	.word	0x080006c3
 8000698:	080006bd 	.word	0x080006bd
                   	   	   	   case 0:voie=ADC_CHANNEL_0;break;//teau
 800069c:	4b28      	ldr	r3, [pc, #160]	; (8000740 <main+0x13c>)
 800069e:	2200      	movs	r2, #0
 80006a0:	601a      	str	r2, [r3, #0]
 80006a2:	e012      	b.n	80006ca <main+0xc6>
                   	   	   	   case 1:voie=ADC_CHANNEL_1;break;//tambiant
 80006a4:	4b26      	ldr	r3, [pc, #152]	; (8000740 <main+0x13c>)
 80006a6:	2201      	movs	r2, #1
 80006a8:	601a      	str	r2, [r3, #0]
 80006aa:	e00e      	b.n	80006ca <main+0xc6>
                   	   	   	   case 8:voie=ADC_CHANNEL_8;break;//ph
 80006ac:	4b24      	ldr	r3, [pc, #144]	; (8000740 <main+0x13c>)
 80006ae:	2208      	movs	r2, #8
 80006b0:	601a      	str	r2, [r3, #0]
 80006b2:	e00a      	b.n	80006ca <main+0xc6>
                   	   	   	   case 4:voie=ADC_CHANNEL_4;break;//luminosité
 80006b4:	4b22      	ldr	r3, [pc, #136]	; (8000740 <main+0x13c>)
 80006b6:	2204      	movs	r2, #4
 80006b8:	601a      	str	r2, [r3, #0]
 80006ba:	e006      	b.n	80006ca <main+0xc6>
                   	   	   	   case 10:voie=ADC_CHANNEL_10;
 80006bc:	4b20      	ldr	r3, [pc, #128]	; (8000740 <main+0x13c>)
 80006be:	220a      	movs	r2, #10
 80006c0:	601a      	str	r2, [r3, #0]
                   	   	   	   default:voie=ADC_CHANNEL_11;break; //niveau eau
 80006c2:	4b1f      	ldr	r3, [pc, #124]	; (8000740 <main+0x13c>)
 80006c4:	220b      	movs	r2, #11
 80006c6:	601a      	str	r2, [r3, #0]
 80006c8:	bf00      	nop
                   	   	   	   }
                	   	     conv=HW_AdcReadChannel(voie);
 80006ca:	4b1d      	ldr	r3, [pc, #116]	; (8000740 <main+0x13c>)
 80006cc:	681b      	ldr	r3, [r3, #0]
 80006ce:	4618      	mov	r0, r3
 80006d0:	f7ff ff34 	bl	800053c <HW_AdcReadChannel>
 80006d4:	4603      	mov	r3, r0
 80006d6:	461a      	mov	r2, r3
 80006d8:	4b1a      	ldr	r3, [pc, #104]	; (8000744 <main+0x140>)
 80006da:	801a      	strh	r2, [r3, #0]
                	   	     conv=HW_AdcReadChannel(voie);
 80006dc:	4b18      	ldr	r3, [pc, #96]	; (8000740 <main+0x13c>)
 80006de:	681b      	ldr	r3, [r3, #0]
 80006e0:	4618      	mov	r0, r3
 80006e2:	f7ff ff2b 	bl	800053c <HW_AdcReadChannel>
 80006e6:	4603      	mov	r3, r0
 80006e8:	461a      	mov	r2, r3
 80006ea:	4b16      	ldr	r3, [pc, #88]	; (8000744 <main+0x140>)
 80006ec:	801a      	strh	r2, [r3, #0]
                             rxBuffer[3]=(unsigned char)(conv>>8);//+0x80;
 80006ee:	4b15      	ldr	r3, [pc, #84]	; (8000744 <main+0x140>)
 80006f0:	881b      	ldrh	r3, [r3, #0]
 80006f2:	0a1b      	lsrs	r3, r3, #8
 80006f4:	b29b      	uxth	r3, r3
 80006f6:	b2da      	uxtb	r2, r3
 80006f8:	4b10      	ldr	r3, [pc, #64]	; (800073c <main+0x138>)
 80006fa:	70da      	strb	r2, [r3, #3]
                             rxBuffer[4]=(unsigned char)(conv);
 80006fc:	4b11      	ldr	r3, [pc, #68]	; (8000744 <main+0x140>)
 80006fe:	881b      	ldrh	r3, [r3, #0]
 8000700:	b2da      	uxtb	r2, r3
 8000702:	4b0e      	ldr	r3, [pc, #56]	; (800073c <main+0x138>)
 8000704:	711a      	strb	r2, [r3, #4]
                             rxBuffer[5]=13;
 8000706:	4b0d      	ldr	r3, [pc, #52]	; (800073c <main+0x138>)
 8000708:	220d      	movs	r2, #13
 800070a:	715a      	strb	r2, [r3, #5]
                             rxBuffer[6]=13;
 800070c:	4b0b      	ldr	r3, [pc, #44]	; (800073c <main+0x138>)
 800070e:	220d      	movs	r2, #13
 8000710:	719a      	strb	r2, [r3, #6]
                             HAL_UART_Transmit_IT(&UART,rxBuffer,6);
 8000712:	2206      	movs	r2, #6
 8000714:	4909      	ldr	r1, [pc, #36]	; (800073c <main+0x138>)
 8000716:	4807      	ldr	r0, [pc, #28]	; (8000734 <main+0x130>)
 8000718:	f002 f877 	bl	800280a <HAL_UART_Transmit_IT>
                             break;
 800071c:	e000      	b.n	8000720 <main+0x11c>
               }
           }
 800071e:	bf00      	nop
        newmesure=0;
 8000720:	4b05      	ldr	r3, [pc, #20]	; (8000738 <main+0x134>)
 8000722:	2200      	movs	r2, #0
 8000724:	701a      	strb	r2, [r3, #0]
       }

	  HAL_Delay(10);
 8000726:	200a      	movs	r0, #10
 8000728:	f000 fbc4 	bl	8000eb4 <HAL_Delay>
   if (newmesure==1){
 800072c:	e77d      	b.n	800062a <main+0x26>
 800072e:	bf00      	nop
 8000730:	2000002c 	.word	0x2000002c
 8000734:	200000d8 	.word	0x200000d8
 8000738:	20000029 	.word	0x20000029
 800073c:	200000c8 	.word	0x200000c8
 8000740:	200000c0 	.word	0x200000c0
 8000744:	2000002e 	.word	0x2000002e

08000748 <SystemClock_Config>:
/**
  * @brief System Clock Configuration
  * @retval None
  */
void SystemClock_Config(void)
{
 8000748:	b580      	push	{r7, lr}
 800074a:	b094      	sub	sp, #80	; 0x50
 800074c:	af00      	add	r7, sp, #0
  RCC_OscInitTypeDef RCC_OscInitStruct = {0};
 800074e:	f107 0320 	add.w	r3, r7, #32
 8000752:	2230      	movs	r2, #48	; 0x30
 8000754:	2100      	movs	r1, #0
 8000756:	4618      	mov	r0, r3
 8000758:	f002 ffa8 	bl	80036ac <memset>
  RCC_ClkInitTypeDef RCC_ClkInitStruct = {0};
 800075c:	f107 030c 	add.w	r3, r7, #12
 8000760:	2200      	movs	r2, #0
 8000762:	601a      	str	r2, [r3, #0]
 8000764:	605a      	str	r2, [r3, #4]
 8000766:	609a      	str	r2, [r3, #8]
 8000768:	60da      	str	r2, [r3, #12]
 800076a:	611a      	str	r2, [r3, #16]

  /** Configure the main internal regulator output voltage
  */
  __HAL_RCC_PWR_CLK_ENABLE();
 800076c:	2300      	movs	r3, #0
 800076e:	60bb      	str	r3, [r7, #8]
 8000770:	4b28      	ldr	r3, [pc, #160]	; (8000814 <SystemClock_Config+0xcc>)
 8000772:	6c1b      	ldr	r3, [r3, #64]	; 0x40
 8000774:	4a27      	ldr	r2, [pc, #156]	; (8000814 <SystemClock_Config+0xcc>)
 8000776:	f043 5380 	orr.w	r3, r3, #268435456	; 0x10000000
 800077a:	6413      	str	r3, [r2, #64]	; 0x40
 800077c:	4b25      	ldr	r3, [pc, #148]	; (8000814 <SystemClock_Config+0xcc>)
 800077e:	6c1b      	ldr	r3, [r3, #64]	; 0x40
 8000780:	f003 5380 	and.w	r3, r3, #268435456	; 0x10000000
 8000784:	60bb      	str	r3, [r7, #8]
 8000786:	68bb      	ldr	r3, [r7, #8]
  __HAL_PWR_VOLTAGESCALING_CONFIG(PWR_REGULATOR_VOLTAGE_SCALE1);
 8000788:	2300      	movs	r3, #0
 800078a:	607b      	str	r3, [r7, #4]
 800078c:	4b22      	ldr	r3, [pc, #136]	; (8000818 <SystemClock_Config+0xd0>)
 800078e:	681b      	ldr	r3, [r3, #0]
 8000790:	4a21      	ldr	r2, [pc, #132]	; (8000818 <SystemClock_Config+0xd0>)
 8000792:	f443 4340 	orr.w	r3, r3, #49152	; 0xc000
 8000796:	6013      	str	r3, [r2, #0]
 8000798:	4b1f      	ldr	r3, [pc, #124]	; (8000818 <SystemClock_Config+0xd0>)
 800079a:	681b      	ldr	r3, [r3, #0]
 800079c:	f403 4340 	and.w	r3, r3, #49152	; 0xc000
 80007a0:	607b      	str	r3, [r7, #4]
 80007a2:	687b      	ldr	r3, [r7, #4]
  /** Initializes the RCC Oscillators according to the specified parameters
  * in the RCC_OscInitTypeDef structure.
  */
  RCC_OscInitStruct.OscillatorType = RCC_OSCILLATORTYPE_HSI;
 80007a4:	2302      	movs	r3, #2
 80007a6:	623b      	str	r3, [r7, #32]
  RCC_OscInitStruct.HSIState = RCC_HSI_ON;
 80007a8:	2301      	movs	r3, #1
 80007aa:	62fb      	str	r3, [r7, #44]	; 0x2c
  RCC_OscInitStruct.HSICalibrationValue = RCC_HSICALIBRATION_DEFAULT;
 80007ac:	2310      	movs	r3, #16
 80007ae:	633b      	str	r3, [r7, #48]	; 0x30
  RCC_OscInitStruct.PLL.PLLState = RCC_PLL_ON;
 80007b0:	2302      	movs	r3, #2
 80007b2:	63bb      	str	r3, [r7, #56]	; 0x38
  RCC_OscInitStruct.PLL.PLLSource = RCC_PLLSOURCE_HSI;
 80007b4:	2300      	movs	r3, #0
 80007b6:	63fb      	str	r3, [r7, #60]	; 0x3c
  RCC_OscInitStruct.PLL.PLLM = 16;
 80007b8:	2310      	movs	r3, #16
 80007ba:	643b      	str	r3, [r7, #64]	; 0x40
  RCC_OscInitStruct.PLL.PLLN = 336;
 80007bc:	f44f 73a8 	mov.w	r3, #336	; 0x150
 80007c0:	647b      	str	r3, [r7, #68]	; 0x44
  RCC_OscInitStruct.PLL.PLLP = RCC_PLLP_DIV4;
 80007c2:	2304      	movs	r3, #4
 80007c4:	64bb      	str	r3, [r7, #72]	; 0x48
  RCC_OscInitStruct.PLL.PLLQ = 4;
 80007c6:	2304      	movs	r3, #4
 80007c8:	64fb      	str	r3, [r7, #76]	; 0x4c
  if (HAL_RCC_OscConfig(&RCC_OscInitStruct) != HAL_OK)
 80007ca:	f107 0320 	add.w	r3, r7, #32
 80007ce:	4618      	mov	r0, r3
 80007d0:	f001 fac8 	bl	8001d64 <HAL_RCC_OscConfig>
 80007d4:	4603      	mov	r3, r0
 80007d6:	2b00      	cmp	r3, #0
 80007d8:	d001      	beq.n	80007de <SystemClock_Config+0x96>
  {
    Error_Handler();
 80007da:	f000 f949 	bl	8000a70 <Error_Handler>
  }
  /** Initializes the CPU, AHB and APB buses clocks
  */
  RCC_ClkInitStruct.ClockType = RCC_CLOCKTYPE_HCLK|RCC_CLOCKTYPE_SYSCLK
 80007de:	230f      	movs	r3, #15
 80007e0:	60fb      	str	r3, [r7, #12]
                              |RCC_CLOCKTYPE_PCLK1|RCC_CLOCKTYPE_PCLK2;
  RCC_ClkInitStruct.SYSCLKSource = RCC_SYSCLKSOURCE_PLLCLK;
 80007e2:	2302      	movs	r3, #2
 80007e4:	613b      	str	r3, [r7, #16]
  RCC_ClkInitStruct.AHBCLKDivider = RCC_SYSCLK_DIV1;
 80007e6:	2300      	movs	r3, #0
 80007e8:	617b      	str	r3, [r7, #20]
  RCC_ClkInitStruct.APB1CLKDivider = RCC_HCLK_DIV2;
 80007ea:	f44f 5380 	mov.w	r3, #4096	; 0x1000
 80007ee:	61bb      	str	r3, [r7, #24]
  RCC_ClkInitStruct.APB2CLKDivider = RCC_HCLK_DIV1;
 80007f0:	2300      	movs	r3, #0
 80007f2:	61fb      	str	r3, [r7, #28]

  if (HAL_RCC_ClockConfig(&RCC_ClkInitStruct, FLASH_LATENCY_2) != HAL_OK)
 80007f4:	f107 030c 	add.w	r3, r7, #12
 80007f8:	2102      	movs	r1, #2
 80007fa:	4618      	mov	r0, r3
 80007fc:	f001 fd2a 	bl	8002254 <HAL_RCC_ClockConfig>
 8000800:	4603      	mov	r3, r0
 8000802:	2b00      	cmp	r3, #0
 8000804:	d001      	beq.n	800080a <SystemClock_Config+0xc2>
  {
    Error_Handler();
 8000806:	f000 f933 	bl	8000a70 <Error_Handler>
  }
}
 800080a:	bf00      	nop
 800080c:	3750      	adds	r7, #80	; 0x50
 800080e:	46bd      	mov	sp, r7
 8000810:	bd80      	pop	{r7, pc}
 8000812:	bf00      	nop
 8000814:	40023800 	.word	0x40023800
 8000818:	40007000 	.word	0x40007000

0800081c <MX_ADC1_Init>:
  * @brief ADC1 Initialization Function
  * @param None
  * @retval None
  */
static void MX_ADC1_Init(void)
{
 800081c:	b580      	push	{r7, lr}
 800081e:	b084      	sub	sp, #16
 8000820:	af00      	add	r7, sp, #0

  /* USER CODE BEGIN ADC1_Init 0 */

  /* USER CODE END ADC1_Init 0 */

  ADC_ChannelConfTypeDef sConfig = {0};
 8000822:	463b      	mov	r3, r7
 8000824:	2200      	movs	r2, #0
 8000826:	601a      	str	r2, [r3, #0]
 8000828:	605a      	str	r2, [r3, #4]
 800082a:	609a      	str	r2, [r3, #8]
 800082c:	60da      	str	r2, [r3, #12]
  /* USER CODE BEGIN ADC1_Init 1 */

  /* USER CODE END ADC1_Init 1 */
  /** Configure the global features of the ADC (Clock, Resolution, Data Alignment and number of conversion)
  */
  hadc1.Instance = ADC1;
 800082e:	4b21      	ldr	r3, [pc, #132]	; (80008b4 <MX_ADC1_Init+0x98>)
 8000830:	4a21      	ldr	r2, [pc, #132]	; (80008b8 <MX_ADC1_Init+0x9c>)
 8000832:	601a      	str	r2, [r3, #0]
  hadc1.Init.ClockPrescaler = ADC_CLOCK_SYNC_PCLK_DIV4;
 8000834:	4b1f      	ldr	r3, [pc, #124]	; (80008b4 <MX_ADC1_Init+0x98>)
 8000836:	f44f 3280 	mov.w	r2, #65536	; 0x10000
 800083a:	605a      	str	r2, [r3, #4]
  hadc1.Init.Resolution = ADC_RESOLUTION_12B;
 800083c:	4b1d      	ldr	r3, [pc, #116]	; (80008b4 <MX_ADC1_Init+0x98>)
 800083e:	2200      	movs	r2, #0
 8000840:	609a      	str	r2, [r3, #8]
  hadc1.Init.ScanConvMode = DISABLE;
 8000842:	4b1c      	ldr	r3, [pc, #112]	; (80008b4 <MX_ADC1_Init+0x98>)
 8000844:	2200      	movs	r2, #0
 8000846:	611a      	str	r2, [r3, #16]
  hadc1.Init.ContinuousConvMode = ENABLE;
 8000848:	4b1a      	ldr	r3, [pc, #104]	; (80008b4 <MX_ADC1_Init+0x98>)
 800084a:	2201      	movs	r2, #1
 800084c:	761a      	strb	r2, [r3, #24]
  hadc1.Init.DiscontinuousConvMode = DISABLE;
 800084e:	4b19      	ldr	r3, [pc, #100]	; (80008b4 <MX_ADC1_Init+0x98>)
 8000850:	2200      	movs	r2, #0
 8000852:	f883 2020 	strb.w	r2, [r3, #32]
  hadc1.Init.ExternalTrigConvEdge = ADC_EXTERNALTRIGCONVEDGE_NONE;
 8000856:	4b17      	ldr	r3, [pc, #92]	; (80008b4 <MX_ADC1_Init+0x98>)
 8000858:	2200      	movs	r2, #0
 800085a:	62da      	str	r2, [r3, #44]	; 0x2c
  hadc1.Init.ExternalTrigConv = ADC_SOFTWARE_START;
 800085c:	4b15      	ldr	r3, [pc, #84]	; (80008b4 <MX_ADC1_Init+0x98>)
 800085e:	4a17      	ldr	r2, [pc, #92]	; (80008bc <MX_ADC1_Init+0xa0>)
 8000860:	629a      	str	r2, [r3, #40]	; 0x28
  hadc1.Init.DataAlign = ADC_DATAALIGN_RIGHT;
 8000862:	4b14      	ldr	r3, [pc, #80]	; (80008b4 <MX_ADC1_Init+0x98>)
 8000864:	2200      	movs	r2, #0
 8000866:	60da      	str	r2, [r3, #12]
  hadc1.Init.NbrOfConversion = 1;
 8000868:	4b12      	ldr	r3, [pc, #72]	; (80008b4 <MX_ADC1_Init+0x98>)
 800086a:	2201      	movs	r2, #1
 800086c:	61da      	str	r2, [r3, #28]
  hadc1.Init.DMAContinuousRequests = DISABLE;
 800086e:	4b11      	ldr	r3, [pc, #68]	; (80008b4 <MX_ADC1_Init+0x98>)
 8000870:	2200      	movs	r2, #0
 8000872:	f883 2030 	strb.w	r2, [r3, #48]	; 0x30
  hadc1.Init.EOCSelection = ADC_EOC_SINGLE_CONV;
 8000876:	4b0f      	ldr	r3, [pc, #60]	; (80008b4 <MX_ADC1_Init+0x98>)
 8000878:	2201      	movs	r2, #1
 800087a:	615a      	str	r2, [r3, #20]
  if (HAL_ADC_Init(&hadc1) != HAL_OK)
 800087c:	480d      	ldr	r0, [pc, #52]	; (80008b4 <MX_ADC1_Init+0x98>)
 800087e:	f000 fb3d 	bl	8000efc <HAL_ADC_Init>
 8000882:	4603      	mov	r3, r0
 8000884:	2b00      	cmp	r3, #0
 8000886:	d001      	beq.n	800088c <MX_ADC1_Init+0x70>
  {
    Error_Handler();
 8000888:	f000 f8f2 	bl	8000a70 <Error_Handler>
  }
  /** Configure for the selected ADC regular channel its corresponding rank in the sequencer and its sample time.
  */
  sConfig.Channel = ADC_CHANNEL_11;
 800088c:	230b      	movs	r3, #11
 800088e:	603b      	str	r3, [r7, #0]
  sConfig.Rank = 1;
 8000890:	2301      	movs	r3, #1
 8000892:	607b      	str	r3, [r7, #4]
  sConfig.SamplingTime = ADC_SAMPLETIME_3CYCLES;
 8000894:	2300      	movs	r3, #0
 8000896:	60bb      	str	r3, [r7, #8]
  if (HAL_ADC_ConfigChannel(&hadc1, &sConfig) != HAL_OK)
 8000898:	463b      	mov	r3, r7
 800089a:	4619      	mov	r1, r3
 800089c:	4805      	ldr	r0, [pc, #20]	; (80008b4 <MX_ADC1_Init+0x98>)
 800089e:	f000 fcf1 	bl	8001284 <HAL_ADC_ConfigChannel>
 80008a2:	4603      	mov	r3, r0
 80008a4:	2b00      	cmp	r3, #0
 80008a6:	d001      	beq.n	80008ac <MX_ADC1_Init+0x90>
  {
    Error_Handler();
 80008a8:	f000 f8e2 	bl	8000a70 <Error_Handler>
  }
  /* USER CODE BEGIN ADC1_Init 2 */

  /* USER CODE END ADC1_Init 2 */

}
 80008ac:	bf00      	nop
 80008ae:	3710      	adds	r7, #16
 80008b0:	46bd      	mov	sp, r7
 80008b2:	bd80      	pop	{r7, pc}
 80008b4:	20000030 	.word	0x20000030
 80008b8:	40012000 	.word	0x40012000
 80008bc:	0f000001 	.word	0x0f000001

080008c0 <MX_USART1_UART_Init>:
  * @brief USART1 Initialization Function
  * @param None
  * @retval None
  */
static void MX_USART1_UART_Init(void)
{
 80008c0:	b580      	push	{r7, lr}
 80008c2:	af00      	add	r7, sp, #0
  /* USER CODE END USART1_Init 0 */

  /* USER CODE BEGIN USART1_Init 1 */

  /* USER CODE END USART1_Init 1 */
  huart1.Instance = USART1;
 80008c4:	4b11      	ldr	r3, [pc, #68]	; (800090c <MX_USART1_UART_Init+0x4c>)
 80008c6:	4a12      	ldr	r2, [pc, #72]	; (8000910 <MX_USART1_UART_Init+0x50>)
 80008c8:	601a      	str	r2, [r3, #0]
  huart1.Init.BaudRate = 115200;
 80008ca:	4b10      	ldr	r3, [pc, #64]	; (800090c <MX_USART1_UART_Init+0x4c>)
 80008cc:	f44f 32e1 	mov.w	r2, #115200	; 0x1c200
 80008d0:	605a      	str	r2, [r3, #4]
  huart1.Init.WordLength = UART_WORDLENGTH_8B;
 80008d2:	4b0e      	ldr	r3, [pc, #56]	; (800090c <MX_USART1_UART_Init+0x4c>)
 80008d4:	2200      	movs	r2, #0
 80008d6:	609a      	str	r2, [r3, #8]
  huart1.Init.StopBits = UART_STOPBITS_1;
 80008d8:	4b0c      	ldr	r3, [pc, #48]	; (800090c <MX_USART1_UART_Init+0x4c>)
 80008da:	2200      	movs	r2, #0
 80008dc:	60da      	str	r2, [r3, #12]
  huart1.Init.Parity = UART_PARITY_NONE;
 80008de:	4b0b      	ldr	r3, [pc, #44]	; (800090c <MX_USART1_UART_Init+0x4c>)
 80008e0:	2200      	movs	r2, #0
 80008e2:	611a      	str	r2, [r3, #16]
  huart1.Init.Mode = UART_MODE_TX_RX;
 80008e4:	4b09      	ldr	r3, [pc, #36]	; (800090c <MX_USART1_UART_Init+0x4c>)
 80008e6:	220c      	movs	r2, #12
 80008e8:	615a      	str	r2, [r3, #20]
  huart1.Init.HwFlowCtl = UART_HWCONTROL_NONE;
 80008ea:	4b08      	ldr	r3, [pc, #32]	; (800090c <MX_USART1_UART_Init+0x4c>)
 80008ec:	2200      	movs	r2, #0
 80008ee:	619a      	str	r2, [r3, #24]
  huart1.Init.OverSampling = UART_OVERSAMPLING_16;
 80008f0:	4b06      	ldr	r3, [pc, #24]	; (800090c <MX_USART1_UART_Init+0x4c>)
 80008f2:	2200      	movs	r2, #0
 80008f4:	61da      	str	r2, [r3, #28]
  if (HAL_UART_Init(&huart1) != HAL_OK)
 80008f6:	4805      	ldr	r0, [pc, #20]	; (800090c <MX_USART1_UART_Init+0x4c>)
 80008f8:	f001 fea8 	bl	800264c <HAL_UART_Init>
 80008fc:	4603      	mov	r3, r0
 80008fe:	2b00      	cmp	r3, #0
 8000900:	d001      	beq.n	8000906 <MX_USART1_UART_Init+0x46>
  {
    Error_Handler();
 8000902:	f000 f8b5 	bl	8000a70 <Error_Handler>
  }
  /* USER CODE BEGIN USART1_Init 2 */

  /* USER CODE END USART1_Init 2 */

}
 8000906:	bf00      	nop
 8000908:	bd80      	pop	{r7, pc}
 800090a:	bf00      	nop
 800090c:	2000007c 	.word	0x2000007c
 8000910:	40011000 	.word	0x40011000

08000914 <MX_USART2_UART_Init>:
  * @brief USART2 Initialization Function
  * @param None
  * @retval None
  */
static void MX_USART2_UART_Init(void)
{
 8000914:	b580      	push	{r7, lr}
 8000916:	af00      	add	r7, sp, #0
  /* USER CODE END USART2_Init 0 */

  /* USER CODE BEGIN USART2_Init 1 */

  /* USER CODE END USART2_Init 1 */
  huart2.Instance = USART2;
 8000918:	4b11      	ldr	r3, [pc, #68]	; (8000960 <MX_USART2_UART_Init+0x4c>)
 800091a:	4a12      	ldr	r2, [pc, #72]	; (8000964 <MX_USART2_UART_Init+0x50>)
 800091c:	601a      	str	r2, [r3, #0]
  huart2.Init.BaudRate = 115200;
 800091e:	4b10      	ldr	r3, [pc, #64]	; (8000960 <MX_USART2_UART_Init+0x4c>)
 8000920:	f44f 32e1 	mov.w	r2, #115200	; 0x1c200
 8000924:	605a      	str	r2, [r3, #4]
  huart2.Init.WordLength = UART_WORDLENGTH_8B;
 8000926:	4b0e      	ldr	r3, [pc, #56]	; (8000960 <MX_USART2_UART_Init+0x4c>)
 8000928:	2200      	movs	r2, #0
 800092a:	609a      	str	r2, [r3, #8]
  huart2.Init.StopBits = UART_STOPBITS_1;
 800092c:	4b0c      	ldr	r3, [pc, #48]	; (8000960 <MX_USART2_UART_Init+0x4c>)
 800092e:	2200      	movs	r2, #0
 8000930:	60da      	str	r2, [r3, #12]
  huart2.Init.Parity = UART_PARITY_NONE;
 8000932:	4b0b      	ldr	r3, [pc, #44]	; (8000960 <MX_USART2_UART_Init+0x4c>)
 8000934:	2200      	movs	r2, #0
 8000936:	611a      	str	r2, [r3, #16]
  huart2.Init.Mode = UART_MODE_TX_RX;
 8000938:	4b09      	ldr	r3, [pc, #36]	; (8000960 <MX_USART2_UART_Init+0x4c>)
 800093a:	220c      	movs	r2, #12
 800093c:	615a      	str	r2, [r3, #20]
  huart2.Init.HwFlowCtl = UART_HWCONTROL_NONE;
 800093e:	4b08      	ldr	r3, [pc, #32]	; (8000960 <MX_USART2_UART_Init+0x4c>)
 8000940:	2200      	movs	r2, #0
 8000942:	619a      	str	r2, [r3, #24]
  huart2.Init.OverSampling = UART_OVERSAMPLING_16;
 8000944:	4b06      	ldr	r3, [pc, #24]	; (8000960 <MX_USART2_UART_Init+0x4c>)
 8000946:	2200      	movs	r2, #0
 8000948:	61da      	str	r2, [r3, #28]
  if (HAL_UART_Init(&huart2) != HAL_OK)
 800094a:	4805      	ldr	r0, [pc, #20]	; (8000960 <MX_USART2_UART_Init+0x4c>)
 800094c:	f001 fe7e 	bl	800264c <HAL_UART_Init>
 8000950:	4603      	mov	r3, r0
 8000952:	2b00      	cmp	r3, #0
 8000954:	d001      	beq.n	800095a <MX_USART2_UART_Init+0x46>
  {
    Error_Handler();
 8000956:	f000 f88b 	bl	8000a70 <Error_Handler>
  }
  /* USER CODE BEGIN USART2_Init 2 */

  /* USER CODE END USART2_Init 2 */

}
 800095a:	bf00      	nop
 800095c:	bd80      	pop	{r7, pc}
 800095e:	bf00      	nop
 8000960:	200000d8 	.word	0x200000d8
 8000964:	40004400 	.word	0x40004400

08000968 <MX_GPIO_Init>:
  * @brief GPIO Initialization Function
  * @param None
  * @retval None
  */
static void MX_GPIO_Init(void)
{
 8000968:	b580      	push	{r7, lr}
 800096a:	b08a      	sub	sp, #40	; 0x28
 800096c:	af00      	add	r7, sp, #0
  GPIO_InitTypeDef GPIO_InitStruct = {0};
 800096e:	f107 0314 	add.w	r3, r7, #20
 8000972:	2200      	movs	r2, #0
 8000974:	601a      	str	r2, [r3, #0]
 8000976:	605a      	str	r2, [r3, #4]
 8000978:	609a      	str	r2, [r3, #8]
 800097a:	60da      	str	r2, [r3, #12]
 800097c:	611a      	str	r2, [r3, #16]

  /* GPIO Ports Clock Enable */
  __HAL_RCC_GPIOC_CLK_ENABLE();
 800097e:	2300      	movs	r3, #0
 8000980:	613b      	str	r3, [r7, #16]
 8000982:	4b37      	ldr	r3, [pc, #220]	; (8000a60 <MX_GPIO_Init+0xf8>)
 8000984:	6b1b      	ldr	r3, [r3, #48]	; 0x30
 8000986:	4a36      	ldr	r2, [pc, #216]	; (8000a60 <MX_GPIO_Init+0xf8>)
 8000988:	f043 0304 	orr.w	r3, r3, #4
 800098c:	6313      	str	r3, [r2, #48]	; 0x30
 800098e:	4b34      	ldr	r3, [pc, #208]	; (8000a60 <MX_GPIO_Init+0xf8>)
 8000990:	6b1b      	ldr	r3, [r3, #48]	; 0x30
 8000992:	f003 0304 	and.w	r3, r3, #4
 8000996:	613b      	str	r3, [r7, #16]
 8000998:	693b      	ldr	r3, [r7, #16]
  __HAL_RCC_GPIOH_CLK_ENABLE();
 800099a:	2300      	movs	r3, #0
 800099c:	60fb      	str	r3, [r7, #12]
 800099e:	4b30      	ldr	r3, [pc, #192]	; (8000a60 <MX_GPIO_Init+0xf8>)
 80009a0:	6b1b      	ldr	r3, [r3, #48]	; 0x30
 80009a2:	4a2f      	ldr	r2, [pc, #188]	; (8000a60 <MX_GPIO_Init+0xf8>)
 80009a4:	f043 0380 	orr.w	r3, r3, #128	; 0x80
 80009a8:	6313      	str	r3, [r2, #48]	; 0x30
 80009aa:	4b2d      	ldr	r3, [pc, #180]	; (8000a60 <MX_GPIO_Init+0xf8>)
 80009ac:	6b1b      	ldr	r3, [r3, #48]	; 0x30
 80009ae:	f003 0380 	and.w	r3, r3, #128	; 0x80
 80009b2:	60fb      	str	r3, [r7, #12]
 80009b4:	68fb      	ldr	r3, [r7, #12]
  __HAL_RCC_GPIOA_CLK_ENABLE();
 80009b6:	2300      	movs	r3, #0
 80009b8:	60bb      	str	r3, [r7, #8]
 80009ba:	4b29      	ldr	r3, [pc, #164]	; (8000a60 <MX_GPIO_Init+0xf8>)
 80009bc:	6b1b      	ldr	r3, [r3, #48]	; 0x30
 80009be:	4a28      	ldr	r2, [pc, #160]	; (8000a60 <MX_GPIO_Init+0xf8>)
 80009c0:	f043 0301 	orr.w	r3, r3, #1
 80009c4:	6313      	str	r3, [r2, #48]	; 0x30
 80009c6:	4b26      	ldr	r3, [pc, #152]	; (8000a60 <MX_GPIO_Init+0xf8>)
 80009c8:	6b1b      	ldr	r3, [r3, #48]	; 0x30
 80009ca:	f003 0301 	and.w	r3, r3, #1
 80009ce:	60bb      	str	r3, [r7, #8]
 80009d0:	68bb      	ldr	r3, [r7, #8]
  __HAL_RCC_GPIOB_CLK_ENABLE();
 80009d2:	2300      	movs	r3, #0
 80009d4:	607b      	str	r3, [r7, #4]
 80009d6:	4b22      	ldr	r3, [pc, #136]	; (8000a60 <MX_GPIO_Init+0xf8>)
 80009d8:	6b1b      	ldr	r3, [r3, #48]	; 0x30
 80009da:	4a21      	ldr	r2, [pc, #132]	; (8000a60 <MX_GPIO_Init+0xf8>)
 80009dc:	f043 0302 	orr.w	r3, r3, #2
 80009e0:	6313      	str	r3, [r2, #48]	; 0x30
 80009e2:	4b1f      	ldr	r3, [pc, #124]	; (8000a60 <MX_GPIO_Init+0xf8>)
 80009e4:	6b1b      	ldr	r3, [r3, #48]	; 0x30
 80009e6:	f003 0302 	and.w	r3, r3, #2
 80009ea:	607b      	str	r3, [r7, #4]
 80009ec:	687b      	ldr	r3, [r7, #4]

  /*Configure GPIO pin Output Level */
  HAL_GPIO_WritePin(LD2_GPIO_Port, LD2_Pin, GPIO_PIN_RESET);
 80009ee:	2200      	movs	r2, #0
 80009f0:	2120      	movs	r1, #32
 80009f2:	481c      	ldr	r0, [pc, #112]	; (8000a64 <MX_GPIO_Init+0xfc>)
 80009f4:	f001 f99c 	bl	8001d30 <HAL_GPIO_WritePin>

  /*Configure GPIO pin Output Level */
  HAL_GPIO_WritePin(GPIOB, GPIO_PIN_4|GPIO_PIN_5, GPIO_PIN_RESET);
 80009f8:	2200      	movs	r2, #0
 80009fa:	2130      	movs	r1, #48	; 0x30
 80009fc:	481a      	ldr	r0, [pc, #104]	; (8000a68 <MX_GPIO_Init+0x100>)
 80009fe:	f001 f997 	bl	8001d30 <HAL_GPIO_WritePin>

  /*Configure GPIO pin : B1_Pin */
  GPIO_InitStruct.Pin = B1_Pin;
 8000a02:	f44f 5300 	mov.w	r3, #8192	; 0x2000
 8000a06:	617b      	str	r3, [r7, #20]
  GPIO_InitStruct.Mode = GPIO_MODE_IT_FALLING;
 8000a08:	f44f 1304 	mov.w	r3, #2162688	; 0x210000
 8000a0c:	61bb      	str	r3, [r7, #24]
  GPIO_InitStruct.Pull = GPIO_NOPULL;
 8000a0e:	2300      	movs	r3, #0
 8000a10:	61fb      	str	r3, [r7, #28]
  HAL_GPIO_Init(B1_GPIO_Port, &GPIO_InitStruct);
 8000a12:	f107 0314 	add.w	r3, r7, #20
 8000a16:	4619      	mov	r1, r3
 8000a18:	4814      	ldr	r0, [pc, #80]	; (8000a6c <MX_GPIO_Init+0x104>)
 8000a1a:	f001 f805 	bl	8001a28 <HAL_GPIO_Init>

  /*Configure GPIO pin : LD2_Pin */
  GPIO_InitStruct.Pin = LD2_Pin;
 8000a1e:	2320      	movs	r3, #32
 8000a20:	617b      	str	r3, [r7, #20]
  GPIO_InitStruct.Mode = GPIO_MODE_OUTPUT_PP;
 8000a22:	2301      	movs	r3, #1
 8000a24:	61bb      	str	r3, [r7, #24]
  GPIO_InitStruct.Pull = GPIO_NOPULL;
 8000a26:	2300      	movs	r3, #0
 8000a28:	61fb      	str	r3, [r7, #28]
  GPIO_InitStruct.Speed = GPIO_SPEED_FREQ_LOW;
 8000a2a:	2300      	movs	r3, #0
 8000a2c:	623b      	str	r3, [r7, #32]
  HAL_GPIO_Init(LD2_GPIO_Port, &GPIO_InitStruct);
 8000a2e:	f107 0314 	add.w	r3, r7, #20
 8000a32:	4619      	mov	r1, r3
 8000a34:	480b      	ldr	r0, [pc, #44]	; (8000a64 <MX_GPIO_Init+0xfc>)
 8000a36:	f000 fff7 	bl	8001a28 <HAL_GPIO_Init>

  /*Configure GPIO pins : PB4 PB5 */
  GPIO_InitStruct.Pin = GPIO_PIN_4|GPIO_PIN_5;
 8000a3a:	2330      	movs	r3, #48	; 0x30
 8000a3c:	617b      	str	r3, [r7, #20]
  GPIO_InitStruct.Mode = GPIO_MODE_OUTPUT_PP;
 8000a3e:	2301      	movs	r3, #1
 8000a40:	61bb      	str	r3, [r7, #24]
  GPIO_InitStruct.Pull = GPIO_NOPULL;
 8000a42:	2300      	movs	r3, #0
 8000a44:	61fb      	str	r3, [r7, #28]
  GPIO_InitStruct.Speed = GPIO_SPEED_FREQ_LOW;
 8000a46:	2300      	movs	r3, #0
 8000a48:	623b      	str	r3, [r7, #32]
  HAL_GPIO_Init(GPIOB, &GPIO_InitStruct);
 8000a4a:	f107 0314 	add.w	r3, r7, #20
 8000a4e:	4619      	mov	r1, r3
 8000a50:	4805      	ldr	r0, [pc, #20]	; (8000a68 <MX_GPIO_Init+0x100>)
 8000a52:	f000 ffe9 	bl	8001a28 <HAL_GPIO_Init>

}
 8000a56:	bf00      	nop
 8000a58:	3728      	adds	r7, #40	; 0x28
 8000a5a:	46bd      	mov	sp, r7
 8000a5c:	bd80      	pop	{r7, pc}
 8000a5e:	bf00      	nop
 8000a60:	40023800 	.word	0x40023800
 8000a64:	40020000 	.word	0x40020000
 8000a68:	40020400 	.word	0x40020400
 8000a6c:	40020800 	.word	0x40020800

08000a70 <Error_Handler>:
/**
  * @brief  This function is executed in case of error occurrence.
  * @retval None
  */
void Error_Handler(void)
{
 8000a70:	b480      	push	{r7}
 8000a72:	af00      	add	r7, sp, #0
  \details Disables IRQ interrupts by setting the I-bit in the CPSR.
           Can only be executed in Privileged modes.
 */
__STATIC_FORCEINLINE void __disable_irq(void)
{
  __ASM volatile ("cpsid i" : : : "memory");
 8000a74:	b672      	cpsid	i
}
 8000a76:	bf00      	nop
  /* USER CODE BEGIN Error_Handler_Debug */
  /* User can add his own implementation to report the HAL error return state */
  __disable_irq();
  while (1)
 8000a78:	e7fe      	b.n	8000a78 <Error_Handler+0x8>
	...

08000a7c <HAL_MspInit>:
/* USER CODE END 0 */
/**
  * Initializes the Global MSP.
  */
void HAL_MspInit(void)
{
 8000a7c:	b580      	push	{r7, lr}
 8000a7e:	b082      	sub	sp, #8
 8000a80:	af00      	add	r7, sp, #0
  /* USER CODE BEGIN MspInit 0 */

  /* USER CODE END MspInit 0 */

  __HAL_RCC_SYSCFG_CLK_ENABLE();
 8000a82:	2300      	movs	r3, #0
 8000a84:	607b      	str	r3, [r7, #4]
 8000a86:	4b10      	ldr	r3, [pc, #64]	; (8000ac8 <HAL_MspInit+0x4c>)
 8000a88:	6c5b      	ldr	r3, [r3, #68]	; 0x44
 8000a8a:	4a0f      	ldr	r2, [pc, #60]	; (8000ac8 <HAL_MspInit+0x4c>)
 8000a8c:	f443 4380 	orr.w	r3, r3, #16384	; 0x4000
 8000a90:	6453      	str	r3, [r2, #68]	; 0x44
 8000a92:	4b0d      	ldr	r3, [pc, #52]	; (8000ac8 <HAL_MspInit+0x4c>)
 8000a94:	6c5b      	ldr	r3, [r3, #68]	; 0x44
 8000a96:	f403 4380 	and.w	r3, r3, #16384	; 0x4000
 8000a9a:	607b      	str	r3, [r7, #4]
 8000a9c:	687b      	ldr	r3, [r7, #4]
  __HAL_RCC_PWR_CLK_ENABLE();
 8000a9e:	2300      	movs	r3, #0
 8000aa0:	603b      	str	r3, [r7, #0]
 8000aa2:	4b09      	ldr	r3, [pc, #36]	; (8000ac8 <HAL_MspInit+0x4c>)
 8000aa4:	6c1b      	ldr	r3, [r3, #64]	; 0x40
 8000aa6:	4a08      	ldr	r2, [pc, #32]	; (8000ac8 <HAL_MspInit+0x4c>)
 8000aa8:	f043 5380 	orr.w	r3, r3, #268435456	; 0x10000000
 8000aac:	6413      	str	r3, [r2, #64]	; 0x40
 8000aae:	4b06      	ldr	r3, [pc, #24]	; (8000ac8 <HAL_MspInit+0x4c>)
 8000ab0:	6c1b      	ldr	r3, [r3, #64]	; 0x40
 8000ab2:	f003 5380 	and.w	r3, r3, #268435456	; 0x10000000
 8000ab6:	603b      	str	r3, [r7, #0]
 8000ab8:	683b      	ldr	r3, [r7, #0]

  HAL_NVIC_SetPriorityGrouping(NVIC_PRIORITYGROUP_0);
 8000aba:	2007      	movs	r0, #7
 8000abc:	f000 fee0 	bl	8001880 <HAL_NVIC_SetPriorityGrouping>
  /* System interrupt init*/

  /* USER CODE BEGIN MspInit 1 */

  /* USER CODE END MspInit 1 */
}
 8000ac0:	bf00      	nop
 8000ac2:	3708      	adds	r7, #8
 8000ac4:	46bd      	mov	sp, r7
 8000ac6:	bd80      	pop	{r7, pc}
 8000ac8:	40023800 	.word	0x40023800

08000acc <HAL_ADC_MspInit>:
* This function configures the hardware resources used in this example
* @param hadc: ADC handle pointer
* @retval None
*/
void HAL_ADC_MspInit(ADC_HandleTypeDef* hadc)
{
 8000acc:	b580      	push	{r7, lr}
 8000ace:	b08c      	sub	sp, #48	; 0x30
 8000ad0:	af00      	add	r7, sp, #0
 8000ad2:	6078      	str	r0, [r7, #4]
  GPIO_InitTypeDef GPIO_InitStruct = {0};
 8000ad4:	f107 031c 	add.w	r3, r7, #28
 8000ad8:	2200      	movs	r2, #0
 8000ada:	601a      	str	r2, [r3, #0]
 8000adc:	605a      	str	r2, [r3, #4]
 8000ade:	609a      	str	r2, [r3, #8]
 8000ae0:	60da      	str	r2, [r3, #12]
 8000ae2:	611a      	str	r2, [r3, #16]
  if(hadc->Instance==ADC1)
 8000ae4:	687b      	ldr	r3, [r7, #4]
 8000ae6:	681b      	ldr	r3, [r3, #0]
 8000ae8:	4a31      	ldr	r2, [pc, #196]	; (8000bb0 <HAL_ADC_MspInit+0xe4>)
 8000aea:	4293      	cmp	r3, r2
 8000aec:	d15b      	bne.n	8000ba6 <HAL_ADC_MspInit+0xda>
  {
  /* USER CODE BEGIN ADC1_MspInit 0 */

  /* USER CODE END ADC1_MspInit 0 */
    /* Peripheral clock enable */
    __HAL_RCC_ADC1_CLK_ENABLE();
 8000aee:	2300      	movs	r3, #0
 8000af0:	61bb      	str	r3, [r7, #24]
 8000af2:	4b30      	ldr	r3, [pc, #192]	; (8000bb4 <HAL_ADC_MspInit+0xe8>)
 8000af4:	6c5b      	ldr	r3, [r3, #68]	; 0x44
 8000af6:	4a2f      	ldr	r2, [pc, #188]	; (8000bb4 <HAL_ADC_MspInit+0xe8>)
 8000af8:	f443 7380 	orr.w	r3, r3, #256	; 0x100
 8000afc:	6453      	str	r3, [r2, #68]	; 0x44
 8000afe:	4b2d      	ldr	r3, [pc, #180]	; (8000bb4 <HAL_ADC_MspInit+0xe8>)
 8000b00:	6c5b      	ldr	r3, [r3, #68]	; 0x44
 8000b02:	f403 7380 	and.w	r3, r3, #256	; 0x100
 8000b06:	61bb      	str	r3, [r7, #24]
 8000b08:	69bb      	ldr	r3, [r7, #24]

    __HAL_RCC_GPIOC_CLK_ENABLE();
 8000b0a:	2300      	movs	r3, #0
 8000b0c:	617b      	str	r3, [r7, #20]
 8000b0e:	4b29      	ldr	r3, [pc, #164]	; (8000bb4 <HAL_ADC_MspInit+0xe8>)
 8000b10:	6b1b      	ldr	r3, [r3, #48]	; 0x30
 8000b12:	4a28      	ldr	r2, [pc, #160]	; (8000bb4 <HAL_ADC_MspInit+0xe8>)
 8000b14:	f043 0304 	orr.w	r3, r3, #4
 8000b18:	6313      	str	r3, [r2, #48]	; 0x30
 8000b1a:	4b26      	ldr	r3, [pc, #152]	; (8000bb4 <HAL_ADC_MspInit+0xe8>)
 8000b1c:	6b1b      	ldr	r3, [r3, #48]	; 0x30
 8000b1e:	f003 0304 	and.w	r3, r3, #4
 8000b22:	617b      	str	r3, [r7, #20]
 8000b24:	697b      	ldr	r3, [r7, #20]
    __HAL_RCC_GPIOA_CLK_ENABLE();
 8000b26:	2300      	movs	r3, #0
 8000b28:	613b      	str	r3, [r7, #16]
 8000b2a:	4b22      	ldr	r3, [pc, #136]	; (8000bb4 <HAL_ADC_MspInit+0xe8>)
 8000b2c:	6b1b      	ldr	r3, [r3, #48]	; 0x30
 8000b2e:	4a21      	ldr	r2, [pc, #132]	; (8000bb4 <HAL_ADC_MspInit+0xe8>)
 8000b30:	f043 0301 	orr.w	r3, r3, #1
 8000b34:	6313      	str	r3, [r2, #48]	; 0x30
 8000b36:	4b1f      	ldr	r3, [pc, #124]	; (8000bb4 <HAL_ADC_MspInit+0xe8>)
 8000b38:	6b1b      	ldr	r3, [r3, #48]	; 0x30
 8000b3a:	f003 0301 	and.w	r3, r3, #1
 8000b3e:	613b      	str	r3, [r7, #16]
 8000b40:	693b      	ldr	r3, [r7, #16]
    __HAL_RCC_GPIOB_CLK_ENABLE();
 8000b42:	2300      	movs	r3, #0
 8000b44:	60fb      	str	r3, [r7, #12]
 8000b46:	4b1b      	ldr	r3, [pc, #108]	; (8000bb4 <HAL_ADC_MspInit+0xe8>)
 8000b48:	6b1b      	ldr	r3, [r3, #48]	; 0x30
 8000b4a:	4a1a      	ldr	r2, [pc, #104]	; (8000bb4 <HAL_ADC_MspInit+0xe8>)
 8000b4c:	f043 0302 	orr.w	r3, r3, #2
 8000b50:	6313      	str	r3, [r2, #48]	; 0x30
 8000b52:	4b18      	ldr	r3, [pc, #96]	; (8000bb4 <HAL_ADC_MspInit+0xe8>)
 8000b54:	6b1b      	ldr	r3, [r3, #48]	; 0x30
 8000b56:	f003 0302 	and.w	r3, r3, #2
 8000b5a:	60fb      	str	r3, [r7, #12]
 8000b5c:	68fb      	ldr	r3, [r7, #12]
    PA0-WKUP     ------> ADC1_IN0
    PA1     ------> ADC1_IN1
    PA4     ------> ADC1_IN4
    PB0     ------> ADC1_IN8
    */
    GPIO_InitStruct.Pin = GPIO_PIN_0|GPIO_PIN_1;
 8000b5e:	2303      	movs	r3, #3
 8000b60:	61fb      	str	r3, [r7, #28]
    GPIO_InitStruct.Mode = GPIO_MODE_ANALOG;
 8000b62:	2303      	movs	r3, #3
 8000b64:	623b      	str	r3, [r7, #32]
    GPIO_InitStruct.Pull = GPIO_NOPULL;
 8000b66:	2300      	movs	r3, #0
 8000b68:	627b      	str	r3, [r7, #36]	; 0x24
    HAL_GPIO_Init(GPIOC, &GPIO_InitStruct);
 8000b6a:	f107 031c 	add.w	r3, r7, #28
 8000b6e:	4619      	mov	r1, r3
 8000b70:	4811      	ldr	r0, [pc, #68]	; (8000bb8 <HAL_ADC_MspInit+0xec>)
 8000b72:	f000 ff59 	bl	8001a28 <HAL_GPIO_Init>

    GPIO_InitStruct.Pin = GPIO_PIN_0|GPIO_PIN_1|GPIO_PIN_4;
 8000b76:	2313      	movs	r3, #19
 8000b78:	61fb      	str	r3, [r7, #28]
    GPIO_InitStruct.Mode = GPIO_MODE_ANALOG;
 8000b7a:	2303      	movs	r3, #3
 8000b7c:	623b      	str	r3, [r7, #32]
    GPIO_InitStruct.Pull = GPIO_NOPULL;
 8000b7e:	2300      	movs	r3, #0
 8000b80:	627b      	str	r3, [r7, #36]	; 0x24
    HAL_GPIO_Init(GPIOA, &GPIO_InitStruct);
 8000b82:	f107 031c 	add.w	r3, r7, #28
 8000b86:	4619      	mov	r1, r3
 8000b88:	480c      	ldr	r0, [pc, #48]	; (8000bbc <HAL_ADC_MspInit+0xf0>)
 8000b8a:	f000 ff4d 	bl	8001a28 <HAL_GPIO_Init>

    GPIO_InitStruct.Pin = GPIO_PIN_0;
 8000b8e:	2301      	movs	r3, #1
 8000b90:	61fb      	str	r3, [r7, #28]
    GPIO_InitStruct.Mode = GPIO_MODE_ANALOG;
 8000b92:	2303      	movs	r3, #3
 8000b94:	623b      	str	r3, [r7, #32]
    GPIO_InitStruct.Pull = GPIO_NOPULL;
 8000b96:	2300      	movs	r3, #0
 8000b98:	627b      	str	r3, [r7, #36]	; 0x24
    HAL_GPIO_Init(GPIOB, &GPIO_InitStruct);
 8000b9a:	f107 031c 	add.w	r3, r7, #28
 8000b9e:	4619      	mov	r1, r3
 8000ba0:	4807      	ldr	r0, [pc, #28]	; (8000bc0 <HAL_ADC_MspInit+0xf4>)
 8000ba2:	f000 ff41 	bl	8001a28 <HAL_GPIO_Init>
  /* USER CODE BEGIN ADC1_MspInit 1 */

  /* USER CODE END ADC1_MspInit 1 */
  }

}
 8000ba6:	bf00      	nop
 8000ba8:	3730      	adds	r7, #48	; 0x30
 8000baa:	46bd      	mov	sp, r7
 8000bac:	bd80      	pop	{r7, pc}
 8000bae:	bf00      	nop
 8000bb0:	40012000 	.word	0x40012000
 8000bb4:	40023800 	.word	0x40023800
 8000bb8:	40020800 	.word	0x40020800
 8000bbc:	40020000 	.word	0x40020000
 8000bc0:	40020400 	.word	0x40020400

08000bc4 <HAL_UART_MspInit>:
* This function configures the hardware resources used in this example
* @param huart: UART handle pointer
* @retval None
*/
void HAL_UART_MspInit(UART_HandleTypeDef* huart)
{
 8000bc4:	b580      	push	{r7, lr}
 8000bc6:	b08c      	sub	sp, #48	; 0x30
 8000bc8:	af00      	add	r7, sp, #0
 8000bca:	6078      	str	r0, [r7, #4]
  GPIO_InitTypeDef GPIO_InitStruct = {0};
 8000bcc:	f107 031c 	add.w	r3, r7, #28
 8000bd0:	2200      	movs	r2, #0
 8000bd2:	601a      	str	r2, [r3, #0]
 8000bd4:	605a      	str	r2, [r3, #4]
 8000bd6:	609a      	str	r2, [r3, #8]
 8000bd8:	60da      	str	r2, [r3, #12]
 8000bda:	611a      	str	r2, [r3, #16]
  if(huart->Instance==USART1)
 8000bdc:	687b      	ldr	r3, [r7, #4]
 8000bde:	681b      	ldr	r3, [r3, #0]
 8000be0:	4a3a      	ldr	r2, [pc, #232]	; (8000ccc <HAL_UART_MspInit+0x108>)
 8000be2:	4293      	cmp	r3, r2
 8000be4:	d135      	bne.n	8000c52 <HAL_UART_MspInit+0x8e>
  {
  /* USER CODE BEGIN USART1_MspInit 0 */

  /* USER CODE END USART1_MspInit 0 */
    /* Peripheral clock enable */
    __HAL_RCC_USART1_CLK_ENABLE();
 8000be6:	2300      	movs	r3, #0
 8000be8:	61bb      	str	r3, [r7, #24]
 8000bea:	4b39      	ldr	r3, [pc, #228]	; (8000cd0 <HAL_UART_MspInit+0x10c>)
 8000bec:	6c5b      	ldr	r3, [r3, #68]	; 0x44
 8000bee:	4a38      	ldr	r2, [pc, #224]	; (8000cd0 <HAL_UART_MspInit+0x10c>)
 8000bf0:	f043 0310 	orr.w	r3, r3, #16
 8000bf4:	6453      	str	r3, [r2, #68]	; 0x44
 8000bf6:	4b36      	ldr	r3, [pc, #216]	; (8000cd0 <HAL_UART_MspInit+0x10c>)
 8000bf8:	6c5b      	ldr	r3, [r3, #68]	; 0x44
 8000bfa:	f003 0310 	and.w	r3, r3, #16
 8000bfe:	61bb      	str	r3, [r7, #24]
 8000c00:	69bb      	ldr	r3, [r7, #24]

    __HAL_RCC_GPIOA_CLK_ENABLE();
 8000c02:	2300      	movs	r3, #0
 8000c04:	617b      	str	r3, [r7, #20]
 8000c06:	4b32      	ldr	r3, [pc, #200]	; (8000cd0 <HAL_UART_MspInit+0x10c>)
 8000c08:	6b1b      	ldr	r3, [r3, #48]	; 0x30
 8000c0a:	4a31      	ldr	r2, [pc, #196]	; (8000cd0 <HAL_UART_MspInit+0x10c>)
 8000c0c:	f043 0301 	orr.w	r3, r3, #1
 8000c10:	6313      	str	r3, [r2, #48]	; 0x30
 8000c12:	4b2f      	ldr	r3, [pc, #188]	; (8000cd0 <HAL_UART_MspInit+0x10c>)
 8000c14:	6b1b      	ldr	r3, [r3, #48]	; 0x30
 8000c16:	f003 0301 	and.w	r3, r3, #1
 8000c1a:	617b      	str	r3, [r7, #20]
 8000c1c:	697b      	ldr	r3, [r7, #20]
    /**USART1 GPIO Configuration
    PA9     ------> USART1_TX
    PA10     ------> USART1_RX
    */
    GPIO_InitStruct.Pin = GPIO_PIN_9|GPIO_PIN_10;
 8000c1e:	f44f 63c0 	mov.w	r3, #1536	; 0x600
 8000c22:	61fb      	str	r3, [r7, #28]
    GPIO_InitStruct.Mode = GPIO_MODE_AF_PP;
 8000c24:	2302      	movs	r3, #2
 8000c26:	623b      	str	r3, [r7, #32]
    GPIO_InitStruct.Pull = GPIO_NOPULL;
 8000c28:	2300      	movs	r3, #0
 8000c2a:	627b      	str	r3, [r7, #36]	; 0x24
    GPIO_InitStruct.Speed = GPIO_SPEED_FREQ_VERY_HIGH;
 8000c2c:	2303      	movs	r3, #3
 8000c2e:	62bb      	str	r3, [r7, #40]	; 0x28
    GPIO_InitStruct.Alternate = GPIO_AF7_USART1;
 8000c30:	2307      	movs	r3, #7
 8000c32:	62fb      	str	r3, [r7, #44]	; 0x2c
    HAL_GPIO_Init(GPIOA, &GPIO_InitStruct);
 8000c34:	f107 031c 	add.w	r3, r7, #28
 8000c38:	4619      	mov	r1, r3
 8000c3a:	4826      	ldr	r0, [pc, #152]	; (8000cd4 <HAL_UART_MspInit+0x110>)
 8000c3c:	f000 fef4 	bl	8001a28 <HAL_GPIO_Init>

    /* USART1 interrupt Init */
    HAL_NVIC_SetPriority(USART1_IRQn, 0, 0);
 8000c40:	2200      	movs	r2, #0
 8000c42:	2100      	movs	r1, #0
 8000c44:	2025      	movs	r0, #37	; 0x25
 8000c46:	f000 fe26 	bl	8001896 <HAL_NVIC_SetPriority>
    HAL_NVIC_EnableIRQ(USART1_IRQn);
 8000c4a:	2025      	movs	r0, #37	; 0x25
 8000c4c:	f000 fe3f 	bl	80018ce <HAL_NVIC_EnableIRQ>
  /* USER CODE BEGIN USART2_MspInit 1 */

  /* USER CODE END USART2_MspInit 1 */
  }

}
 8000c50:	e038      	b.n	8000cc4 <HAL_UART_MspInit+0x100>
  else if(huart->Instance==USART2)
 8000c52:	687b      	ldr	r3, [r7, #4]
 8000c54:	681b      	ldr	r3, [r3, #0]
 8000c56:	4a20      	ldr	r2, [pc, #128]	; (8000cd8 <HAL_UART_MspInit+0x114>)
 8000c58:	4293      	cmp	r3, r2
 8000c5a:	d133      	bne.n	8000cc4 <HAL_UART_MspInit+0x100>
    __HAL_RCC_USART2_CLK_ENABLE();
 8000c5c:	2300      	movs	r3, #0
 8000c5e:	613b      	str	r3, [r7, #16]
 8000c60:	4b1b      	ldr	r3, [pc, #108]	; (8000cd0 <HAL_UART_MspInit+0x10c>)
 8000c62:	6c1b      	ldr	r3, [r3, #64]	; 0x40
 8000c64:	4a1a      	ldr	r2, [pc, #104]	; (8000cd0 <HAL_UART_MspInit+0x10c>)
 8000c66:	f443 3300 	orr.w	r3, r3, #131072	; 0x20000
 8000c6a:	6413      	str	r3, [r2, #64]	; 0x40
 8000c6c:	4b18      	ldr	r3, [pc, #96]	; (8000cd0 <HAL_UART_MspInit+0x10c>)
 8000c6e:	6c1b      	ldr	r3, [r3, #64]	; 0x40
 8000c70:	f403 3300 	and.w	r3, r3, #131072	; 0x20000
 8000c74:	613b      	str	r3, [r7, #16]
 8000c76:	693b      	ldr	r3, [r7, #16]
    __HAL_RCC_GPIOA_CLK_ENABLE();
 8000c78:	2300      	movs	r3, #0
 8000c7a:	60fb      	str	r3, [r7, #12]
 8000c7c:	4b14      	ldr	r3, [pc, #80]	; (8000cd0 <HAL_UART_MspInit+0x10c>)
 8000c7e:	6b1b      	ldr	r3, [r3, #48]	; 0x30
 8000c80:	4a13      	ldr	r2, [pc, #76]	; (8000cd0 <HAL_UART_MspInit+0x10c>)
 8000c82:	f043 0301 	orr.w	r3, r3, #1
 8000c86:	6313      	str	r3, [r2, #48]	; 0x30
 8000c88:	4b11      	ldr	r3, [pc, #68]	; (8000cd0 <HAL_UART_MspInit+0x10c>)
 8000c8a:	6b1b      	ldr	r3, [r3, #48]	; 0x30
 8000c8c:	f003 0301 	and.w	r3, r3, #1
 8000c90:	60fb      	str	r3, [r7, #12]
 8000c92:	68fb      	ldr	r3, [r7, #12]
    GPIO_InitStruct.Pin = USART_TX_Pin|USART_RX_Pin;
 8000c94:	230c      	movs	r3, #12
 8000c96:	61fb      	str	r3, [r7, #28]
    GPIO_InitStruct.Mode = GPIO_MODE_AF_PP;
 8000c98:	2302      	movs	r3, #2
 8000c9a:	623b      	str	r3, [r7, #32]
    GPIO_InitStruct.Pull = GPIO_NOPULL;
 8000c9c:	2300      	movs	r3, #0
 8000c9e:	627b      	str	r3, [r7, #36]	; 0x24
    GPIO_InitStruct.Speed = GPIO_SPEED_FREQ_VERY_HIGH;
 8000ca0:	2303      	movs	r3, #3
 8000ca2:	62bb      	str	r3, [r7, #40]	; 0x28
    GPIO_InitStruct.Alternate = GPIO_AF7_USART2;
 8000ca4:	2307      	movs	r3, #7
 8000ca6:	62fb      	str	r3, [r7, #44]	; 0x2c
    HAL_GPIO_Init(GPIOA, &GPIO_InitStruct);
 8000ca8:	f107 031c 	add.w	r3, r7, #28
 8000cac:	4619      	mov	r1, r3
 8000cae:	4809      	ldr	r0, [pc, #36]	; (8000cd4 <HAL_UART_MspInit+0x110>)
 8000cb0:	f000 feba 	bl	8001a28 <HAL_GPIO_Init>
    HAL_NVIC_SetPriority(USART2_IRQn, 0, 0);
 8000cb4:	2200      	movs	r2, #0
 8000cb6:	2100      	movs	r1, #0
 8000cb8:	2026      	movs	r0, #38	; 0x26
 8000cba:	f000 fdec 	bl	8001896 <HAL_NVIC_SetPriority>
    HAL_NVIC_EnableIRQ(USART2_IRQn);
 8000cbe:	2026      	movs	r0, #38	; 0x26
 8000cc0:	f000 fe05 	bl	80018ce <HAL_NVIC_EnableIRQ>
}
 8000cc4:	bf00      	nop
 8000cc6:	3730      	adds	r7, #48	; 0x30
 8000cc8:	46bd      	mov	sp, r7
 8000cca:	bd80      	pop	{r7, pc}
 8000ccc:	40011000 	.word	0x40011000
 8000cd0:	40023800 	.word	0x40023800
 8000cd4:	40020000 	.word	0x40020000
 8000cd8:	40004400 	.word	0x40004400

08000cdc <NMI_Handler>:
/******************************************************************************/
/**
  * @brief This function handles Non maskable interrupt.
  */
void NMI_Handler(void)
{
 8000cdc:	b480      	push	{r7}
 8000cde:	af00      	add	r7, sp, #0
  /* USER CODE BEGIN NonMaskableInt_IRQn 0 */

  /* USER CODE END NonMaskableInt_IRQn 0 */
  /* USER CODE BEGIN NonMaskableInt_IRQn 1 */
  while (1)
 8000ce0:	e7fe      	b.n	8000ce0 <NMI_Handler+0x4>

08000ce2 <HardFault_Handler>:

/**
  * @brief This function handles Hard fault interrupt.
  */
void HardFault_Handler(void)
{
 8000ce2:	b480      	push	{r7}
 8000ce4:	af00      	add	r7, sp, #0
  /* USER CODE BEGIN HardFault_IRQn 0 */

  /* USER CODE END HardFault_IRQn 0 */
  while (1)
 8000ce6:	e7fe      	b.n	8000ce6 <HardFault_Handler+0x4>

08000ce8 <MemManage_Handler>:

/**
  * @brief This function handles Memory management fault.
  */
void MemManage_Handler(void)
{
 8000ce8:	b480      	push	{r7}
 8000cea:	af00      	add	r7, sp, #0
  /* USER CODE BEGIN MemoryManagement_IRQn 0 */

  /* USER CODE END MemoryManagement_IRQn 0 */
  while (1)
 8000cec:	e7fe      	b.n	8000cec <MemManage_Handler+0x4>

08000cee <BusFault_Handler>:

/**
  * @brief This function handles Pre-fetch fault, memory access fault.
  */
void BusFault_Handler(void)
{
 8000cee:	b480      	push	{r7}
 8000cf0:	af00      	add	r7, sp, #0
  /* USER CODE BEGIN BusFault_IRQn 0 */

  /* USER CODE END BusFault_IRQn 0 */
  while (1)
 8000cf2:	e7fe      	b.n	8000cf2 <BusFault_Handler+0x4>

08000cf4 <UsageFault_Handler>:

/**
  * @brief This function handles Undefined instruction or illegal state.
  */
void UsageFault_Handler(void)
{
 8000cf4:	b480      	push	{r7}
 8000cf6:	af00      	add	r7, sp, #0
  /* USER CODE BEGIN UsageFault_IRQn 0 */

  /* USER CODE END UsageFault_IRQn 0 */
  while (1)
 8000cf8:	e7fe      	b.n	8000cf8 <UsageFault_Handler+0x4>

08000cfa <SVC_Handler>:

/**
  * @brief This function handles System service call via SWI instruction.
  */
void SVC_Handler(void)
{
 8000cfa:	b480      	push	{r7}
 8000cfc:	af00      	add	r7, sp, #0

  /* USER CODE END SVCall_IRQn 0 */
  /* USER CODE BEGIN SVCall_IRQn 1 */

  /* USER CODE END SVCall_IRQn 1 */
}
 8000cfe:	bf00      	nop
 8000d00:	46bd      	mov	sp, r7
 8000d02:	f85d 7b04 	ldr.w	r7, [sp], #4
 8000d06:	4770      	bx	lr

08000d08 <DebugMon_Handler>:

/**
  * @brief This function handles Debug monitor.
  */
void DebugMon_Handler(void)
{
 8000d08:	b480      	push	{r7}
 8000d0a:	af00      	add	r7, sp, #0

  /* USER CODE END DebugMonitor_IRQn 0 */
  /* USER CODE BEGIN DebugMonitor_IRQn 1 */

  /* USER CODE END DebugMonitor_IRQn 1 */
}
 8000d0c:	bf00      	nop
 8000d0e:	46bd      	mov	sp, r7
 8000d10:	f85d 7b04 	ldr.w	r7, [sp], #4
 8000d14:	4770      	bx	lr

08000d16 <PendSV_Handler>:

/**
  * @brief This function handles Pendable request for system service.
  */
void PendSV_Handler(void)
{
 8000d16:	b480      	push	{r7}
 8000d18:	af00      	add	r7, sp, #0

  /* USER CODE END PendSV_IRQn 0 */
  /* USER CODE BEGIN PendSV_IRQn 1 */

  /* USER CODE END PendSV_IRQn 1 */
}
 8000d1a:	bf00      	nop
 8000d1c:	46bd      	mov	sp, r7
 8000d1e:	f85d 7b04 	ldr.w	r7, [sp], #4
 8000d22:	4770      	bx	lr

08000d24 <SysTick_Handler>:

/**
  * @brief This function handles System tick timer.
  */
void SysTick_Handler(void)
{
 8000d24:	b580      	push	{r7, lr}
 8000d26:	af00      	add	r7, sp, #0
  /* USER CODE BEGIN SysTick_IRQn 0 */

  /* USER CODE END SysTick_IRQn 0 */
  HAL_IncTick();
 8000d28:	f000 f8a4 	bl	8000e74 <HAL_IncTick>
  /* USER CODE BEGIN SysTick_IRQn 1 */

  /* USER CODE END SysTick_IRQn 1 */
}
 8000d2c:	bf00      	nop
 8000d2e:	bd80      	pop	{r7, pc}

08000d30 <USART1_IRQHandler>:

/**
  * @brief This function handles USART1 global interrupt.
  */
void USART1_IRQHandler(void)
{
 8000d30:	b580      	push	{r7, lr}
 8000d32:	af00      	add	r7, sp, #0
  /* USER CODE BEGIN USART1_IRQn 0 */

  /* USER CODE END USART1_IRQn 0 */
  HAL_UART_IRQHandler(&huart1);
 8000d34:	4802      	ldr	r0, [pc, #8]	; (8000d40 <USART1_IRQHandler+0x10>)
 8000d36:	f001 fddd 	bl	80028f4 <HAL_UART_IRQHandler>
  /* USER CODE BEGIN USART1_IRQn 1 */

  /* USER CODE END USART1_IRQn 1 */
}
 8000d3a:	bf00      	nop
 8000d3c:	bd80      	pop	{r7, pc}
 8000d3e:	bf00      	nop
 8000d40:	2000007c 	.word	0x2000007c

08000d44 <USART2_IRQHandler>:

/**
  * @brief This function handles USART2 global interrupt.
  */
void USART2_IRQHandler(void)
{
 8000d44:	b580      	push	{r7, lr}
 8000d46:	af00      	add	r7, sp, #0
  /* USER CODE BEGIN USART2_IRQn 0 */

  /* USER CODE END USART2_IRQn 0 */
  HAL_UART_IRQHandler(&huart2);
 8000d48:	4802      	ldr	r0, [pc, #8]	; (8000d54 <USART2_IRQHandler+0x10>)
 8000d4a:	f001 fdd3 	bl	80028f4 <HAL_UART_IRQHandler>
  /* USER CODE BEGIN USART2_IRQn 1 */

  /* USER CODE END USART2_IRQn 1 */
}
 8000d4e:	bf00      	nop
 8000d50:	bd80      	pop	{r7, pc}
 8000d52:	bf00      	nop
 8000d54:	200000d8 	.word	0x200000d8

08000d58 <SystemInit>:
  *         configuration.
  * @param  None
  * @retval None
  */
void SystemInit(void)
{
 8000d58:	b480      	push	{r7}
 8000d5a:	af00      	add	r7, sp, #0
  /* FPU settings ------------------------------------------------------------*/
  #if (__FPU_PRESENT == 1) && (__FPU_USED == 1)
    SCB->CPACR |= ((3UL << 10*2)|(3UL << 11*2));  /* set CP10 and CP11 Full Access */
 8000d5c:	4b06      	ldr	r3, [pc, #24]	; (8000d78 <SystemInit+0x20>)
 8000d5e:	f8d3 3088 	ldr.w	r3, [r3, #136]	; 0x88
 8000d62:	4a05      	ldr	r2, [pc, #20]	; (8000d78 <SystemInit+0x20>)
 8000d64:	f443 0370 	orr.w	r3, r3, #15728640	; 0xf00000
 8000d68:	f8c2 3088 	str.w	r3, [r2, #136]	; 0x88

  /* Configure the Vector Table location -------------------------------------*/
#if defined(USER_VECT_TAB_ADDRESS)
  SCB->VTOR = VECT_TAB_BASE_ADDRESS | VECT_TAB_OFFSET; /* Vector Table Relocation in Internal SRAM */
#endif /* USER_VECT_TAB_ADDRESS */
}
 8000d6c:	bf00      	nop
 8000d6e:	46bd      	mov	sp, r7
 8000d70:	f85d 7b04 	ldr.w	r7, [sp], #4
 8000d74:	4770      	bx	lr
 8000d76:	bf00      	nop
 8000d78:	e000ed00 	.word	0xe000ed00

08000d7c <Reset_Handler>:

    .section  .text.Reset_Handler
  .weak  Reset_Handler
  .type  Reset_Handler, %function
Reset_Handler:  
  ldr   sp, =_estack    		 /* set stack pointer */
 8000d7c:	f8df d034 	ldr.w	sp, [pc, #52]	; 8000db4 <LoopFillZerobss+0x12>

/* Copy the data segment initializers from flash to SRAM */  
  ldr r0, =_sdata
 8000d80:	480d      	ldr	r0, [pc, #52]	; (8000db8 <LoopFillZerobss+0x16>)
  ldr r1, =_edata
 8000d82:	490e      	ldr	r1, [pc, #56]	; (8000dbc <LoopFillZerobss+0x1a>)
  ldr r2, =_sidata
 8000d84:	4a0e      	ldr	r2, [pc, #56]	; (8000dc0 <LoopFillZerobss+0x1e>)
  movs r3, #0
 8000d86:	2300      	movs	r3, #0
  b LoopCopyDataInit
 8000d88:	e002      	b.n	8000d90 <LoopCopyDataInit>

08000d8a <CopyDataInit>:

CopyDataInit:
  ldr r4, [r2, r3]
 8000d8a:	58d4      	ldr	r4, [r2, r3]
  str r4, [r0, r3]
 8000d8c:	50c4      	str	r4, [r0, r3]
  adds r3, r3, #4
 8000d8e:	3304      	adds	r3, #4

08000d90 <LoopCopyDataInit>:

LoopCopyDataInit:
  adds r4, r0, r3
 8000d90:	18c4      	adds	r4, r0, r3
  cmp r4, r1
 8000d92:	428c      	cmp	r4, r1
  bcc CopyDataInit
 8000d94:	d3f9      	bcc.n	8000d8a <CopyDataInit>
  
/* Zero fill the bss segment. */
  ldr r2, =_sbss
 8000d96:	4a0b      	ldr	r2, [pc, #44]	; (8000dc4 <LoopFillZerobss+0x22>)
  ldr r4, =_ebss
 8000d98:	4c0b      	ldr	r4, [pc, #44]	; (8000dc8 <LoopFillZerobss+0x26>)
  movs r3, #0
 8000d9a:	2300      	movs	r3, #0
  b LoopFillZerobss
 8000d9c:	e001      	b.n	8000da2 <LoopFillZerobss>

08000d9e <FillZerobss>:

FillZerobss:
  str  r3, [r2]
 8000d9e:	6013      	str	r3, [r2, #0]
  adds r2, r2, #4
 8000da0:	3204      	adds	r2, #4

08000da2 <LoopFillZerobss>:

LoopFillZerobss:
  cmp r2, r4
 8000da2:	42a2      	cmp	r2, r4
  bcc FillZerobss
 8000da4:	d3fb      	bcc.n	8000d9e <FillZerobss>

/* Call the clock system intitialization function.*/
  bl  SystemInit   
 8000da6:	f7ff ffd7 	bl	8000d58 <SystemInit>
/* Call static constructors */
    bl __libc_init_array
 8000daa:	f002 fc5b 	bl	8003664 <__libc_init_array>
/* Call the application's entry point.*/
  bl  main
 8000dae:	f7ff fc29 	bl	8000604 <main>
  bx  lr    
 8000db2:	4770      	bx	lr
  ldr   sp, =_estack    		 /* set stack pointer */
 8000db4:	20020000 	.word	0x20020000
  ldr r0, =_sdata
 8000db8:	20000000 	.word	0x20000000
  ldr r1, =_edata
 8000dbc:	2000000c 	.word	0x2000000c
  ldr r2, =_sidata
 8000dc0:	080036fc 	.word	0x080036fc
  ldr r2, =_sbss
 8000dc4:	2000000c 	.word	0x2000000c
  ldr r4, =_ebss
 8000dc8:	20000124 	.word	0x20000124

08000dcc <ADC_IRQHandler>:
 * @retval None       
*/
    .section  .text.Default_Handler,"ax",%progbits
Default_Handler:
Infinite_Loop:
  b  Infinite_Loop
 8000dcc:	e7fe      	b.n	8000dcc <ADC_IRQHandler>
	...

08000dd0 <HAL_Init>:
  *         need to ensure that the SysTick time base is always set to 1 millisecond
  *         to have correct HAL operation.
  * @retval HAL status
  */
HAL_StatusTypeDef HAL_Init(void)
{
 8000dd0:	b580      	push	{r7, lr}
 8000dd2:	af00      	add	r7, sp, #0
  /* Configure Flash prefetch, Instruction cache, Data cache */ 
#if (INSTRUCTION_CACHE_ENABLE != 0U)
  __HAL_FLASH_INSTRUCTION_CACHE_ENABLE();
 8000dd4:	4b0e      	ldr	r3, [pc, #56]	; (8000e10 <HAL_Init+0x40>)
 8000dd6:	681b      	ldr	r3, [r3, #0]
 8000dd8:	4a0d      	ldr	r2, [pc, #52]	; (8000e10 <HAL_Init+0x40>)
 8000dda:	f443 7300 	orr.w	r3, r3, #512	; 0x200
 8000dde:	6013      	str	r3, [r2, #0]
#endif /* INSTRUCTION_CACHE_ENABLE */

#if (DATA_CACHE_ENABLE != 0U)
  __HAL_FLASH_DATA_CACHE_ENABLE();
 8000de0:	4b0b      	ldr	r3, [pc, #44]	; (8000e10 <HAL_Init+0x40>)
 8000de2:	681b      	ldr	r3, [r3, #0]
 8000de4:	4a0a      	ldr	r2, [pc, #40]	; (8000e10 <HAL_Init+0x40>)
 8000de6:	f443 6380 	orr.w	r3, r3, #1024	; 0x400
 8000dea:	6013      	str	r3, [r2, #0]
#endif /* DATA_CACHE_ENABLE */

#if (PREFETCH_ENABLE != 0U)
  __HAL_FLASH_PREFETCH_BUFFER_ENABLE();
 8000dec:	4b08      	ldr	r3, [pc, #32]	; (8000e10 <HAL_Init+0x40>)
 8000dee:	681b      	ldr	r3, [r3, #0]
 8000df0:	4a07      	ldr	r2, [pc, #28]	; (8000e10 <HAL_Init+0x40>)
 8000df2:	f443 7380 	orr.w	r3, r3, #256	; 0x100
 8000df6:	6013      	str	r3, [r2, #0]
#endif /* PREFETCH_ENABLE */

  /* Set Interrupt Group Priority */
  HAL_NVIC_SetPriorityGrouping(NVIC_PRIORITYGROUP_4);
 8000df8:	2003      	movs	r0, #3
 8000dfa:	f000 fd41 	bl	8001880 <HAL_NVIC_SetPriorityGrouping>

  /* Use systick as time base source and configure 1ms tick (default clock after Reset is HSI) */
  HAL_InitTick(TICK_INT_PRIORITY);
 8000dfe:	2000      	movs	r0, #0
 8000e00:	f000 f808 	bl	8000e14 <HAL_InitTick>

  /* Init the low level hardware */
  HAL_MspInit();
 8000e04:	f7ff fe3a 	bl	8000a7c <HAL_MspInit>

  /* Return function status */
  return HAL_OK;
 8000e08:	2300      	movs	r3, #0
}
 8000e0a:	4618      	mov	r0, r3
 8000e0c:	bd80      	pop	{r7, pc}
 8000e0e:	bf00      	nop
 8000e10:	40023c00 	.word	0x40023c00

08000e14 <HAL_InitTick>:
  *       implementation  in user file.
  * @param TickPriority Tick interrupt priority.
  * @retval HAL status
  */
__weak HAL_StatusTypeDef HAL_InitTick(uint32_t TickPriority)
{
 8000e14:	b580      	push	{r7, lr}
 8000e16:	b082      	sub	sp, #8
 8000e18:	af00      	add	r7, sp, #0
 8000e1a:	6078      	str	r0, [r7, #4]
  /* Configure the SysTick to have interrupt in 1ms time basis*/
  if (HAL_SYSTICK_Config(SystemCoreClock / (1000U / uwTickFreq)) > 0U)
 8000e1c:	4b12      	ldr	r3, [pc, #72]	; (8000e68 <HAL_InitTick+0x54>)
 8000e1e:	681a      	ldr	r2, [r3, #0]
 8000e20:	4b12      	ldr	r3, [pc, #72]	; (8000e6c <HAL_InitTick+0x58>)
 8000e22:	781b      	ldrb	r3, [r3, #0]
 8000e24:	4619      	mov	r1, r3
 8000e26:	f44f 737a 	mov.w	r3, #1000	; 0x3e8
 8000e2a:	fbb3 f3f1 	udiv	r3, r3, r1
 8000e2e:	fbb2 f3f3 	udiv	r3, r2, r3
 8000e32:	4618      	mov	r0, r3
 8000e34:	f000 fd59 	bl	80018ea <HAL_SYSTICK_Config>
 8000e38:	4603      	mov	r3, r0
 8000e3a:	2b00      	cmp	r3, #0
 8000e3c:	d001      	beq.n	8000e42 <HAL_InitTick+0x2e>
  {
    return HAL_ERROR;
 8000e3e:	2301      	movs	r3, #1
 8000e40:	e00e      	b.n	8000e60 <HAL_InitTick+0x4c>
  }

  /* Configure the SysTick IRQ priority */
  if (TickPriority < (1UL << __NVIC_PRIO_BITS))
 8000e42:	687b      	ldr	r3, [r7, #4]
 8000e44:	2b0f      	cmp	r3, #15
 8000e46:	d80a      	bhi.n	8000e5e <HAL_InitTick+0x4a>
  {
    HAL_NVIC_SetPriority(SysTick_IRQn, TickPriority, 0U);
 8000e48:	2200      	movs	r2, #0
 8000e4a:	6879      	ldr	r1, [r7, #4]
 8000e4c:	f04f 30ff 	mov.w	r0, #4294967295	; 0xffffffff
 8000e50:	f000 fd21 	bl	8001896 <HAL_NVIC_SetPriority>
    uwTickPrio = TickPriority;
 8000e54:	4a06      	ldr	r2, [pc, #24]	; (8000e70 <HAL_InitTick+0x5c>)
 8000e56:	687b      	ldr	r3, [r7, #4]
 8000e58:	6013      	str	r3, [r2, #0]
  {
    return HAL_ERROR;
  }

  /* Return function status */
  return HAL_OK;
 8000e5a:	2300      	movs	r3, #0
 8000e5c:	e000      	b.n	8000e60 <HAL_InitTick+0x4c>
    return HAL_ERROR;
 8000e5e:	2301      	movs	r3, #1
}
 8000e60:	4618      	mov	r0, r3
 8000e62:	3708      	adds	r7, #8
 8000e64:	46bd      	mov	sp, r7
 8000e66:	bd80      	pop	{r7, pc}
 8000e68:	20000000 	.word	0x20000000
 8000e6c:	20000008 	.word	0x20000008
 8000e70:	20000004 	.word	0x20000004

08000e74 <HAL_IncTick>:
 * @note This function is declared as __weak to be overwritten in case of other 
  *      implementations in user file.
  * @retval None
  */
__weak void HAL_IncTick(void)
{
 8000e74:	b480      	push	{r7}
 8000e76:	af00      	add	r7, sp, #0
  uwTick += uwTickFreq;
 8000e78:	4b06      	ldr	r3, [pc, #24]	; (8000e94 <HAL_IncTick+0x20>)
 8000e7a:	781b      	ldrb	r3, [r3, #0]
 8000e7c:	461a      	mov	r2, r3
 8000e7e:	4b06      	ldr	r3, [pc, #24]	; (8000e98 <HAL_IncTick+0x24>)
 8000e80:	681b      	ldr	r3, [r3, #0]
 8000e82:	4413      	add	r3, r2
 8000e84:	4a04      	ldr	r2, [pc, #16]	; (8000e98 <HAL_IncTick+0x24>)
 8000e86:	6013      	str	r3, [r2, #0]
}
 8000e88:	bf00      	nop
 8000e8a:	46bd      	mov	sp, r7
 8000e8c:	f85d 7b04 	ldr.w	r7, [sp], #4
 8000e90:	4770      	bx	lr
 8000e92:	bf00      	nop
 8000e94:	20000008 	.word	0x20000008
 8000e98:	20000120 	.word	0x20000120

08000e9c <HAL_GetTick>:
  * @note This function is declared as __weak to be overwritten in case of other 
  *       implementations in user file.
  * @retval tick value
  */
__weak uint32_t HAL_GetTick(void)
{
 8000e9c:	b480      	push	{r7}
 8000e9e:	af00      	add	r7, sp, #0
  return uwTick;
 8000ea0:	4b03      	ldr	r3, [pc, #12]	; (8000eb0 <HAL_GetTick+0x14>)
 8000ea2:	681b      	ldr	r3, [r3, #0]
}
 8000ea4:	4618      	mov	r0, r3
 8000ea6:	46bd      	mov	sp, r7
 8000ea8:	f85d 7b04 	ldr.w	r7, [sp], #4
 8000eac:	4770      	bx	lr
 8000eae:	bf00      	nop
 8000eb0:	20000120 	.word	0x20000120

08000eb4 <HAL_Delay>:
  *       implementations in user file.
  * @param Delay specifies the delay time length, in milliseconds.
  * @retval None
  */
__weak void HAL_Delay(uint32_t Delay)
{
 8000eb4:	b580      	push	{r7, lr}
 8000eb6:	b084      	sub	sp, #16
 8000eb8:	af00      	add	r7, sp, #0
 8000eba:	6078      	str	r0, [r7, #4]
  uint32_t tickstart = HAL_GetTick();
 8000ebc:	f7ff ffee 	bl	8000e9c <HAL_GetTick>
 8000ec0:	60b8      	str	r0, [r7, #8]
  uint32_t wait = Delay;
 8000ec2:	687b      	ldr	r3, [r7, #4]
 8000ec4:	60fb      	str	r3, [r7, #12]

  /* Add a freq to guarantee minimum wait */
  if (wait < HAL_MAX_DELAY)
 8000ec6:	68fb      	ldr	r3, [r7, #12]
 8000ec8:	f1b3 3fff 	cmp.w	r3, #4294967295	; 0xffffffff
 8000ecc:	d005      	beq.n	8000eda <HAL_Delay+0x26>
  {
    wait += (uint32_t)(uwTickFreq);
 8000ece:	4b0a      	ldr	r3, [pc, #40]	; (8000ef8 <HAL_Delay+0x44>)
 8000ed0:	781b      	ldrb	r3, [r3, #0]
 8000ed2:	461a      	mov	r2, r3
 8000ed4:	68fb      	ldr	r3, [r7, #12]
 8000ed6:	4413      	add	r3, r2
 8000ed8:	60fb      	str	r3, [r7, #12]
  }

  while((HAL_GetTick() - tickstart) < wait)
 8000eda:	bf00      	nop
 8000edc:	f7ff ffde 	bl	8000e9c <HAL_GetTick>
 8000ee0:	4602      	mov	r2, r0
 8000ee2:	68bb      	ldr	r3, [r7, #8]
 8000ee4:	1ad3      	subs	r3, r2, r3
 8000ee6:	68fa      	ldr	r2, [r7, #12]
 8000ee8:	429a      	cmp	r2, r3
 8000eea:	d8f7      	bhi.n	8000edc <HAL_Delay+0x28>
  {
  }
}
 8000eec:	bf00      	nop
 8000eee:	bf00      	nop
 8000ef0:	3710      	adds	r7, #16
 8000ef2:	46bd      	mov	sp, r7
 8000ef4:	bd80      	pop	{r7, pc}
 8000ef6:	bf00      	nop
 8000ef8:	20000008 	.word	0x20000008

08000efc <HAL_ADC_Init>:
  * @param  hadc pointer to a ADC_HandleTypeDef structure that contains
  *         the configuration information for the specified ADC.  
  * @retval HAL status
  */
HAL_StatusTypeDef HAL_ADC_Init(ADC_HandleTypeDef* hadc)
{
 8000efc:	b580      	push	{r7, lr}
 8000efe:	b084      	sub	sp, #16
 8000f00:	af00      	add	r7, sp, #0
 8000f02:	6078      	str	r0, [r7, #4]
  HAL_StatusTypeDef tmp_hal_status = HAL_OK;
 8000f04:	2300      	movs	r3, #0
 8000f06:	73fb      	strb	r3, [r7, #15]
  
  /* Check ADC handle */
  if(hadc == NULL)
 8000f08:	687b      	ldr	r3, [r7, #4]
 8000f0a:	2b00      	cmp	r3, #0
 8000f0c:	d101      	bne.n	8000f12 <HAL_ADC_Init+0x16>
  {
    return HAL_ERROR;
 8000f0e:	2301      	movs	r3, #1
 8000f10:	e033      	b.n	8000f7a <HAL_ADC_Init+0x7e>
  if(hadc->Init.ExternalTrigConv != ADC_SOFTWARE_START)
  {
    assert_param(IS_ADC_EXT_TRIG_EDGE(hadc->Init.ExternalTrigConvEdge));
  }
  
  if(hadc->State == HAL_ADC_STATE_RESET)
 8000f12:	687b      	ldr	r3, [r7, #4]
 8000f14:	6c1b      	ldr	r3, [r3, #64]	; 0x40
 8000f16:	2b00      	cmp	r3, #0
 8000f18:	d109      	bne.n	8000f2e <HAL_ADC_Init+0x32>

    /* Init the low level hardware */
    hadc->MspInitCallback(hadc);
#else
    /* Init the low level hardware */
    HAL_ADC_MspInit(hadc);
 8000f1a:	6878      	ldr	r0, [r7, #4]
 8000f1c:	f7ff fdd6 	bl	8000acc <HAL_ADC_MspInit>
#endif /* USE_HAL_ADC_REGISTER_CALLBACKS */

    /* Initialize ADC error code */
    ADC_CLEAR_ERRORCODE(hadc);
 8000f20:	687b      	ldr	r3, [r7, #4]
 8000f22:	2200      	movs	r2, #0
 8000f24:	645a      	str	r2, [r3, #68]	; 0x44
    
    /* Allocate lock resource and initialize it */
    hadc->Lock = HAL_UNLOCKED;
 8000f26:	687b      	ldr	r3, [r7, #4]
 8000f28:	2200      	movs	r2, #0
 8000f2a:	f883 203c 	strb.w	r2, [r3, #60]	; 0x3c
  }
  
  /* Configuration of ADC parameters if previous preliminary actions are      */ 
  /* correctly completed.                                                     */
  if (HAL_IS_BIT_CLR(hadc->State, HAL_ADC_STATE_ERROR_INTERNAL))
 8000f2e:	687b      	ldr	r3, [r7, #4]
 8000f30:	6c1b      	ldr	r3, [r3, #64]	; 0x40
 8000f32:	f003 0310 	and.w	r3, r3, #16
 8000f36:	2b00      	cmp	r3, #0
 8000f38:	d118      	bne.n	8000f6c <HAL_ADC_Init+0x70>
  {
    /* Set ADC state */
    ADC_STATE_CLR_SET(hadc->State,
 8000f3a:	687b      	ldr	r3, [r7, #4]
 8000f3c:	6c1b      	ldr	r3, [r3, #64]	; 0x40
 8000f3e:	f423 5388 	bic.w	r3, r3, #4352	; 0x1100
 8000f42:	f023 0302 	bic.w	r3, r3, #2
 8000f46:	f043 0202 	orr.w	r2, r3, #2
 8000f4a:	687b      	ldr	r3, [r7, #4]
 8000f4c:	641a      	str	r2, [r3, #64]	; 0x40
                      HAL_ADC_STATE_REG_BUSY | HAL_ADC_STATE_INJ_BUSY,
                      HAL_ADC_STATE_BUSY_INTERNAL);
    
    /* Set ADC parameters */
    ADC_Init(hadc);
 8000f4e:	6878      	ldr	r0, [r7, #4]
 8000f50:	f000 faca 	bl	80014e8 <ADC_Init>
    
    /* Set ADC error code to none */
    ADC_CLEAR_ERRORCODE(hadc);
 8000f54:	687b      	ldr	r3, [r7, #4]
 8000f56:	2200      	movs	r2, #0
 8000f58:	645a      	str	r2, [r3, #68]	; 0x44
    
    /* Set the ADC state */
    ADC_STATE_CLR_SET(hadc->State,
 8000f5a:	687b      	ldr	r3, [r7, #4]
 8000f5c:	6c1b      	ldr	r3, [r3, #64]	; 0x40
 8000f5e:	f023 0303 	bic.w	r3, r3, #3
 8000f62:	f043 0201 	orr.w	r2, r3, #1
 8000f66:	687b      	ldr	r3, [r7, #4]
 8000f68:	641a      	str	r2, [r3, #64]	; 0x40
 8000f6a:	e001      	b.n	8000f70 <HAL_ADC_Init+0x74>
                      HAL_ADC_STATE_BUSY_INTERNAL,
                      HAL_ADC_STATE_READY);
  }
  else
  {
    tmp_hal_status = HAL_ERROR;
 8000f6c:	2301      	movs	r3, #1
 8000f6e:	73fb      	strb	r3, [r7, #15]
  }
  
  /* Release Lock */
  __HAL_UNLOCK(hadc);
 8000f70:	687b      	ldr	r3, [r7, #4]
 8000f72:	2200      	movs	r2, #0
 8000f74:	f883 203c 	strb.w	r2, [r3, #60]	; 0x3c

  /* Return function status */
  return tmp_hal_status;
 8000f78:	7bfb      	ldrb	r3, [r7, #15]
}
 8000f7a:	4618      	mov	r0, r3
 8000f7c:	3710      	adds	r7, #16
 8000f7e:	46bd      	mov	sp, r7
 8000f80:	bd80      	pop	{r7, pc}
	...

08000f84 <HAL_ADC_Start>:
  * @param  hadc pointer to a ADC_HandleTypeDef structure that contains
  *         the configuration information for the specified ADC.
  * @retval HAL status
  */
HAL_StatusTypeDef HAL_ADC_Start(ADC_HandleTypeDef* hadc)
{
 8000f84:	b480      	push	{r7}
 8000f86:	b085      	sub	sp, #20
 8000f88:	af00      	add	r7, sp, #0
 8000f8a:	6078      	str	r0, [r7, #4]
  __IO uint32_t counter = 0U;
 8000f8c:	2300      	movs	r3, #0
 8000f8e:	60bb      	str	r3, [r7, #8]
  /* Check the parameters */
  assert_param(IS_FUNCTIONAL_STATE(hadc->Init.ContinuousConvMode));
  assert_param(IS_ADC_EXT_TRIG_EDGE(hadc->Init.ExternalTrigConvEdge)); 
  
  /* Process locked */
  __HAL_LOCK(hadc);
 8000f90:	687b      	ldr	r3, [r7, #4]
 8000f92:	f893 303c 	ldrb.w	r3, [r3, #60]	; 0x3c
 8000f96:	2b01      	cmp	r3, #1
 8000f98:	d101      	bne.n	8000f9e <HAL_ADC_Start+0x1a>
 8000f9a:	2302      	movs	r3, #2
 8000f9c:	e097      	b.n	80010ce <HAL_ADC_Start+0x14a>
 8000f9e:	687b      	ldr	r3, [r7, #4]
 8000fa0:	2201      	movs	r2, #1
 8000fa2:	f883 203c 	strb.w	r2, [r3, #60]	; 0x3c
  
  /* Enable the ADC peripheral */
  /* Check if ADC peripheral is disabled in order to enable it and wait during 
  Tstab time the ADC's stabilization */
  if((hadc->Instance->CR2 & ADC_CR2_ADON) != ADC_CR2_ADON)
 8000fa6:	687b      	ldr	r3, [r7, #4]
 8000fa8:	681b      	ldr	r3, [r3, #0]
 8000faa:	689b      	ldr	r3, [r3, #8]
 8000fac:	f003 0301 	and.w	r3, r3, #1
 8000fb0:	2b01      	cmp	r3, #1
 8000fb2:	d018      	beq.n	8000fe6 <HAL_ADC_Start+0x62>
  {  
    /* Enable the Peripheral */
    __HAL_ADC_ENABLE(hadc);
 8000fb4:	687b      	ldr	r3, [r7, #4]
 8000fb6:	681b      	ldr	r3, [r3, #0]
 8000fb8:	689a      	ldr	r2, [r3, #8]
 8000fba:	687b      	ldr	r3, [r7, #4]
 8000fbc:	681b      	ldr	r3, [r3, #0]
 8000fbe:	f042 0201 	orr.w	r2, r2, #1
 8000fc2:	609a      	str	r2, [r3, #8]
    
    /* Delay for ADC stabilization time */
    /* Compute number of CPU cycles to wait for */
    counter = (ADC_STAB_DELAY_US * (SystemCoreClock / 1000000U));
 8000fc4:	4b45      	ldr	r3, [pc, #276]	; (80010dc <HAL_ADC_Start+0x158>)
 8000fc6:	681b      	ldr	r3, [r3, #0]
 8000fc8:	4a45      	ldr	r2, [pc, #276]	; (80010e0 <HAL_ADC_Start+0x15c>)
 8000fca:	fba2 2303 	umull	r2, r3, r2, r3
 8000fce:	0c9a      	lsrs	r2, r3, #18
 8000fd0:	4613      	mov	r3, r2
 8000fd2:	005b      	lsls	r3, r3, #1
 8000fd4:	4413      	add	r3, r2
 8000fd6:	60bb      	str	r3, [r7, #8]
    while(counter != 0U)
 8000fd8:	e002      	b.n	8000fe0 <HAL_ADC_Start+0x5c>
    {
      counter--;
 8000fda:	68bb      	ldr	r3, [r7, #8]
 8000fdc:	3b01      	subs	r3, #1
 8000fde:	60bb      	str	r3, [r7, #8]
    while(counter != 0U)
 8000fe0:	68bb      	ldr	r3, [r7, #8]
 8000fe2:	2b00      	cmp	r3, #0
 8000fe4:	d1f9      	bne.n	8000fda <HAL_ADC_Start+0x56>
    }
  }
  
  /* Start conversion if ADC is effectively enabled */
  if(HAL_IS_BIT_SET(hadc->Instance->CR2, ADC_CR2_ADON))
 8000fe6:	687b      	ldr	r3, [r7, #4]
 8000fe8:	681b      	ldr	r3, [r3, #0]
 8000fea:	689b      	ldr	r3, [r3, #8]
 8000fec:	f003 0301 	and.w	r3, r3, #1
 8000ff0:	2b01      	cmp	r3, #1
 8000ff2:	d15f      	bne.n	80010b4 <HAL_ADC_Start+0x130>
  {
    /* Set ADC state                                                          */
    /* - Clear state bitfield related to regular group conversion results     */
    /* - Set state bitfield related to regular group operation                */
    ADC_STATE_CLR_SET(hadc->State,
 8000ff4:	687b      	ldr	r3, [r7, #4]
 8000ff6:	6c1b      	ldr	r3, [r3, #64]	; 0x40
 8000ff8:	f423 63e0 	bic.w	r3, r3, #1792	; 0x700
 8000ffc:	f023 0301 	bic.w	r3, r3, #1
 8001000:	f443 7280 	orr.w	r2, r3, #256	; 0x100
 8001004:	687b      	ldr	r3, [r7, #4]
 8001006:	641a      	str	r2, [r3, #64]	; 0x40
                      HAL_ADC_STATE_READY | HAL_ADC_STATE_REG_EOC | HAL_ADC_STATE_REG_OVR,
                      HAL_ADC_STATE_REG_BUSY);
    
    /* If conversions on group regular are also triggering group injected,    */
    /* update ADC state.                                                      */
    if (READ_BIT(hadc->Instance->CR1, ADC_CR1_JAUTO) != RESET)
 8001008:	687b      	ldr	r3, [r7, #4]
 800100a:	681b      	ldr	r3, [r3, #0]
 800100c:	685b      	ldr	r3, [r3, #4]
 800100e:	f403 6380 	and.w	r3, r3, #1024	; 0x400
 8001012:	2b00      	cmp	r3, #0
 8001014:	d007      	beq.n	8001026 <HAL_ADC_Start+0xa2>
    {
      ADC_STATE_CLR_SET(hadc->State, HAL_ADC_STATE_INJ_EOC, HAL_ADC_STATE_INJ_BUSY);  
 8001016:	687b      	ldr	r3, [r7, #4]
 8001018:	6c1b      	ldr	r3, [r3, #64]	; 0x40
 800101a:	f423 5340 	bic.w	r3, r3, #12288	; 0x3000
 800101e:	f443 5280 	orr.w	r2, r3, #4096	; 0x1000
 8001022:	687b      	ldr	r3, [r7, #4]
 8001024:	641a      	str	r2, [r3, #64]	; 0x40
    }
    
    /* State machine update: Check if an injected conversion is ongoing */
    if (HAL_IS_BIT_SET(hadc->State, HAL_ADC_STATE_INJ_BUSY))
 8001026:	687b      	ldr	r3, [r7, #4]
 8001028:	6c1b      	ldr	r3, [r3, #64]	; 0x40
 800102a:	f403 5380 	and.w	r3, r3, #4096	; 0x1000
 800102e:	f5b3 5f80 	cmp.w	r3, #4096	; 0x1000
 8001032:	d106      	bne.n	8001042 <HAL_ADC_Start+0xbe>
    {
      /* Reset ADC error code fields related to conversions on group regular */
      CLEAR_BIT(hadc->ErrorCode, (HAL_ADC_ERROR_OVR | HAL_ADC_ERROR_DMA));         
 8001034:	687b      	ldr	r3, [r7, #4]
 8001036:	6c5b      	ldr	r3, [r3, #68]	; 0x44
 8001038:	f023 0206 	bic.w	r2, r3, #6
 800103c:	687b      	ldr	r3, [r7, #4]
 800103e:	645a      	str	r2, [r3, #68]	; 0x44
 8001040:	e002      	b.n	8001048 <HAL_ADC_Start+0xc4>
    }
    else
    {
      /* Reset ADC all error code fields */
      ADC_CLEAR_ERRORCODE(hadc);
 8001042:	687b      	ldr	r3, [r7, #4]
 8001044:	2200      	movs	r2, #0
 8001046:	645a      	str	r2, [r3, #68]	; 0x44
    } 

    /* Process unlocked */
    /* Unlock before starting ADC conversions: in case of potential           */
    /* interruption, to let the process to ADC IRQ Handler.                   */
    __HAL_UNLOCK(hadc);
 8001048:	687b      	ldr	r3, [r7, #4]
 800104a:	2200      	movs	r2, #0
 800104c:	f883 203c 	strb.w	r2, [r3, #60]	; 0x3c

    /* Pointer to the common control register to which is belonging hadc    */
    /* (Depending on STM32F4 product, there may be up to 3 ADCs and 1 common */
    /* control register)                                                    */
    tmpADC_Common = ADC_COMMON_REGISTER(hadc);
 8001050:	4b24      	ldr	r3, [pc, #144]	; (80010e4 <HAL_ADC_Start+0x160>)
 8001052:	60fb      	str	r3, [r7, #12]

    /* Clear regular group conversion flag and overrun flag */
    /* (To ensure of no unknown state from potential previous ADC operations) */
    __HAL_ADC_CLEAR_FLAG(hadc, ADC_FLAG_EOC | ADC_FLAG_OVR);
 8001054:	687b      	ldr	r3, [r7, #4]
 8001056:	681b      	ldr	r3, [r3, #0]
 8001058:	f06f 0222 	mvn.w	r2, #34	; 0x22
 800105c:	601a      	str	r2, [r3, #0]
    
    /* Check if Multimode enabled */
    if(HAL_IS_BIT_CLR(tmpADC_Common->CCR, ADC_CCR_MULTI))
 800105e:	68fb      	ldr	r3, [r7, #12]
 8001060:	685b      	ldr	r3, [r3, #4]
 8001062:	f003 031f 	and.w	r3, r3, #31
 8001066:	2b00      	cmp	r3, #0
 8001068:	d10f      	bne.n	800108a <HAL_ADC_Start+0x106>
      if((hadc->Instance == ADC1) || ((hadc->Instance == ADC2) && ((ADC->CCR & ADC_CCR_MULTI_Msk) < ADC_CCR_MULTI_0)) \
                                  || ((hadc->Instance == ADC3) && ((ADC->CCR & ADC_CCR_MULTI_Msk) < ADC_CCR_MULTI_4)))
      {
#endif /* ADC2 || ADC3 */
        /* if no external trigger present enable software conversion of regular channels */
        if((hadc->Instance->CR2 & ADC_CR2_EXTEN) == RESET) 
 800106a:	687b      	ldr	r3, [r7, #4]
 800106c:	681b      	ldr	r3, [r3, #0]
 800106e:	689b      	ldr	r3, [r3, #8]
 8001070:	f003 5340 	and.w	r3, r3, #805306368	; 0x30000000
 8001074:	2b00      	cmp	r3, #0
 8001076:	d129      	bne.n	80010cc <HAL_ADC_Start+0x148>
        {
          /* Enable the selected ADC software conversion for regular group */
          hadc->Instance->CR2 |= (uint32_t)ADC_CR2_SWSTART;
 8001078:	687b      	ldr	r3, [r7, #4]
 800107a:	681b      	ldr	r3, [r3, #0]
 800107c:	689a      	ldr	r2, [r3, #8]
 800107e:	687b      	ldr	r3, [r7, #4]
 8001080:	681b      	ldr	r3, [r3, #0]
 8001082:	f042 4280 	orr.w	r2, r2, #1073741824	; 0x40000000
 8001086:	609a      	str	r2, [r3, #8]
 8001088:	e020      	b.n	80010cc <HAL_ADC_Start+0x148>
#endif /* ADC2 || ADC3 */
    }
    else
    {
      /* if instance of handle correspond to ADC1 and  no external trigger present enable software conversion of regular channels */
      if((hadc->Instance == ADC1) && ((hadc->Instance->CR2 & ADC_CR2_EXTEN) == RESET))
 800108a:	687b      	ldr	r3, [r7, #4]
 800108c:	681b      	ldr	r3, [r3, #0]
 800108e:	4a16      	ldr	r2, [pc, #88]	; (80010e8 <HAL_ADC_Start+0x164>)
 8001090:	4293      	cmp	r3, r2
 8001092:	d11b      	bne.n	80010cc <HAL_ADC_Start+0x148>
 8001094:	687b      	ldr	r3, [r7, #4]
 8001096:	681b      	ldr	r3, [r3, #0]
 8001098:	689b      	ldr	r3, [r3, #8]
 800109a:	f003 5340 	and.w	r3, r3, #805306368	; 0x30000000
 800109e:	2b00      	cmp	r3, #0
 80010a0:	d114      	bne.n	80010cc <HAL_ADC_Start+0x148>
      {
        /* Enable the selected ADC software conversion for regular group */
          hadc->Instance->CR2 |= (uint32_t)ADC_CR2_SWSTART;
 80010a2:	687b      	ldr	r3, [r7, #4]
 80010a4:	681b      	ldr	r3, [r3, #0]
 80010a6:	689a      	ldr	r2, [r3, #8]
 80010a8:	687b      	ldr	r3, [r7, #4]
 80010aa:	681b      	ldr	r3, [r3, #0]
 80010ac:	f042 4280 	orr.w	r2, r2, #1073741824	; 0x40000000
 80010b0:	609a      	str	r2, [r3, #8]
 80010b2:	e00b      	b.n	80010cc <HAL_ADC_Start+0x148>
    }
  }
  else
  {
    /* Update ADC state machine to error */
    SET_BIT(hadc->State, HAL_ADC_STATE_ERROR_INTERNAL);
 80010b4:	687b      	ldr	r3, [r7, #4]
 80010b6:	6c1b      	ldr	r3, [r3, #64]	; 0x40
 80010b8:	f043 0210 	orr.w	r2, r3, #16
 80010bc:	687b      	ldr	r3, [r7, #4]
 80010be:	641a      	str	r2, [r3, #64]	; 0x40

    /* Set ADC error code to ADC IP internal error */
    SET_BIT(hadc->ErrorCode, HAL_ADC_ERROR_INTERNAL);
 80010c0:	687b      	ldr	r3, [r7, #4]
 80010c2:	6c5b      	ldr	r3, [r3, #68]	; 0x44
 80010c4:	f043 0201 	orr.w	r2, r3, #1
 80010c8:	687b      	ldr	r3, [r7, #4]
 80010ca:	645a      	str	r2, [r3, #68]	; 0x44
  }
  
  /* Return function status */
  return HAL_OK;
 80010cc:	2300      	movs	r3, #0
}
 80010ce:	4618      	mov	r0, r3
 80010d0:	3714      	adds	r7, #20
 80010d2:	46bd      	mov	sp, r7
 80010d4:	f85d 7b04 	ldr.w	r7, [sp], #4
 80010d8:	4770      	bx	lr
 80010da:	bf00      	nop
 80010dc:	20000000 	.word	0x20000000
 80010e0:	431bde83 	.word	0x431bde83
 80010e4:	40012300 	.word	0x40012300
 80010e8:	40012000 	.word	0x40012000

080010ec <HAL_ADC_Stop>:
  *         the configuration information for the specified ADC.
  *
  * @retval HAL status.
  */
HAL_StatusTypeDef HAL_ADC_Stop(ADC_HandleTypeDef* hadc)
{
 80010ec:	b480      	push	{r7}
 80010ee:	b083      	sub	sp, #12
 80010f0:	af00      	add	r7, sp, #0
 80010f2:	6078      	str	r0, [r7, #4]
  /* Check the parameters */
  assert_param(IS_ADC_ALL_INSTANCE(hadc->Instance));
  
  /* Process locked */
  __HAL_LOCK(hadc);
 80010f4:	687b      	ldr	r3, [r7, #4]
 80010f6:	f893 303c 	ldrb.w	r3, [r3, #60]	; 0x3c
 80010fa:	2b01      	cmp	r3, #1
 80010fc:	d101      	bne.n	8001102 <HAL_ADC_Stop+0x16>
 80010fe:	2302      	movs	r3, #2
 8001100:	e021      	b.n	8001146 <HAL_ADC_Stop+0x5a>
 8001102:	687b      	ldr	r3, [r7, #4]
 8001104:	2201      	movs	r2, #1
 8001106:	f883 203c 	strb.w	r2, [r3, #60]	; 0x3c
  
  /* Stop potential conversion on going, on regular and injected groups */
  /* Disable ADC peripheral */
  __HAL_ADC_DISABLE(hadc);
 800110a:	687b      	ldr	r3, [r7, #4]
 800110c:	681b      	ldr	r3, [r3, #0]
 800110e:	689a      	ldr	r2, [r3, #8]
 8001110:	687b      	ldr	r3, [r7, #4]
 8001112:	681b      	ldr	r3, [r3, #0]
 8001114:	f022 0201 	bic.w	r2, r2, #1
 8001118:	609a      	str	r2, [r3, #8]
  
  /* Check if ADC is effectively disabled */
  if(HAL_IS_BIT_CLR(hadc->Instance->CR2, ADC_CR2_ADON))
 800111a:	687b      	ldr	r3, [r7, #4]
 800111c:	681b      	ldr	r3, [r3, #0]
 800111e:	689b      	ldr	r3, [r3, #8]
 8001120:	f003 0301 	and.w	r3, r3, #1
 8001124:	2b00      	cmp	r3, #0
 8001126:	d109      	bne.n	800113c <HAL_ADC_Stop+0x50>
  {
    /* Set ADC state */
    ADC_STATE_CLR_SET(hadc->State,
 8001128:	687b      	ldr	r3, [r7, #4]
 800112a:	6c1b      	ldr	r3, [r3, #64]	; 0x40
 800112c:	f423 5388 	bic.w	r3, r3, #4352	; 0x1100
 8001130:	f023 0301 	bic.w	r3, r3, #1
 8001134:	f043 0201 	orr.w	r2, r3, #1
 8001138:	687b      	ldr	r3, [r7, #4]
 800113a:	641a      	str	r2, [r3, #64]	; 0x40
                      HAL_ADC_STATE_REG_BUSY | HAL_ADC_STATE_INJ_BUSY,
                      HAL_ADC_STATE_READY);
  }
  
  /* Process unlocked */
  __HAL_UNLOCK(hadc);
 800113c:	687b      	ldr	r3, [r7, #4]
 800113e:	2200      	movs	r2, #0
 8001140:	f883 203c 	strb.w	r2, [r3, #60]	; 0x3c
  
  /* Return function status */
  return HAL_OK;
 8001144:	2300      	movs	r3, #0
}
 8001146:	4618      	mov	r0, r3
 8001148:	370c      	adds	r7, #12
 800114a:	46bd      	mov	sp, r7
 800114c:	f85d 7b04 	ldr.w	r7, [sp], #4
 8001150:	4770      	bx	lr

08001152 <HAL_ADC_PollForConversion>:
  *         the configuration information for the specified ADC.
  * @param  Timeout Timeout value in millisecond.  
  * @retval HAL status
  */
HAL_StatusTypeDef HAL_ADC_PollForConversion(ADC_HandleTypeDef* hadc, uint32_t Timeout)
{
 8001152:	b580      	push	{r7, lr}
 8001154:	b084      	sub	sp, #16
 8001156:	af00      	add	r7, sp, #0
 8001158:	6078      	str	r0, [r7, #4]
 800115a:	6039      	str	r1, [r7, #0]
  uint32_t tickstart = 0U;
 800115c:	2300      	movs	r3, #0
 800115e:	60fb      	str	r3, [r7, #12]
  /* each conversion:                                                       */
  /* Particular case is ADC configured in DMA mode and ADC sequencer with   */
  /* several ranks and polling for end of each conversion.                  */
  /* For code simplicity sake, this particular case is generalized to       */
  /* ADC configured in DMA mode and polling for end of each conversion.     */
  if (HAL_IS_BIT_SET(hadc->Instance->CR2, ADC_CR2_EOCS) &&
 8001160:	687b      	ldr	r3, [r7, #4]
 8001162:	681b      	ldr	r3, [r3, #0]
 8001164:	689b      	ldr	r3, [r3, #8]
 8001166:	f403 6380 	and.w	r3, r3, #1024	; 0x400
 800116a:	f5b3 6f80 	cmp.w	r3, #1024	; 0x400
 800116e:	d113      	bne.n	8001198 <HAL_ADC_PollForConversion+0x46>
      HAL_IS_BIT_SET(hadc->Instance->CR2, ADC_CR2_DMA)    )
 8001170:	687b      	ldr	r3, [r7, #4]
 8001172:	681b      	ldr	r3, [r3, #0]
 8001174:	689b      	ldr	r3, [r3, #8]
 8001176:	f403 7380 	and.w	r3, r3, #256	; 0x100
  if (HAL_IS_BIT_SET(hadc->Instance->CR2, ADC_CR2_EOCS) &&
 800117a:	f5b3 7f80 	cmp.w	r3, #256	; 0x100
 800117e:	d10b      	bne.n	8001198 <HAL_ADC_PollForConversion+0x46>
  {
    /* Update ADC state machine to error */
    SET_BIT(hadc->State, HAL_ADC_STATE_ERROR_CONFIG);
 8001180:	687b      	ldr	r3, [r7, #4]
 8001182:	6c1b      	ldr	r3, [r3, #64]	; 0x40
 8001184:	f043 0220 	orr.w	r2, r3, #32
 8001188:	687b      	ldr	r3, [r7, #4]
 800118a:	641a      	str	r2, [r3, #64]	; 0x40
    
    /* Process unlocked */
    __HAL_UNLOCK(hadc);
 800118c:	687b      	ldr	r3, [r7, #4]
 800118e:	2200      	movs	r2, #0
 8001190:	f883 203c 	strb.w	r2, [r3, #60]	; 0x3c
    
    return HAL_ERROR;
 8001194:	2301      	movs	r3, #1
 8001196:	e063      	b.n	8001260 <HAL_ADC_PollForConversion+0x10e>
  }

  /* Get tick */ 
  tickstart = HAL_GetTick();
 8001198:	f7ff fe80 	bl	8000e9c <HAL_GetTick>
 800119c:	60f8      	str	r0, [r7, #12]

  /* Check End of conversion flag */
  while(!(__HAL_ADC_GET_FLAG(hadc, ADC_FLAG_EOC)))
 800119e:	e021      	b.n	80011e4 <HAL_ADC_PollForConversion+0x92>
  {
    /* Check if timeout is disabled (set to infinite wait) */
    if(Timeout != HAL_MAX_DELAY)
 80011a0:	683b      	ldr	r3, [r7, #0]
 80011a2:	f1b3 3fff 	cmp.w	r3, #4294967295	; 0xffffffff
 80011a6:	d01d      	beq.n	80011e4 <HAL_ADC_PollForConversion+0x92>
    {
      if((Timeout == 0U) || ((HAL_GetTick() - tickstart ) > Timeout))
 80011a8:	683b      	ldr	r3, [r7, #0]
 80011aa:	2b00      	cmp	r3, #0
 80011ac:	d007      	beq.n	80011be <HAL_ADC_PollForConversion+0x6c>
 80011ae:	f7ff fe75 	bl	8000e9c <HAL_GetTick>
 80011b2:	4602      	mov	r2, r0
 80011b4:	68fb      	ldr	r3, [r7, #12]
 80011b6:	1ad3      	subs	r3, r2, r3
 80011b8:	683a      	ldr	r2, [r7, #0]
 80011ba:	429a      	cmp	r2, r3
 80011bc:	d212      	bcs.n	80011e4 <HAL_ADC_PollForConversion+0x92>
      {
        /* New check to avoid false timeout detection in case of preemption */
        if(!(__HAL_ADC_GET_FLAG(hadc, ADC_FLAG_EOC)))
 80011be:	687b      	ldr	r3, [r7, #4]
 80011c0:	681b      	ldr	r3, [r3, #0]
 80011c2:	681b      	ldr	r3, [r3, #0]
 80011c4:	f003 0302 	and.w	r3, r3, #2
 80011c8:	2b02      	cmp	r3, #2
 80011ca:	d00b      	beq.n	80011e4 <HAL_ADC_PollForConversion+0x92>
        {
          /* Update ADC state machine to timeout */
          SET_BIT(hadc->State, HAL_ADC_STATE_TIMEOUT);
 80011cc:	687b      	ldr	r3, [r7, #4]
 80011ce:	6c1b      	ldr	r3, [r3, #64]	; 0x40
 80011d0:	f043 0204 	orr.w	r2, r3, #4
 80011d4:	687b      	ldr	r3, [r7, #4]
 80011d6:	641a      	str	r2, [r3, #64]	; 0x40
          
          /* Process unlocked */
          __HAL_UNLOCK(hadc);
 80011d8:	687b      	ldr	r3, [r7, #4]
 80011da:	2200      	movs	r2, #0
 80011dc:	f883 203c 	strb.w	r2, [r3, #60]	; 0x3c
          
          return HAL_TIMEOUT;
 80011e0:	2303      	movs	r3, #3
 80011e2:	e03d      	b.n	8001260 <HAL_ADC_PollForConversion+0x10e>
  while(!(__HAL_ADC_GET_FLAG(hadc, ADC_FLAG_EOC)))
 80011e4:	687b      	ldr	r3, [r7, #4]
 80011e6:	681b      	ldr	r3, [r3, #0]
 80011e8:	681b      	ldr	r3, [r3, #0]
 80011ea:	f003 0302 	and.w	r3, r3, #2
 80011ee:	2b02      	cmp	r3, #2
 80011f0:	d1d6      	bne.n	80011a0 <HAL_ADC_PollForConversion+0x4e>
      }
    }
  }
  
  /* Clear regular group conversion flag */
  __HAL_ADC_CLEAR_FLAG(hadc, ADC_FLAG_STRT | ADC_FLAG_EOC);
 80011f2:	687b      	ldr	r3, [r7, #4]
 80011f4:	681b      	ldr	r3, [r3, #0]
 80011f6:	f06f 0212 	mvn.w	r2, #18
 80011fa:	601a      	str	r2, [r3, #0]
  
  /* Update ADC state machine */
  SET_BIT(hadc->State, HAL_ADC_STATE_REG_EOC);
 80011fc:	687b      	ldr	r3, [r7, #4]
 80011fe:	6c1b      	ldr	r3, [r3, #64]	; 0x40
 8001200:	f443 7200 	orr.w	r2, r3, #512	; 0x200
 8001204:	687b      	ldr	r3, [r7, #4]
 8001206:	641a      	str	r2, [r3, #64]	; 0x40
  /* by external trigger, continuous mode or scan sequence on going.          */
  /* Note: On STM32F4, there is no independent flag of end of sequence.       */
  /*       The test of scan sequence on going is done either with scan        */
  /*       sequence disabled or with end of conversion flag set to            */
  /*       of end of sequence.                                                */
  if(ADC_IS_SOFTWARE_START_REGULAR(hadc)                   &&
 8001208:	687b      	ldr	r3, [r7, #4]
 800120a:	681b      	ldr	r3, [r3, #0]
 800120c:	689b      	ldr	r3, [r3, #8]
 800120e:	f003 5340 	and.w	r3, r3, #805306368	; 0x30000000
 8001212:	2b00      	cmp	r3, #0
 8001214:	d123      	bne.n	800125e <HAL_ADC_PollForConversion+0x10c>
     (hadc->Init.ContinuousConvMode == DISABLE)            &&
 8001216:	687b      	ldr	r3, [r7, #4]
 8001218:	7e1b      	ldrb	r3, [r3, #24]
  if(ADC_IS_SOFTWARE_START_REGULAR(hadc)                   &&
 800121a:	2b00      	cmp	r3, #0
 800121c:	d11f      	bne.n	800125e <HAL_ADC_PollForConversion+0x10c>
     (HAL_IS_BIT_CLR(hadc->Instance->SQR1, ADC_SQR1_L) ||
 800121e:	687b      	ldr	r3, [r7, #4]
 8001220:	681b      	ldr	r3, [r3, #0]
 8001222:	6adb      	ldr	r3, [r3, #44]	; 0x2c
 8001224:	f403 0370 	and.w	r3, r3, #15728640	; 0xf00000
     (hadc->Init.ContinuousConvMode == DISABLE)            &&
 8001228:	2b00      	cmp	r3, #0
 800122a:	d006      	beq.n	800123a <HAL_ADC_PollForConversion+0xe8>
      HAL_IS_BIT_CLR(hadc->Instance->CR2, ADC_CR2_EOCS)  )   )
 800122c:	687b      	ldr	r3, [r7, #4]
 800122e:	681b      	ldr	r3, [r3, #0]
 8001230:	689b      	ldr	r3, [r3, #8]
 8001232:	f403 6380 	and.w	r3, r3, #1024	; 0x400
     (HAL_IS_BIT_CLR(hadc->Instance->SQR1, ADC_SQR1_L) ||
 8001236:	2b00      	cmp	r3, #0
 8001238:	d111      	bne.n	800125e <HAL_ADC_PollForConversion+0x10c>
  {
    /* Set ADC state */
    CLEAR_BIT(hadc->State, HAL_ADC_STATE_REG_BUSY);   
 800123a:	687b      	ldr	r3, [r7, #4]
 800123c:	6c1b      	ldr	r3, [r3, #64]	; 0x40
 800123e:	f423 7280 	bic.w	r2, r3, #256	; 0x100
 8001242:	687b      	ldr	r3, [r7, #4]
 8001244:	641a      	str	r2, [r3, #64]	; 0x40
    
    if (HAL_IS_BIT_CLR(hadc->State, HAL_ADC_STATE_INJ_BUSY))
 8001246:	687b      	ldr	r3, [r7, #4]
 8001248:	6c1b      	ldr	r3, [r3, #64]	; 0x40
 800124a:	f403 5380 	and.w	r3, r3, #4096	; 0x1000
 800124e:	2b00      	cmp	r3, #0
 8001250:	d105      	bne.n	800125e <HAL_ADC_PollForConversion+0x10c>
    { 
      SET_BIT(hadc->State, HAL_ADC_STATE_READY);
 8001252:	687b      	ldr	r3, [r7, #4]
 8001254:	6c1b      	ldr	r3, [r3, #64]	; 0x40
 8001256:	f043 0201 	orr.w	r2, r3, #1
 800125a:	687b      	ldr	r3, [r7, #4]
 800125c:	641a      	str	r2, [r3, #64]	; 0x40
    }
  }
  
  /* Return ADC state */
  return HAL_OK;
 800125e:	2300      	movs	r3, #0
}
 8001260:	4618      	mov	r0, r3
 8001262:	3710      	adds	r7, #16
 8001264:	46bd      	mov	sp, r7
 8001266:	bd80      	pop	{r7, pc}

08001268 <HAL_ADC_GetValue>:
  * @param  hadc pointer to a ADC_HandleTypeDef structure that contains
  *         the configuration information for the specified ADC.
  * @retval Converted value
  */
uint32_t HAL_ADC_GetValue(ADC_HandleTypeDef* hadc)
{       
 8001268:	b480      	push	{r7}
 800126a:	b083      	sub	sp, #12
 800126c:	af00      	add	r7, sp, #0
 800126e:	6078      	str	r0, [r7, #4]
  /* Return the selected ADC converted value */ 
  return hadc->Instance->DR;
 8001270:	687b      	ldr	r3, [r7, #4]
 8001272:	681b      	ldr	r3, [r3, #0]
 8001274:	6cdb      	ldr	r3, [r3, #76]	; 0x4c
}
 8001276:	4618      	mov	r0, r3
 8001278:	370c      	adds	r7, #12
 800127a:	46bd      	mov	sp, r7
 800127c:	f85d 7b04 	ldr.w	r7, [sp], #4
 8001280:	4770      	bx	lr
	...

08001284 <HAL_ADC_ConfigChannel>:
  *         the configuration information for the specified ADC.
  * @param  sConfig ADC configuration structure. 
  * @retval HAL status
  */
HAL_StatusTypeDef HAL_ADC_ConfigChannel(ADC_HandleTypeDef* hadc, ADC_ChannelConfTypeDef* sConfig)
{
 8001284:	b480      	push	{r7}
 8001286:	b085      	sub	sp, #20
 8001288:	af00      	add	r7, sp, #0
 800128a:	6078      	str	r0, [r7, #4]
 800128c:	6039      	str	r1, [r7, #0]
  __IO uint32_t counter = 0U;
 800128e:	2300      	movs	r3, #0
 8001290:	60bb      	str	r3, [r7, #8]
  assert_param(IS_ADC_CHANNEL(sConfig->Channel));
  assert_param(IS_ADC_REGULAR_RANK(sConfig->Rank));
  assert_param(IS_ADC_SAMPLE_TIME(sConfig->SamplingTime));
  
  /* Process locked */
  __HAL_LOCK(hadc);
 8001292:	687b      	ldr	r3, [r7, #4]
 8001294:	f893 303c 	ldrb.w	r3, [r3, #60]	; 0x3c
 8001298:	2b01      	cmp	r3, #1
 800129a:	d101      	bne.n	80012a0 <HAL_ADC_ConfigChannel+0x1c>
 800129c:	2302      	movs	r3, #2
 800129e:	e113      	b.n	80014c8 <HAL_ADC_ConfigChannel+0x244>
 80012a0:	687b      	ldr	r3, [r7, #4]
 80012a2:	2201      	movs	r2, #1
 80012a4:	f883 203c 	strb.w	r2, [r3, #60]	; 0x3c
    
  /* if ADC_Channel_10 ... ADC_Channel_18 is selected */
  if (sConfig->Channel > ADC_CHANNEL_9)
 80012a8:	683b      	ldr	r3, [r7, #0]
 80012aa:	681b      	ldr	r3, [r3, #0]
 80012ac:	2b09      	cmp	r3, #9
 80012ae:	d925      	bls.n	80012fc <HAL_ADC_ConfigChannel+0x78>
  {
    /* Clear the old sample time */
    hadc->Instance->SMPR1 &= ~ADC_SMPR1(ADC_SMPR1_SMP10, sConfig->Channel);
 80012b0:	687b      	ldr	r3, [r7, #4]
 80012b2:	681b      	ldr	r3, [r3, #0]
 80012b4:	68d9      	ldr	r1, [r3, #12]
 80012b6:	683b      	ldr	r3, [r7, #0]
 80012b8:	681b      	ldr	r3, [r3, #0]
 80012ba:	b29b      	uxth	r3, r3
 80012bc:	461a      	mov	r2, r3
 80012be:	4613      	mov	r3, r2
 80012c0:	005b      	lsls	r3, r3, #1
 80012c2:	4413      	add	r3, r2
 80012c4:	3b1e      	subs	r3, #30
 80012c6:	2207      	movs	r2, #7
 80012c8:	fa02 f303 	lsl.w	r3, r2, r3
 80012cc:	43da      	mvns	r2, r3
 80012ce:	687b      	ldr	r3, [r7, #4]
 80012d0:	681b      	ldr	r3, [r3, #0]
 80012d2:	400a      	ands	r2, r1
 80012d4:	60da      	str	r2, [r3, #12]
    
    /* Set the new sample time */
    hadc->Instance->SMPR1 |= ADC_SMPR1(sConfig->SamplingTime, sConfig->Channel);
 80012d6:	687b      	ldr	r3, [r7, #4]
 80012d8:	681b      	ldr	r3, [r3, #0]
 80012da:	68d9      	ldr	r1, [r3, #12]
 80012dc:	683b      	ldr	r3, [r7, #0]
 80012de:	689a      	ldr	r2, [r3, #8]
 80012e0:	683b      	ldr	r3, [r7, #0]
 80012e2:	681b      	ldr	r3, [r3, #0]
 80012e4:	b29b      	uxth	r3, r3
 80012e6:	4618      	mov	r0, r3
 80012e8:	4603      	mov	r3, r0
 80012ea:	005b      	lsls	r3, r3, #1
 80012ec:	4403      	add	r3, r0
 80012ee:	3b1e      	subs	r3, #30
 80012f0:	409a      	lsls	r2, r3
 80012f2:	687b      	ldr	r3, [r7, #4]
 80012f4:	681b      	ldr	r3, [r3, #0]
 80012f6:	430a      	orrs	r2, r1
 80012f8:	60da      	str	r2, [r3, #12]
 80012fa:	e022      	b.n	8001342 <HAL_ADC_ConfigChannel+0xbe>
  }
  else /* ADC_Channel include in ADC_Channel_[0..9] */
  {
    /* Clear the old sample time */
    hadc->Instance->SMPR2 &= ~ADC_SMPR2(ADC_SMPR2_SMP0, sConfig->Channel);
 80012fc:	687b      	ldr	r3, [r7, #4]
 80012fe:	681b      	ldr	r3, [r3, #0]
 8001300:	6919      	ldr	r1, [r3, #16]
 8001302:	683b      	ldr	r3, [r7, #0]
 8001304:	681b      	ldr	r3, [r3, #0]
 8001306:	b29b      	uxth	r3, r3
 8001308:	461a      	mov	r2, r3
 800130a:	4613      	mov	r3, r2
 800130c:	005b      	lsls	r3, r3, #1
 800130e:	4413      	add	r3, r2
 8001310:	2207      	movs	r2, #7
 8001312:	fa02 f303 	lsl.w	r3, r2, r3
 8001316:	43da      	mvns	r2, r3
 8001318:	687b      	ldr	r3, [r7, #4]
 800131a:	681b      	ldr	r3, [r3, #0]
 800131c:	400a      	ands	r2, r1
 800131e:	611a      	str	r2, [r3, #16]
    
    /* Set the new sample time */
    hadc->Instance->SMPR2 |= ADC_SMPR2(sConfig->SamplingTime, sConfig->Channel);
 8001320:	687b      	ldr	r3, [r7, #4]
 8001322:	681b      	ldr	r3, [r3, #0]
 8001324:	6919      	ldr	r1, [r3, #16]
 8001326:	683b      	ldr	r3, [r7, #0]
 8001328:	689a      	ldr	r2, [r3, #8]
 800132a:	683b      	ldr	r3, [r7, #0]
 800132c:	681b      	ldr	r3, [r3, #0]
 800132e:	b29b      	uxth	r3, r3
 8001330:	4618      	mov	r0, r3
 8001332:	4603      	mov	r3, r0
 8001334:	005b      	lsls	r3, r3, #1
 8001336:	4403      	add	r3, r0
 8001338:	409a      	lsls	r2, r3
 800133a:	687b      	ldr	r3, [r7, #4]
 800133c:	681b      	ldr	r3, [r3, #0]
 800133e:	430a      	orrs	r2, r1
 8001340:	611a      	str	r2, [r3, #16]
  }
  
  /* For Rank 1 to 6 */
  if (sConfig->Rank < 7U)
 8001342:	683b      	ldr	r3, [r7, #0]
 8001344:	685b      	ldr	r3, [r3, #4]
 8001346:	2b06      	cmp	r3, #6
 8001348:	d824      	bhi.n	8001394 <HAL_ADC_ConfigChannel+0x110>
  {
    /* Clear the old SQx bits for the selected rank */
    hadc->Instance->SQR3 &= ~ADC_SQR3_RK(ADC_SQR3_SQ1, sConfig->Rank);
 800134a:	687b      	ldr	r3, [r7, #4]
 800134c:	681b      	ldr	r3, [r3, #0]
 800134e:	6b59      	ldr	r1, [r3, #52]	; 0x34
 8001350:	683b      	ldr	r3, [r7, #0]
 8001352:	685a      	ldr	r2, [r3, #4]
 8001354:	4613      	mov	r3, r2
 8001356:	009b      	lsls	r3, r3, #2
 8001358:	4413      	add	r3, r2
 800135a:	3b05      	subs	r3, #5
 800135c:	221f      	movs	r2, #31
 800135e:	fa02 f303 	lsl.w	r3, r2, r3
 8001362:	43da      	mvns	r2, r3
 8001364:	687b      	ldr	r3, [r7, #4]
 8001366:	681b      	ldr	r3, [r3, #0]
 8001368:	400a      	ands	r2, r1
 800136a:	635a      	str	r2, [r3, #52]	; 0x34
    
    /* Set the SQx bits for the selected rank */
    hadc->Instance->SQR3 |= ADC_SQR3_RK(sConfig->Channel, sConfig->Rank);
 800136c:	687b      	ldr	r3, [r7, #4]
 800136e:	681b      	ldr	r3, [r3, #0]
 8001370:	6b59      	ldr	r1, [r3, #52]	; 0x34
 8001372:	683b      	ldr	r3, [r7, #0]
 8001374:	681b      	ldr	r3, [r3, #0]
 8001376:	b29b      	uxth	r3, r3
 8001378:	4618      	mov	r0, r3
 800137a:	683b      	ldr	r3, [r7, #0]
 800137c:	685a      	ldr	r2, [r3, #4]
 800137e:	4613      	mov	r3, r2
 8001380:	009b      	lsls	r3, r3, #2
 8001382:	4413      	add	r3, r2
 8001384:	3b05      	subs	r3, #5
 8001386:	fa00 f203 	lsl.w	r2, r0, r3
 800138a:	687b      	ldr	r3, [r7, #4]
 800138c:	681b      	ldr	r3, [r3, #0]
 800138e:	430a      	orrs	r2, r1
 8001390:	635a      	str	r2, [r3, #52]	; 0x34
 8001392:	e04c      	b.n	800142e <HAL_ADC_ConfigChannel+0x1aa>
  }
  /* For Rank 7 to 12 */
  else if (sConfig->Rank < 13U)
 8001394:	683b      	ldr	r3, [r7, #0]
 8001396:	685b      	ldr	r3, [r3, #4]
 8001398:	2b0c      	cmp	r3, #12
 800139a:	d824      	bhi.n	80013e6 <HAL_ADC_ConfigChannel+0x162>
  {
    /* Clear the old SQx bits for the selected rank */
    hadc->Instance->SQR2 &= ~ADC_SQR2_RK(ADC_SQR2_SQ7, sConfig->Rank);
 800139c:	687b      	ldr	r3, [r7, #4]
 800139e:	681b      	ldr	r3, [r3, #0]
 80013a0:	6b19      	ldr	r1, [r3, #48]	; 0x30
 80013a2:	683b      	ldr	r3, [r7, #0]
 80013a4:	685a      	ldr	r2, [r3, #4]
 80013a6:	4613      	mov	r3, r2
 80013a8:	009b      	lsls	r3, r3, #2
 80013aa:	4413      	add	r3, r2
 80013ac:	3b23      	subs	r3, #35	; 0x23
 80013ae:	221f      	movs	r2, #31
 80013b0:	fa02 f303 	lsl.w	r3, r2, r3
 80013b4:	43da      	mvns	r2, r3
 80013b6:	687b      	ldr	r3, [r7, #4]
 80013b8:	681b      	ldr	r3, [r3, #0]
 80013ba:	400a      	ands	r2, r1
 80013bc:	631a      	str	r2, [r3, #48]	; 0x30
    
    /* Set the SQx bits for the selected rank */
    hadc->Instance->SQR2 |= ADC_SQR2_RK(sConfig->Channel, sConfig->Rank);
 80013be:	687b      	ldr	r3, [r7, #4]
 80013c0:	681b      	ldr	r3, [r3, #0]
 80013c2:	6b19      	ldr	r1, [r3, #48]	; 0x30
 80013c4:	683b      	ldr	r3, [r7, #0]
 80013c6:	681b      	ldr	r3, [r3, #0]
 80013c8:	b29b      	uxth	r3, r3
 80013ca:	4618      	mov	r0, r3
 80013cc:	683b      	ldr	r3, [r7, #0]
 80013ce:	685a      	ldr	r2, [r3, #4]
 80013d0:	4613      	mov	r3, r2
 80013d2:	009b      	lsls	r3, r3, #2
 80013d4:	4413      	add	r3, r2
 80013d6:	3b23      	subs	r3, #35	; 0x23
 80013d8:	fa00 f203 	lsl.w	r2, r0, r3
 80013dc:	687b      	ldr	r3, [r7, #4]
 80013de:	681b      	ldr	r3, [r3, #0]
 80013e0:	430a      	orrs	r2, r1
 80013e2:	631a      	str	r2, [r3, #48]	; 0x30
 80013e4:	e023      	b.n	800142e <HAL_ADC_ConfigChannel+0x1aa>
  }
  /* For Rank 13 to 16 */
  else
  {
    /* Clear the old SQx bits for the selected rank */
    hadc->Instance->SQR1 &= ~ADC_SQR1_RK(ADC_SQR1_SQ13, sConfig->Rank);
 80013e6:	687b      	ldr	r3, [r7, #4]
 80013e8:	681b      	ldr	r3, [r3, #0]
 80013ea:	6ad9      	ldr	r1, [r3, #44]	; 0x2c
 80013ec:	683b      	ldr	r3, [r7, #0]
 80013ee:	685a      	ldr	r2, [r3, #4]
 80013f0:	4613      	mov	r3, r2
 80013f2:	009b      	lsls	r3, r3, #2
 80013f4:	4413      	add	r3, r2
 80013f6:	3b41      	subs	r3, #65	; 0x41
 80013f8:	221f      	movs	r2, #31
 80013fa:	fa02 f303 	lsl.w	r3, r2, r3
 80013fe:	43da      	mvns	r2, r3
 8001400:	687b      	ldr	r3, [r7, #4]
 8001402:	681b      	ldr	r3, [r3, #0]
 8001404:	400a      	ands	r2, r1
 8001406:	62da      	str	r2, [r3, #44]	; 0x2c
    
    /* Set the SQx bits for the selected rank */
    hadc->Instance->SQR1 |= ADC_SQR1_RK(sConfig->Channel, sConfig->Rank);
 8001408:	687b      	ldr	r3, [r7, #4]
 800140a:	681b      	ldr	r3, [r3, #0]
 800140c:	6ad9      	ldr	r1, [r3, #44]	; 0x2c
 800140e:	683b      	ldr	r3, [r7, #0]
 8001410:	681b      	ldr	r3, [r3, #0]
 8001412:	b29b      	uxth	r3, r3
 8001414:	4618      	mov	r0, r3
 8001416:	683b      	ldr	r3, [r7, #0]
 8001418:	685a      	ldr	r2, [r3, #4]
 800141a:	4613      	mov	r3, r2
 800141c:	009b      	lsls	r3, r3, #2
 800141e:	4413      	add	r3, r2
 8001420:	3b41      	subs	r3, #65	; 0x41
 8001422:	fa00 f203 	lsl.w	r2, r0, r3
 8001426:	687b      	ldr	r3, [r7, #4]
 8001428:	681b      	ldr	r3, [r3, #0]
 800142a:	430a      	orrs	r2, r1
 800142c:	62da      	str	r2, [r3, #44]	; 0x2c
  }

    /* Pointer to the common control register to which is belonging hadc    */
    /* (Depending on STM32F4 product, there may be up to 3 ADCs and 1 common */
    /* control register)                                                    */
    tmpADC_Common = ADC_COMMON_REGISTER(hadc);
 800142e:	4b29      	ldr	r3, [pc, #164]	; (80014d4 <HAL_ADC_ConfigChannel+0x250>)
 8001430:	60fb      	str	r3, [r7, #12]

  /* if ADC1 Channel_18 is selected for VBAT Channel ennable VBATE */
  if ((hadc->Instance == ADC1) && (sConfig->Channel == ADC_CHANNEL_VBAT))
 8001432:	687b      	ldr	r3, [r7, #4]
 8001434:	681b      	ldr	r3, [r3, #0]
 8001436:	4a28      	ldr	r2, [pc, #160]	; (80014d8 <HAL_ADC_ConfigChannel+0x254>)
 8001438:	4293      	cmp	r3, r2
 800143a:	d10f      	bne.n	800145c <HAL_ADC_ConfigChannel+0x1d8>
 800143c:	683b      	ldr	r3, [r7, #0]
 800143e:	681b      	ldr	r3, [r3, #0]
 8001440:	2b12      	cmp	r3, #18
 8001442:	d10b      	bne.n	800145c <HAL_ADC_ConfigChannel+0x1d8>
  {
    /* Disable the TEMPSENSOR channel in case of using board with multiplixed ADC_CHANNEL_VBAT & ADC_CHANNEL_TEMPSENSOR*/    
    if ((uint16_t)ADC_CHANNEL_TEMPSENSOR == (uint16_t)ADC_CHANNEL_VBAT)
    {
      tmpADC_Common->CCR &= ~ADC_CCR_TSVREFE;
 8001444:	68fb      	ldr	r3, [r7, #12]
 8001446:	685b      	ldr	r3, [r3, #4]
 8001448:	f423 0200 	bic.w	r2, r3, #8388608	; 0x800000
 800144c:	68fb      	ldr	r3, [r7, #12]
 800144e:	605a      	str	r2, [r3, #4]
    }
    /* Enable the VBAT channel*/
    tmpADC_Common->CCR |= ADC_CCR_VBATE;
 8001450:	68fb      	ldr	r3, [r7, #12]
 8001452:	685b      	ldr	r3, [r3, #4]
 8001454:	f443 0280 	orr.w	r2, r3, #4194304	; 0x400000
 8001458:	68fb      	ldr	r3, [r7, #12]
 800145a:	605a      	str	r2, [r3, #4]
  }
  
  /* if ADC1 Channel_16 or Channel_18 is selected for Temperature sensor or 
     Channel_17 is selected for VREFINT enable TSVREFE */
  if ((hadc->Instance == ADC1) && ((sConfig->Channel == ADC_CHANNEL_TEMPSENSOR) || (sConfig->Channel == ADC_CHANNEL_VREFINT)))
 800145c:	687b      	ldr	r3, [r7, #4]
 800145e:	681b      	ldr	r3, [r3, #0]
 8001460:	4a1d      	ldr	r2, [pc, #116]	; (80014d8 <HAL_ADC_ConfigChannel+0x254>)
 8001462:	4293      	cmp	r3, r2
 8001464:	d12b      	bne.n	80014be <HAL_ADC_ConfigChannel+0x23a>
 8001466:	683b      	ldr	r3, [r7, #0]
 8001468:	681b      	ldr	r3, [r3, #0]
 800146a:	4a1c      	ldr	r2, [pc, #112]	; (80014dc <HAL_ADC_ConfigChannel+0x258>)
 800146c:	4293      	cmp	r3, r2
 800146e:	d003      	beq.n	8001478 <HAL_ADC_ConfigChannel+0x1f4>
 8001470:	683b      	ldr	r3, [r7, #0]
 8001472:	681b      	ldr	r3, [r3, #0]
 8001474:	2b11      	cmp	r3, #17
 8001476:	d122      	bne.n	80014be <HAL_ADC_ConfigChannel+0x23a>
  {
    /* Disable the VBAT channel in case of using board with multiplixed ADC_CHANNEL_VBAT & ADC_CHANNEL_TEMPSENSOR*/
    if ((uint16_t)ADC_CHANNEL_TEMPSENSOR == (uint16_t)ADC_CHANNEL_VBAT)
    {
      tmpADC_Common->CCR &= ~ADC_CCR_VBATE;
 8001478:	68fb      	ldr	r3, [r7, #12]
 800147a:	685b      	ldr	r3, [r3, #4]
 800147c:	f423 0280 	bic.w	r2, r3, #4194304	; 0x400000
 8001480:	68fb      	ldr	r3, [r7, #12]
 8001482:	605a      	str	r2, [r3, #4]
    }
    /* Enable the Temperature sensor and VREFINT channel*/
    tmpADC_Common->CCR |= ADC_CCR_TSVREFE;
 8001484:	68fb      	ldr	r3, [r7, #12]
 8001486:	685b      	ldr	r3, [r3, #4]
 8001488:	f443 0200 	orr.w	r2, r3, #8388608	; 0x800000
 800148c:	68fb      	ldr	r3, [r7, #12]
 800148e:	605a      	str	r2, [r3, #4]
    
    if(sConfig->Channel == ADC_CHANNEL_TEMPSENSOR)
 8001490:	683b      	ldr	r3, [r7, #0]
 8001492:	681b      	ldr	r3, [r3, #0]
 8001494:	4a11      	ldr	r2, [pc, #68]	; (80014dc <HAL_ADC_ConfigChannel+0x258>)
 8001496:	4293      	cmp	r3, r2
 8001498:	d111      	bne.n	80014be <HAL_ADC_ConfigChannel+0x23a>
    {
      /* Delay for temperature sensor stabilization time */
      /* Compute number of CPU cycles to wait for */
      counter = (ADC_TEMPSENSOR_DELAY_US * (SystemCoreClock / 1000000U));
 800149a:	4b11      	ldr	r3, [pc, #68]	; (80014e0 <HAL_ADC_ConfigChannel+0x25c>)
 800149c:	681b      	ldr	r3, [r3, #0]
 800149e:	4a11      	ldr	r2, [pc, #68]	; (80014e4 <HAL_ADC_ConfigChannel+0x260>)
 80014a0:	fba2 2303 	umull	r2, r3, r2, r3
 80014a4:	0c9a      	lsrs	r2, r3, #18
 80014a6:	4613      	mov	r3, r2
 80014a8:	009b      	lsls	r3, r3, #2
 80014aa:	4413      	add	r3, r2
 80014ac:	005b      	lsls	r3, r3, #1
 80014ae:	60bb      	str	r3, [r7, #8]
      while(counter != 0U)
 80014b0:	e002      	b.n	80014b8 <HAL_ADC_ConfigChannel+0x234>
      {
        counter--;
 80014b2:	68bb      	ldr	r3, [r7, #8]
 80014b4:	3b01      	subs	r3, #1
 80014b6:	60bb      	str	r3, [r7, #8]
      while(counter != 0U)
 80014b8:	68bb      	ldr	r3, [r7, #8]
 80014ba:	2b00      	cmp	r3, #0
 80014bc:	d1f9      	bne.n	80014b2 <HAL_ADC_ConfigChannel+0x22e>
      }
    }
  }
  
  /* Process unlocked */
  __HAL_UNLOCK(hadc);
 80014be:	687b      	ldr	r3, [r7, #4]
 80014c0:	2200      	movs	r2, #0
 80014c2:	f883 203c 	strb.w	r2, [r3, #60]	; 0x3c
  
  /* Return function status */
  return HAL_OK;
 80014c6:	2300      	movs	r3, #0
}
 80014c8:	4618      	mov	r0, r3
 80014ca:	3714      	adds	r7, #20
 80014cc:	46bd      	mov	sp, r7
 80014ce:	f85d 7b04 	ldr.w	r7, [sp], #4
 80014d2:	4770      	bx	lr
 80014d4:	40012300 	.word	0x40012300
 80014d8:	40012000 	.word	0x40012000
 80014dc:	10000012 	.word	0x10000012
 80014e0:	20000000 	.word	0x20000000
 80014e4:	431bde83 	.word	0x431bde83

080014e8 <ADC_Init>:
  * @param  hadc pointer to a ADC_HandleTypeDef structure that contains
  *         the configuration information for the specified ADC.  
  * @retval None
  */
static void ADC_Init(ADC_HandleTypeDef* hadc)
{
 80014e8:	b480      	push	{r7}
 80014ea:	b085      	sub	sp, #20
 80014ec:	af00      	add	r7, sp, #0
 80014ee:	6078      	str	r0, [r7, #4]
  
  /* Set ADC parameters */
  /* Pointer to the common control register to which is belonging hadc    */
  /* (Depending on STM32F4 product, there may be up to 3 ADCs and 1 common */
  /* control register)                                                    */
  tmpADC_Common = ADC_COMMON_REGISTER(hadc);
 80014f0:	4b79      	ldr	r3, [pc, #484]	; (80016d8 <ADC_Init+0x1f0>)
 80014f2:	60fb      	str	r3, [r7, #12]
  
  /* Set the ADC clock prescaler */
  tmpADC_Common->CCR &= ~(ADC_CCR_ADCPRE);
 80014f4:	68fb      	ldr	r3, [r7, #12]
 80014f6:	685b      	ldr	r3, [r3, #4]
 80014f8:	f423 3240 	bic.w	r2, r3, #196608	; 0x30000
 80014fc:	68fb      	ldr	r3, [r7, #12]
 80014fe:	605a      	str	r2, [r3, #4]
  tmpADC_Common->CCR |=  hadc->Init.ClockPrescaler;
 8001500:	68fb      	ldr	r3, [r7, #12]
 8001502:	685a      	ldr	r2, [r3, #4]
 8001504:	687b      	ldr	r3, [r7, #4]
 8001506:	685b      	ldr	r3, [r3, #4]
 8001508:	431a      	orrs	r2, r3
 800150a:	68fb      	ldr	r3, [r7, #12]
 800150c:	605a      	str	r2, [r3, #4]
  
  /* Set ADC scan mode */
  hadc->Instance->CR1 &= ~(ADC_CR1_SCAN);
 800150e:	687b      	ldr	r3, [r7, #4]
 8001510:	681b      	ldr	r3, [r3, #0]
 8001512:	685a      	ldr	r2, [r3, #4]
 8001514:	687b      	ldr	r3, [r7, #4]
 8001516:	681b      	ldr	r3, [r3, #0]
 8001518:	f422 7280 	bic.w	r2, r2, #256	; 0x100
 800151c:	605a      	str	r2, [r3, #4]
  hadc->Instance->CR1 |=  ADC_CR1_SCANCONV(hadc->Init.ScanConvMode);
 800151e:	687b      	ldr	r3, [r7, #4]
 8001520:	681b      	ldr	r3, [r3, #0]
 8001522:	6859      	ldr	r1, [r3, #4]
 8001524:	687b      	ldr	r3, [r7, #4]
 8001526:	691b      	ldr	r3, [r3, #16]
 8001528:	021a      	lsls	r2, r3, #8
 800152a:	687b      	ldr	r3, [r7, #4]
 800152c:	681b      	ldr	r3, [r3, #0]
 800152e:	430a      	orrs	r2, r1
 8001530:	605a      	str	r2, [r3, #4]
  
  /* Set ADC resolution */
  hadc->Instance->CR1 &= ~(ADC_CR1_RES);
 8001532:	687b      	ldr	r3, [r7, #4]
 8001534:	681b      	ldr	r3, [r3, #0]
 8001536:	685a      	ldr	r2, [r3, #4]
 8001538:	687b      	ldr	r3, [r7, #4]
 800153a:	681b      	ldr	r3, [r3, #0]
 800153c:	f022 7240 	bic.w	r2, r2, #50331648	; 0x3000000
 8001540:	605a      	str	r2, [r3, #4]
  hadc->Instance->CR1 |=  hadc->Init.Resolution;
 8001542:	687b      	ldr	r3, [r7, #4]
 8001544:	681b      	ldr	r3, [r3, #0]
 8001546:	6859      	ldr	r1, [r3, #4]
 8001548:	687b      	ldr	r3, [r7, #4]
 800154a:	689a      	ldr	r2, [r3, #8]
 800154c:	687b      	ldr	r3, [r7, #4]
 800154e:	681b      	ldr	r3, [r3, #0]
 8001550:	430a      	orrs	r2, r1
 8001552:	605a      	str	r2, [r3, #4]
  
  /* Set ADC data alignment */
  hadc->Instance->CR2 &= ~(ADC_CR2_ALIGN);
 8001554:	687b      	ldr	r3, [r7, #4]
 8001556:	681b      	ldr	r3, [r3, #0]
 8001558:	689a      	ldr	r2, [r3, #8]
 800155a:	687b      	ldr	r3, [r7, #4]
 800155c:	681b      	ldr	r3, [r3, #0]
 800155e:	f422 6200 	bic.w	r2, r2, #2048	; 0x800
 8001562:	609a      	str	r2, [r3, #8]
  hadc->Instance->CR2 |= hadc->Init.DataAlign;
 8001564:	687b      	ldr	r3, [r7, #4]
 8001566:	681b      	ldr	r3, [r3, #0]
 8001568:	6899      	ldr	r1, [r3, #8]
 800156a:	687b      	ldr	r3, [r7, #4]
 800156c:	68da      	ldr	r2, [r3, #12]
 800156e:	687b      	ldr	r3, [r7, #4]
 8001570:	681b      	ldr	r3, [r3, #0]
 8001572:	430a      	orrs	r2, r1
 8001574:	609a      	str	r2, [r3, #8]
  /* Enable external trigger if trigger selection is different of software  */
  /* start.                                                                 */
  /* Note: This configuration keeps the hardware feature of parameter       */
  /*       ExternalTrigConvEdge "trigger edge none" equivalent to           */
  /*       software start.                                                  */
  if(hadc->Init.ExternalTrigConv != ADC_SOFTWARE_START)
 8001576:	687b      	ldr	r3, [r7, #4]
 8001578:	6a9b      	ldr	r3, [r3, #40]	; 0x28
 800157a:	4a58      	ldr	r2, [pc, #352]	; (80016dc <ADC_Init+0x1f4>)
 800157c:	4293      	cmp	r3, r2
 800157e:	d022      	beq.n	80015c6 <ADC_Init+0xde>
  {
    /* Select external trigger to start conversion */
    hadc->Instance->CR2 &= ~(ADC_CR2_EXTSEL);
 8001580:	687b      	ldr	r3, [r7, #4]
 8001582:	681b      	ldr	r3, [r3, #0]
 8001584:	689a      	ldr	r2, [r3, #8]
 8001586:	687b      	ldr	r3, [r7, #4]
 8001588:	681b      	ldr	r3, [r3, #0]
 800158a:	f022 6270 	bic.w	r2, r2, #251658240	; 0xf000000
 800158e:	609a      	str	r2, [r3, #8]
    hadc->Instance->CR2 |= hadc->Init.ExternalTrigConv;
 8001590:	687b      	ldr	r3, [r7, #4]
 8001592:	681b      	ldr	r3, [r3, #0]
 8001594:	6899      	ldr	r1, [r3, #8]
 8001596:	687b      	ldr	r3, [r7, #4]
 8001598:	6a9a      	ldr	r2, [r3, #40]	; 0x28
 800159a:	687b      	ldr	r3, [r7, #4]
 800159c:	681b      	ldr	r3, [r3, #0]
 800159e:	430a      	orrs	r2, r1
 80015a0:	609a      	str	r2, [r3, #8]
    
    /* Select external trigger polarity */
    hadc->Instance->CR2 &= ~(ADC_CR2_EXTEN);
 80015a2:	687b      	ldr	r3, [r7, #4]
 80015a4:	681b      	ldr	r3, [r3, #0]
 80015a6:	689a      	ldr	r2, [r3, #8]
 80015a8:	687b      	ldr	r3, [r7, #4]
 80015aa:	681b      	ldr	r3, [r3, #0]
 80015ac:	f022 5240 	bic.w	r2, r2, #805306368	; 0x30000000
 80015b0:	609a      	str	r2, [r3, #8]
    hadc->Instance->CR2 |= hadc->Init.ExternalTrigConvEdge;
 80015b2:	687b      	ldr	r3, [r7, #4]
 80015b4:	681b      	ldr	r3, [r3, #0]
 80015b6:	6899      	ldr	r1, [r3, #8]
 80015b8:	687b      	ldr	r3, [r7, #4]
 80015ba:	6ada      	ldr	r2, [r3, #44]	; 0x2c
 80015bc:	687b      	ldr	r3, [r7, #4]
 80015be:	681b      	ldr	r3, [r3, #0]
 80015c0:	430a      	orrs	r2, r1
 80015c2:	609a      	str	r2, [r3, #8]
 80015c4:	e00f      	b.n	80015e6 <ADC_Init+0xfe>
  }
  else
  {
    /* Reset the external trigger */
    hadc->Instance->CR2 &= ~(ADC_CR2_EXTSEL);
 80015c6:	687b      	ldr	r3, [r7, #4]
 80015c8:	681b      	ldr	r3, [r3, #0]
 80015ca:	689a      	ldr	r2, [r3, #8]
 80015cc:	687b      	ldr	r3, [r7, #4]
 80015ce:	681b      	ldr	r3, [r3, #0]
 80015d0:	f022 6270 	bic.w	r2, r2, #251658240	; 0xf000000
 80015d4:	609a      	str	r2, [r3, #8]
    hadc->Instance->CR2 &= ~(ADC_CR2_EXTEN);
 80015d6:	687b      	ldr	r3, [r7, #4]
 80015d8:	681b      	ldr	r3, [r3, #0]
 80015da:	689a      	ldr	r2, [r3, #8]
 80015dc:	687b      	ldr	r3, [r7, #4]
 80015de:	681b      	ldr	r3, [r3, #0]
 80015e0:	f022 5240 	bic.w	r2, r2, #805306368	; 0x30000000
 80015e4:	609a      	str	r2, [r3, #8]
  }
  
  /* Enable or disable ADC continuous conversion mode */
  hadc->Instance->CR2 &= ~(ADC_CR2_CONT);
 80015e6:	687b      	ldr	r3, [r7, #4]
 80015e8:	681b      	ldr	r3, [r3, #0]
 80015ea:	689a      	ldr	r2, [r3, #8]
 80015ec:	687b      	ldr	r3, [r7, #4]
 80015ee:	681b      	ldr	r3, [r3, #0]
 80015f0:	f022 0202 	bic.w	r2, r2, #2
 80015f4:	609a      	str	r2, [r3, #8]
  hadc->Instance->CR2 |= ADC_CR2_CONTINUOUS((uint32_t)hadc->Init.ContinuousConvMode);
 80015f6:	687b      	ldr	r3, [r7, #4]
 80015f8:	681b      	ldr	r3, [r3, #0]
 80015fa:	6899      	ldr	r1, [r3, #8]
 80015fc:	687b      	ldr	r3, [r7, #4]
 80015fe:	7e1b      	ldrb	r3, [r3, #24]
 8001600:	005a      	lsls	r2, r3, #1
 8001602:	687b      	ldr	r3, [r7, #4]
 8001604:	681b      	ldr	r3, [r3, #0]
 8001606:	430a      	orrs	r2, r1
 8001608:	609a      	str	r2, [r3, #8]
  
  if(hadc->Init.DiscontinuousConvMode != DISABLE)
 800160a:	687b      	ldr	r3, [r7, #4]
 800160c:	f893 3020 	ldrb.w	r3, [r3, #32]
 8001610:	2b00      	cmp	r3, #0
 8001612:	d01b      	beq.n	800164c <ADC_Init+0x164>
  {
    assert_param(IS_ADC_REGULAR_DISC_NUMBER(hadc->Init.NbrOfDiscConversion));
  
    /* Enable the selected ADC regular discontinuous mode */
    hadc->Instance->CR1 |= (uint32_t)ADC_CR1_DISCEN;
 8001614:	687b      	ldr	r3, [r7, #4]
 8001616:	681b      	ldr	r3, [r3, #0]
 8001618:	685a      	ldr	r2, [r3, #4]
 800161a:	687b      	ldr	r3, [r7, #4]
 800161c:	681b      	ldr	r3, [r3, #0]
 800161e:	f442 6200 	orr.w	r2, r2, #2048	; 0x800
 8001622:	605a      	str	r2, [r3, #4]
    
    /* Set the number of channels to be converted in discontinuous mode */
    hadc->Instance->CR1 &= ~(ADC_CR1_DISCNUM);
 8001624:	687b      	ldr	r3, [r7, #4]
 8001626:	681b      	ldr	r3, [r3, #0]
 8001628:	685a      	ldr	r2, [r3, #4]
 800162a:	687b      	ldr	r3, [r7, #4]
 800162c:	681b      	ldr	r3, [r3, #0]
 800162e:	f422 4260 	bic.w	r2, r2, #57344	; 0xe000
 8001632:	605a      	str	r2, [r3, #4]
    hadc->Instance->CR1 |=  ADC_CR1_DISCONTINUOUS(hadc->Init.NbrOfDiscConversion);
 8001634:	687b      	ldr	r3, [r7, #4]
 8001636:	681b      	ldr	r3, [r3, #0]
 8001638:	6859      	ldr	r1, [r3, #4]
 800163a:	687b      	ldr	r3, [r7, #4]
 800163c:	6a5b      	ldr	r3, [r3, #36]	; 0x24
 800163e:	3b01      	subs	r3, #1
 8001640:	035a      	lsls	r2, r3, #13
 8001642:	687b      	ldr	r3, [r7, #4]
 8001644:	681b      	ldr	r3, [r3, #0]
 8001646:	430a      	orrs	r2, r1
 8001648:	605a      	str	r2, [r3, #4]
 800164a:	e007      	b.n	800165c <ADC_Init+0x174>
  }
  else
  {
    /* Disable the selected ADC regular discontinuous mode */
    hadc->Instance->CR1 &= ~(ADC_CR1_DISCEN);
 800164c:	687b      	ldr	r3, [r7, #4]
 800164e:	681b      	ldr	r3, [r3, #0]
 8001650:	685a      	ldr	r2, [r3, #4]
 8001652:	687b      	ldr	r3, [r7, #4]
 8001654:	681b      	ldr	r3, [r3, #0]
 8001656:	f422 6200 	bic.w	r2, r2, #2048	; 0x800
 800165a:	605a      	str	r2, [r3, #4]
  }
  
  /* Set ADC number of conversion */
  hadc->Instance->SQR1 &= ~(ADC_SQR1_L);
 800165c:	687b      	ldr	r3, [r7, #4]
 800165e:	681b      	ldr	r3, [r3, #0]
 8001660:	6ada      	ldr	r2, [r3, #44]	; 0x2c
 8001662:	687b      	ldr	r3, [r7, #4]
 8001664:	681b      	ldr	r3, [r3, #0]
 8001666:	f422 0270 	bic.w	r2, r2, #15728640	; 0xf00000
 800166a:	62da      	str	r2, [r3, #44]	; 0x2c
  hadc->Instance->SQR1 |=  ADC_SQR1(hadc->Init.NbrOfConversion);
 800166c:	687b      	ldr	r3, [r7, #4]
 800166e:	681b      	ldr	r3, [r3, #0]
 8001670:	6ad9      	ldr	r1, [r3, #44]	; 0x2c
 8001672:	687b      	ldr	r3, [r7, #4]
 8001674:	69db      	ldr	r3, [r3, #28]
 8001676:	3b01      	subs	r3, #1
 8001678:	051a      	lsls	r2, r3, #20
 800167a:	687b      	ldr	r3, [r7, #4]
 800167c:	681b      	ldr	r3, [r3, #0]
 800167e:	430a      	orrs	r2, r1
 8001680:	62da      	str	r2, [r3, #44]	; 0x2c
  
  /* Enable or disable ADC DMA continuous request */
  hadc->Instance->CR2 &= ~(ADC_CR2_DDS);
 8001682:	687b      	ldr	r3, [r7, #4]
 8001684:	681b      	ldr	r3, [r3, #0]
 8001686:	689a      	ldr	r2, [r3, #8]
 8001688:	687b      	ldr	r3, [r7, #4]
 800168a:	681b      	ldr	r3, [r3, #0]
 800168c:	f422 7200 	bic.w	r2, r2, #512	; 0x200
 8001690:	609a      	str	r2, [r3, #8]
  hadc->Instance->CR2 |= ADC_CR2_DMAContReq((uint32_t)hadc->Init.DMAContinuousRequests);
 8001692:	687b      	ldr	r3, [r7, #4]
 8001694:	681b      	ldr	r3, [r3, #0]
 8001696:	6899      	ldr	r1, [r3, #8]
 8001698:	687b      	ldr	r3, [r7, #4]
 800169a:	f893 3030 	ldrb.w	r3, [r3, #48]	; 0x30
 800169e:	025a      	lsls	r2, r3, #9
 80016a0:	687b      	ldr	r3, [r7, #4]
 80016a2:	681b      	ldr	r3, [r3, #0]
 80016a4:	430a      	orrs	r2, r1
 80016a6:	609a      	str	r2, [r3, #8]
  
  /* Enable or disable ADC end of conversion selection */
  hadc->Instance->CR2 &= ~(ADC_CR2_EOCS);
 80016a8:	687b      	ldr	r3, [r7, #4]
 80016aa:	681b      	ldr	r3, [r3, #0]
 80016ac:	689a      	ldr	r2, [r3, #8]
 80016ae:	687b      	ldr	r3, [r7, #4]
 80016b0:	681b      	ldr	r3, [r3, #0]
 80016b2:	f422 6280 	bic.w	r2, r2, #1024	; 0x400
 80016b6:	609a      	str	r2, [r3, #8]
  hadc->Instance->CR2 |= ADC_CR2_EOCSelection(hadc->Init.EOCSelection);
 80016b8:	687b      	ldr	r3, [r7, #4]
 80016ba:	681b      	ldr	r3, [r3, #0]
 80016bc:	6899      	ldr	r1, [r3, #8]
 80016be:	687b      	ldr	r3, [r7, #4]
 80016c0:	695b      	ldr	r3, [r3, #20]
 80016c2:	029a      	lsls	r2, r3, #10
 80016c4:	687b      	ldr	r3, [r7, #4]
 80016c6:	681b      	ldr	r3, [r3, #0]
 80016c8:	430a      	orrs	r2, r1
 80016ca:	609a      	str	r2, [r3, #8]
}
 80016cc:	bf00      	nop
 80016ce:	3714      	adds	r7, #20
 80016d0:	46bd      	mov	sp, r7
 80016d2:	f85d 7b04 	ldr.w	r7, [sp], #4
 80016d6:	4770      	bx	lr
 80016d8:	40012300 	.word	0x40012300
 80016dc:	0f000001 	.word	0x0f000001

080016e0 <__NVIC_SetPriorityGrouping>:
           In case of a conflict between priority grouping and available
           priority bits (__NVIC_PRIO_BITS), the smallest possible priority group is set.
  \param [in]      PriorityGroup  Priority grouping field.
 */
__STATIC_INLINE void __NVIC_SetPriorityGrouping(uint32_t PriorityGroup)
{
 80016e0:	b480      	push	{r7}
 80016e2:	b085      	sub	sp, #20
 80016e4:	af00      	add	r7, sp, #0
 80016e6:	6078      	str	r0, [r7, #4]
  uint32_t reg_value;
  uint32_t PriorityGroupTmp = (PriorityGroup & (uint32_t)0x07UL);             /* only values 0..7 are used          */
 80016e8:	687b      	ldr	r3, [r7, #4]
 80016ea:	f003 0307 	and.w	r3, r3, #7
 80016ee:	60fb      	str	r3, [r7, #12]

  reg_value  =  SCB->AIRCR;                                                   /* read old register configuration    */
 80016f0:	4b0c      	ldr	r3, [pc, #48]	; (8001724 <__NVIC_SetPriorityGrouping+0x44>)
 80016f2:	68db      	ldr	r3, [r3, #12]
 80016f4:	60bb      	str	r3, [r7, #8]
  reg_value &= ~((uint32_t)(SCB_AIRCR_VECTKEY_Msk | SCB_AIRCR_PRIGROUP_Msk)); /* clear bits to change               */
 80016f6:	68ba      	ldr	r2, [r7, #8]
 80016f8:	f64f 03ff 	movw	r3, #63743	; 0xf8ff
 80016fc:	4013      	ands	r3, r2
 80016fe:	60bb      	str	r3, [r7, #8]
  reg_value  =  (reg_value                                   |
                ((uint32_t)0x5FAUL << SCB_AIRCR_VECTKEY_Pos) |
                (PriorityGroupTmp << SCB_AIRCR_PRIGROUP_Pos)  );              /* Insert write key and priority group */
 8001700:	68fb      	ldr	r3, [r7, #12]
 8001702:	021a      	lsls	r2, r3, #8
                ((uint32_t)0x5FAUL << SCB_AIRCR_VECTKEY_Pos) |
 8001704:	68bb      	ldr	r3, [r7, #8]
 8001706:	4313      	orrs	r3, r2
  reg_value  =  (reg_value                                   |
 8001708:	f043 63bf 	orr.w	r3, r3, #100139008	; 0x5f80000
 800170c:	f443 3300 	orr.w	r3, r3, #131072	; 0x20000
 8001710:	60bb      	str	r3, [r7, #8]
  SCB->AIRCR =  reg_value;
 8001712:	4a04      	ldr	r2, [pc, #16]	; (8001724 <__NVIC_SetPriorityGrouping+0x44>)
 8001714:	68bb      	ldr	r3, [r7, #8]
 8001716:	60d3      	str	r3, [r2, #12]
}
 8001718:	bf00      	nop
 800171a:	3714      	adds	r7, #20
 800171c:	46bd      	mov	sp, r7
 800171e:	f85d 7b04 	ldr.w	r7, [sp], #4
 8001722:	4770      	bx	lr
 8001724:	e000ed00 	.word	0xe000ed00

08001728 <__NVIC_GetPriorityGrouping>:
  \brief   Get Priority Grouping
  \details Reads the priority grouping field from the NVIC Interrupt Controller.
  \return                Priority grouping field (SCB->AIRCR [10:8] PRIGROUP field).
 */
__STATIC_INLINE uint32_t __NVIC_GetPriorityGrouping(void)
{
 8001728:	b480      	push	{r7}
 800172a:	af00      	add	r7, sp, #0
  return ((uint32_t)((SCB->AIRCR & SCB_AIRCR_PRIGROUP_Msk) >> SCB_AIRCR_PRIGROUP_Pos));
 800172c:	4b04      	ldr	r3, [pc, #16]	; (8001740 <__NVIC_GetPriorityGrouping+0x18>)
 800172e:	68db      	ldr	r3, [r3, #12]
 8001730:	0a1b      	lsrs	r3, r3, #8
 8001732:	f003 0307 	and.w	r3, r3, #7
}
 8001736:	4618      	mov	r0, r3
 8001738:	46bd      	mov	sp, r7
 800173a:	f85d 7b04 	ldr.w	r7, [sp], #4
 800173e:	4770      	bx	lr
 8001740:	e000ed00 	.word	0xe000ed00

08001744 <__NVIC_EnableIRQ>:
  \details Enables a device specific interrupt in the NVIC interrupt controller.
  \param [in]      IRQn  Device specific interrupt number.
  \note    IRQn must not be negative.
 */
__STATIC_INLINE void __NVIC_EnableIRQ(IRQn_Type IRQn)
{
 8001744:	b480      	push	{r7}
 8001746:	b083      	sub	sp, #12
 8001748:	af00      	add	r7, sp, #0
 800174a:	4603      	mov	r3, r0
 800174c:	71fb      	strb	r3, [r7, #7]
  if ((int32_t)(IRQn) >= 0)
 800174e:	f997 3007 	ldrsb.w	r3, [r7, #7]
 8001752:	2b00      	cmp	r3, #0
 8001754:	db0b      	blt.n	800176e <__NVIC_EnableIRQ+0x2a>
  {
    NVIC->ISER[(((uint32_t)IRQn) >> 5UL)] = (uint32_t)(1UL << (((uint32_t)IRQn) & 0x1FUL));
 8001756:	79fb      	ldrb	r3, [r7, #7]
 8001758:	f003 021f 	and.w	r2, r3, #31
 800175c:	4907      	ldr	r1, [pc, #28]	; (800177c <__NVIC_EnableIRQ+0x38>)
 800175e:	f997 3007 	ldrsb.w	r3, [r7, #7]
 8001762:	095b      	lsrs	r3, r3, #5
 8001764:	2001      	movs	r0, #1
 8001766:	fa00 f202 	lsl.w	r2, r0, r2
 800176a:	f841 2023 	str.w	r2, [r1, r3, lsl #2]
  }
}
 800176e:	bf00      	nop
 8001770:	370c      	adds	r7, #12
 8001772:	46bd      	mov	sp, r7
 8001774:	f85d 7b04 	ldr.w	r7, [sp], #4
 8001778:	4770      	bx	lr
 800177a:	bf00      	nop
 800177c:	e000e100 	.word	0xe000e100

08001780 <__NVIC_SetPriority>:
  \param [in]      IRQn  Interrupt number.
  \param [in]  priority  Priority to set.
  \note    The priority cannot be set for every processor exception.
 */
__STATIC_INLINE void __NVIC_SetPriority(IRQn_Type IRQn, uint32_t priority)
{
 8001780:	b480      	push	{r7}
 8001782:	b083      	sub	sp, #12
 8001784:	af00      	add	r7, sp, #0
 8001786:	4603      	mov	r3, r0
 8001788:	6039      	str	r1, [r7, #0]
 800178a:	71fb      	strb	r3, [r7, #7]
  if ((int32_t)(IRQn) >= 0)
 800178c:	f997 3007 	ldrsb.w	r3, [r7, #7]
 8001790:	2b00      	cmp	r3, #0
 8001792:	db0a      	blt.n	80017aa <__NVIC_SetPriority+0x2a>
  {
    NVIC->IP[((uint32_t)IRQn)]               = (uint8_t)((priority << (8U - __NVIC_PRIO_BITS)) & (uint32_t)0xFFUL);
 8001794:	683b      	ldr	r3, [r7, #0]
 8001796:	b2da      	uxtb	r2, r3
 8001798:	490c      	ldr	r1, [pc, #48]	; (80017cc <__NVIC_SetPriority+0x4c>)
 800179a:	f997 3007 	ldrsb.w	r3, [r7, #7]
 800179e:	0112      	lsls	r2, r2, #4
 80017a0:	b2d2      	uxtb	r2, r2
 80017a2:	440b      	add	r3, r1
 80017a4:	f883 2300 	strb.w	r2, [r3, #768]	; 0x300
  }
  else
  {
    SCB->SHP[(((uint32_t)IRQn) & 0xFUL)-4UL] = (uint8_t)((priority << (8U - __NVIC_PRIO_BITS)) & (uint32_t)0xFFUL);
  }
}
 80017a8:	e00a      	b.n	80017c0 <__NVIC_SetPriority+0x40>
    SCB->SHP[(((uint32_t)IRQn) & 0xFUL)-4UL] = (uint8_t)((priority << (8U - __NVIC_PRIO_BITS)) & (uint32_t)0xFFUL);
 80017aa:	683b      	ldr	r3, [r7, #0]
 80017ac:	b2da      	uxtb	r2, r3
 80017ae:	4908      	ldr	r1, [pc, #32]	; (80017d0 <__NVIC_SetPriority+0x50>)
 80017b0:	79fb      	ldrb	r3, [r7, #7]
 80017b2:	f003 030f 	and.w	r3, r3, #15
 80017b6:	3b04      	subs	r3, #4
 80017b8:	0112      	lsls	r2, r2, #4
 80017ba:	b2d2      	uxtb	r2, r2
 80017bc:	440b      	add	r3, r1
 80017be:	761a      	strb	r2, [r3, #24]
}
 80017c0:	bf00      	nop
 80017c2:	370c      	adds	r7, #12
 80017c4:	46bd      	mov	sp, r7
 80017c6:	f85d 7b04 	ldr.w	r7, [sp], #4
 80017ca:	4770      	bx	lr
 80017cc:	e000e100 	.word	0xe000e100
 80017d0:	e000ed00 	.word	0xe000ed00

080017d4 <NVIC_EncodePriority>:
  \param [in]   PreemptPriority  Preemptive priority value (starting from 0).
  \param [in]       SubPriority  Subpriority value (starting from 0).
  \return                        Encoded priority. Value can be used in the function \ref NVIC_SetPriority().
 */
__STATIC_INLINE uint32_t NVIC_EncodePriority (uint32_t PriorityGroup, uint32_t PreemptPriority, uint32_t SubPriority)
{
 80017d4:	b480      	push	{r7}
 80017d6:	b089      	sub	sp, #36	; 0x24
 80017d8:	af00      	add	r7, sp, #0
 80017da:	60f8      	str	r0, [r7, #12]
 80017dc:	60b9      	str	r1, [r7, #8]
 80017de:	607a      	str	r2, [r7, #4]
  uint32_t PriorityGroupTmp = (PriorityGroup & (uint32_t)0x07UL);   /* only values 0..7 are used          */
 80017e0:	68fb      	ldr	r3, [r7, #12]
 80017e2:	f003 0307 	and.w	r3, r3, #7
 80017e6:	61fb      	str	r3, [r7, #28]
  uint32_t PreemptPriorityBits;
  uint32_t SubPriorityBits;

  PreemptPriorityBits = ((7UL - PriorityGroupTmp) > (uint32_t)(__NVIC_PRIO_BITS)) ? (uint32_t)(__NVIC_PRIO_BITS) : (uint32_t)(7UL - PriorityGroupTmp);
 80017e8:	69fb      	ldr	r3, [r7, #28]
 80017ea:	f1c3 0307 	rsb	r3, r3, #7
 80017ee:	2b04      	cmp	r3, #4
 80017f0:	bf28      	it	cs
 80017f2:	2304      	movcs	r3, #4
 80017f4:	61bb      	str	r3, [r7, #24]
  SubPriorityBits     = ((PriorityGroupTmp + (uint32_t)(__NVIC_PRIO_BITS)) < (uint32_t)7UL) ? (uint32_t)0UL : (uint32_t)((PriorityGroupTmp - 7UL) + (uint32_t)(__NVIC_PRIO_BITS));
 80017f6:	69fb      	ldr	r3, [r7, #28]
 80017f8:	3304      	adds	r3, #4
 80017fa:	2b06      	cmp	r3, #6
 80017fc:	d902      	bls.n	8001804 <NVIC_EncodePriority+0x30>
 80017fe:	69fb      	ldr	r3, [r7, #28]
 8001800:	3b03      	subs	r3, #3
 8001802:	e000      	b.n	8001806 <NVIC_EncodePriority+0x32>
 8001804:	2300      	movs	r3, #0
 8001806:	617b      	str	r3, [r7, #20]

  return (
           ((PreemptPriority & (uint32_t)((1UL << (PreemptPriorityBits)) - 1UL)) << SubPriorityBits) |
 8001808:	f04f 32ff 	mov.w	r2, #4294967295	; 0xffffffff
 800180c:	69bb      	ldr	r3, [r7, #24]
 800180e:	fa02 f303 	lsl.w	r3, r2, r3
 8001812:	43da      	mvns	r2, r3
 8001814:	68bb      	ldr	r3, [r7, #8]
 8001816:	401a      	ands	r2, r3
 8001818:	697b      	ldr	r3, [r7, #20]
 800181a:	409a      	lsls	r2, r3
           ((SubPriority     & (uint32_t)((1UL << (SubPriorityBits    )) - 1UL)))
 800181c:	f04f 31ff 	mov.w	r1, #4294967295	; 0xffffffff
 8001820:	697b      	ldr	r3, [r7, #20]
 8001822:	fa01 f303 	lsl.w	r3, r1, r3
 8001826:	43d9      	mvns	r1, r3
 8001828:	687b      	ldr	r3, [r7, #4]
 800182a:	400b      	ands	r3, r1
           ((PreemptPriority & (uint32_t)((1UL << (PreemptPriorityBits)) - 1UL)) << SubPriorityBits) |
 800182c:	4313      	orrs	r3, r2
         );
}
 800182e:	4618      	mov	r0, r3
 8001830:	3724      	adds	r7, #36	; 0x24
 8001832:	46bd      	mov	sp, r7
 8001834:	f85d 7b04 	ldr.w	r7, [sp], #4
 8001838:	4770      	bx	lr
	...

0800183c <SysTick_Config>:
  \note    When the variable <b>__Vendor_SysTickConfig</b> is set to 1, then the
           function <b>SysTick_Config</b> is not included. In this case, the file <b><i>device</i>.h</b>
           must contain a vendor-specific implementation of this function.
 */
__STATIC_INLINE uint32_t SysTick_Config(uint32_t ticks)
{
 800183c:	b580      	push	{r7, lr}
 800183e:	b082      	sub	sp, #8
 8001840:	af00      	add	r7, sp, #0
 8001842:	6078      	str	r0, [r7, #4]
  if ((ticks - 1UL) > SysTick_LOAD_RELOAD_Msk)
 8001844:	687b      	ldr	r3, [r7, #4]
 8001846:	3b01      	subs	r3, #1
 8001848:	f1b3 7f80 	cmp.w	r3, #16777216	; 0x1000000
 800184c:	d301      	bcc.n	8001852 <SysTick_Config+0x16>
  {
    return (1UL);                                                   /* Reload value impossible */
 800184e:	2301      	movs	r3, #1
 8001850:	e00f      	b.n	8001872 <SysTick_Config+0x36>
  }

  SysTick->LOAD  = (uint32_t)(ticks - 1UL);                         /* set reload register */
 8001852:	4a0a      	ldr	r2, [pc, #40]	; (800187c <SysTick_Config+0x40>)
 8001854:	687b      	ldr	r3, [r7, #4]
 8001856:	3b01      	subs	r3, #1
 8001858:	6053      	str	r3, [r2, #4]
  NVIC_SetPriority (SysTick_IRQn, (1UL << __NVIC_PRIO_BITS) - 1UL); /* set Priority for Systick Interrupt */
 800185a:	210f      	movs	r1, #15
 800185c:	f04f 30ff 	mov.w	r0, #4294967295	; 0xffffffff
 8001860:	f7ff ff8e 	bl	8001780 <__NVIC_SetPriority>
  SysTick->VAL   = 0UL;                                             /* Load the SysTick Counter Value */
 8001864:	4b05      	ldr	r3, [pc, #20]	; (800187c <SysTick_Config+0x40>)
 8001866:	2200      	movs	r2, #0
 8001868:	609a      	str	r2, [r3, #8]
  SysTick->CTRL  = SysTick_CTRL_CLKSOURCE_Msk |
 800186a:	4b04      	ldr	r3, [pc, #16]	; (800187c <SysTick_Config+0x40>)
 800186c:	2207      	movs	r2, #7
 800186e:	601a      	str	r2, [r3, #0]
                   SysTick_CTRL_TICKINT_Msk   |
                   SysTick_CTRL_ENABLE_Msk;                         /* Enable SysTick IRQ and SysTick Timer */
  return (0UL);                                                     /* Function successful */
 8001870:	2300      	movs	r3, #0
}
 8001872:	4618      	mov	r0, r3
 8001874:	3708      	adds	r7, #8
 8001876:	46bd      	mov	sp, r7
 8001878:	bd80      	pop	{r7, pc}
 800187a:	bf00      	nop
 800187c:	e000e010 	.word	0xe000e010

08001880 <HAL_NVIC_SetPriorityGrouping>:
  * @note   When the NVIC_PriorityGroup_0 is selected, IRQ preemption is no more possible. 
  *         The pending IRQ priority will be managed only by the subpriority. 
  * @retval None
  */
void HAL_NVIC_SetPriorityGrouping(uint32_t PriorityGroup)
{
 8001880:	b580      	push	{r7, lr}
 8001882:	b082      	sub	sp, #8
 8001884:	af00      	add	r7, sp, #0
 8001886:	6078      	str	r0, [r7, #4]
  /* Check the parameters */
  assert_param(IS_NVIC_PRIORITY_GROUP(PriorityGroup));
  
  /* Set the PRIGROUP[10:8] bits according to the PriorityGroup parameter value */
  NVIC_SetPriorityGrouping(PriorityGroup);
 8001888:	6878      	ldr	r0, [r7, #4]
 800188a:	f7ff ff29 	bl	80016e0 <__NVIC_SetPriorityGrouping>
}
 800188e:	bf00      	nop
 8001890:	3708      	adds	r7, #8
 8001892:	46bd      	mov	sp, r7
 8001894:	bd80      	pop	{r7, pc}

08001896 <HAL_NVIC_SetPriority>:
  *         This parameter can be a value between 0 and 15
  *         A lower priority value indicates a higher priority.          
  * @retval None
  */
void HAL_NVIC_SetPriority(IRQn_Type IRQn, uint32_t PreemptPriority, uint32_t SubPriority)
{ 
 8001896:	b580      	push	{r7, lr}
 8001898:	b086      	sub	sp, #24
 800189a:	af00      	add	r7, sp, #0
 800189c:	4603      	mov	r3, r0
 800189e:	60b9      	str	r1, [r7, #8]
 80018a0:	607a      	str	r2, [r7, #4]
 80018a2:	73fb      	strb	r3, [r7, #15]
  uint32_t prioritygroup = 0x00U;
 80018a4:	2300      	movs	r3, #0
 80018a6:	617b      	str	r3, [r7, #20]
  
  /* Check the parameters */
  assert_param(IS_NVIC_SUB_PRIORITY(SubPriority));
  assert_param(IS_NVIC_PREEMPTION_PRIORITY(PreemptPriority));
  
  prioritygroup = NVIC_GetPriorityGrouping();
 80018a8:	f7ff ff3e 	bl	8001728 <__NVIC_GetPriorityGrouping>
 80018ac:	6178      	str	r0, [r7, #20]
  
  NVIC_SetPriority(IRQn, NVIC_EncodePriority(prioritygroup, PreemptPriority, SubPriority));
 80018ae:	687a      	ldr	r2, [r7, #4]
 80018b0:	68b9      	ldr	r1, [r7, #8]
 80018b2:	6978      	ldr	r0, [r7, #20]
 80018b4:	f7ff ff8e 	bl	80017d4 <NVIC_EncodePriority>
 80018b8:	4602      	mov	r2, r0
 80018ba:	f997 300f 	ldrsb.w	r3, [r7, #15]
 80018be:	4611      	mov	r1, r2
 80018c0:	4618      	mov	r0, r3
 80018c2:	f7ff ff5d 	bl	8001780 <__NVIC_SetPriority>
}
 80018c6:	bf00      	nop
 80018c8:	3718      	adds	r7, #24
 80018ca:	46bd      	mov	sp, r7
 80018cc:	bd80      	pop	{r7, pc}

080018ce <HAL_NVIC_EnableIRQ>:
  *         This parameter can be an enumerator of IRQn_Type enumeration
  *         (For the complete STM32 Devices IRQ Channels list, please refer to the appropriate CMSIS device file (stm32f4xxxx.h))
  * @retval None
  */
void HAL_NVIC_EnableIRQ(IRQn_Type IRQn)
{
 80018ce:	b580      	push	{r7, lr}
 80018d0:	b082      	sub	sp, #8
 80018d2:	af00      	add	r7, sp, #0
 80018d4:	4603      	mov	r3, r0
 80018d6:	71fb      	strb	r3, [r7, #7]
  /* Check the parameters */
  assert_param(IS_NVIC_DEVICE_IRQ(IRQn));
  
  /* Enable interrupt */
  NVIC_EnableIRQ(IRQn);
 80018d8:	f997 3007 	ldrsb.w	r3, [r7, #7]
 80018dc:	4618      	mov	r0, r3
 80018de:	f7ff ff31 	bl	8001744 <__NVIC_EnableIRQ>
}
 80018e2:	bf00      	nop
 80018e4:	3708      	adds	r7, #8
 80018e6:	46bd      	mov	sp, r7
 80018e8:	bd80      	pop	{r7, pc}

080018ea <HAL_SYSTICK_Config>:
  * @param  TicksNumb Specifies the ticks Number of ticks between two interrupts.
  * @retval status:  - 0  Function succeeded.
  *                  - 1  Function failed.
  */
uint32_t HAL_SYSTICK_Config(uint32_t TicksNumb)
{
 80018ea:	b580      	push	{r7, lr}
 80018ec:	b082      	sub	sp, #8
 80018ee:	af00      	add	r7, sp, #0
 80018f0:	6078      	str	r0, [r7, #4]
   return SysTick_Config(TicksNumb);
 80018f2:	6878      	ldr	r0, [r7, #4]
 80018f4:	f7ff ffa2 	bl	800183c <SysTick_Config>
 80018f8:	4603      	mov	r3, r0
}
 80018fa:	4618      	mov	r0, r3
 80018fc:	3708      	adds	r7, #8
 80018fe:	46bd      	mov	sp, r7
 8001900:	bd80      	pop	{r7, pc}

08001902 <HAL_DMA_Abort>:
  *        and the Stream will be effectively disabled only after the transfer of
  *        this single data is finished.  
  * @retval HAL status
  */
HAL_StatusTypeDef HAL_DMA_Abort(DMA_HandleTypeDef *hdma)
{
 8001902:	b580      	push	{r7, lr}
 8001904:	b084      	sub	sp, #16
 8001906:	af00      	add	r7, sp, #0
 8001908:	6078      	str	r0, [r7, #4]
  /* calculate DMA base and stream number */
  DMA_Base_Registers *regs = (DMA_Base_Registers *)hdma->StreamBaseAddress;
 800190a:	687b      	ldr	r3, [r7, #4]
 800190c:	6d9b      	ldr	r3, [r3, #88]	; 0x58
 800190e:	60fb      	str	r3, [r7, #12]
  
  uint32_t tickstart = HAL_GetTick();
 8001910:	f7ff fac4 	bl	8000e9c <HAL_GetTick>
 8001914:	60b8      	str	r0, [r7, #8]
  
  if(hdma->State != HAL_DMA_STATE_BUSY)
 8001916:	687b      	ldr	r3, [r7, #4]
 8001918:	f893 3035 	ldrb.w	r3, [r3, #53]	; 0x35
 800191c:	b2db      	uxtb	r3, r3
 800191e:	2b02      	cmp	r3, #2
 8001920:	d008      	beq.n	8001934 <HAL_DMA_Abort+0x32>
  {
    hdma->ErrorCode = HAL_DMA_ERROR_NO_XFER;
 8001922:	687b      	ldr	r3, [r7, #4]
 8001924:	2280      	movs	r2, #128	; 0x80
 8001926:	655a      	str	r2, [r3, #84]	; 0x54
    
    /* Process Unlocked */
    __HAL_UNLOCK(hdma);
 8001928:	687b      	ldr	r3, [r7, #4]
 800192a:	2200      	movs	r2, #0
 800192c:	f883 2034 	strb.w	r2, [r3, #52]	; 0x34
    
    return HAL_ERROR;
 8001930:	2301      	movs	r3, #1
 8001932:	e052      	b.n	80019da <HAL_DMA_Abort+0xd8>
  }
  else
  {
    /* Disable all the transfer interrupts */
    hdma->Instance->CR  &= ~(DMA_IT_TC | DMA_IT_TE | DMA_IT_DME);
 8001934:	687b      	ldr	r3, [r7, #4]
 8001936:	681b      	ldr	r3, [r3, #0]
 8001938:	681a      	ldr	r2, [r3, #0]
 800193a:	687b      	ldr	r3, [r7, #4]
 800193c:	681b      	ldr	r3, [r3, #0]
 800193e:	f022 0216 	bic.w	r2, r2, #22
 8001942:	601a      	str	r2, [r3, #0]
    hdma->Instance->FCR &= ~(DMA_IT_FE);
 8001944:	687b      	ldr	r3, [r7, #4]
 8001946:	681b      	ldr	r3, [r3, #0]
 8001948:	695a      	ldr	r2, [r3, #20]
 800194a:	687b      	ldr	r3, [r7, #4]
 800194c:	681b      	ldr	r3, [r3, #0]
 800194e:	f022 0280 	bic.w	r2, r2, #128	; 0x80
 8001952:	615a      	str	r2, [r3, #20]
    
    if((hdma->XferHalfCpltCallback != NULL) || (hdma->XferM1HalfCpltCallback != NULL))
 8001954:	687b      	ldr	r3, [r7, #4]
 8001956:	6c1b      	ldr	r3, [r3, #64]	; 0x40
 8001958:	2b00      	cmp	r3, #0
 800195a:	d103      	bne.n	8001964 <HAL_DMA_Abort+0x62>
 800195c:	687b      	ldr	r3, [r7, #4]
 800195e:	6c9b      	ldr	r3, [r3, #72]	; 0x48
 8001960:	2b00      	cmp	r3, #0
 8001962:	d007      	beq.n	8001974 <HAL_DMA_Abort+0x72>
    {
      hdma->Instance->CR  &= ~(DMA_IT_HT);
 8001964:	687b      	ldr	r3, [r7, #4]
 8001966:	681b      	ldr	r3, [r3, #0]
 8001968:	681a      	ldr	r2, [r3, #0]
 800196a:	687b      	ldr	r3, [r7, #4]
 800196c:	681b      	ldr	r3, [r3, #0]
 800196e:	f022 0208 	bic.w	r2, r2, #8
 8001972:	601a      	str	r2, [r3, #0]
    }
    
    /* Disable the stream */
    __HAL_DMA_DISABLE(hdma);
 8001974:	687b      	ldr	r3, [r7, #4]
 8001976:	681b      	ldr	r3, [r3, #0]
 8001978:	681a      	ldr	r2, [r3, #0]
 800197a:	687b      	ldr	r3, [r7, #4]
 800197c:	681b      	ldr	r3, [r3, #0]
 800197e:	f022 0201 	bic.w	r2, r2, #1
 8001982:	601a      	str	r2, [r3, #0]
    
    /* Check if the DMA Stream is effectively disabled */
    while((hdma->Instance->CR & DMA_SxCR_EN) != RESET)
 8001984:	e013      	b.n	80019ae <HAL_DMA_Abort+0xac>
    {
      /* Check for the Timeout */
      if((HAL_GetTick() - tickstart ) > HAL_TIMEOUT_DMA_ABORT)
 8001986:	f7ff fa89 	bl	8000e9c <HAL_GetTick>
 800198a:	4602      	mov	r2, r0
 800198c:	68bb      	ldr	r3, [r7, #8]
 800198e:	1ad3      	subs	r3, r2, r3
 8001990:	2b05      	cmp	r3, #5
 8001992:	d90c      	bls.n	80019ae <HAL_DMA_Abort+0xac>
      {
        /* Update error code */
        hdma->ErrorCode = HAL_DMA_ERROR_TIMEOUT;
 8001994:	687b      	ldr	r3, [r7, #4]
 8001996:	2220      	movs	r2, #32
 8001998:	655a      	str	r2, [r3, #84]	; 0x54
        
        /* Change the DMA state */
        hdma->State = HAL_DMA_STATE_TIMEOUT;
 800199a:	687b      	ldr	r3, [r7, #4]
 800199c:	2203      	movs	r2, #3
 800199e:	f883 2035 	strb.w	r2, [r3, #53]	; 0x35
        
        /* Process Unlocked */
        __HAL_UNLOCK(hdma);
 80019a2:	687b      	ldr	r3, [r7, #4]
 80019a4:	2200      	movs	r2, #0
 80019a6:	f883 2034 	strb.w	r2, [r3, #52]	; 0x34
        
        return HAL_TIMEOUT;
 80019aa:	2303      	movs	r3, #3
 80019ac:	e015      	b.n	80019da <HAL_DMA_Abort+0xd8>
    while((hdma->Instance->CR & DMA_SxCR_EN) != RESET)
 80019ae:	687b      	ldr	r3, [r7, #4]
 80019b0:	681b      	ldr	r3, [r3, #0]
 80019b2:	681b      	ldr	r3, [r3, #0]
 80019b4:	f003 0301 	and.w	r3, r3, #1
 80019b8:	2b00      	cmp	r3, #0
 80019ba:	d1e4      	bne.n	8001986 <HAL_DMA_Abort+0x84>
      }
    }
    
    /* Clear all interrupt flags at correct offset within the register */
    regs->IFCR = 0x3FU << hdma->StreamIndex;
 80019bc:	687b      	ldr	r3, [r7, #4]
 80019be:	6ddb      	ldr	r3, [r3, #92]	; 0x5c
 80019c0:	223f      	movs	r2, #63	; 0x3f
 80019c2:	409a      	lsls	r2, r3
 80019c4:	68fb      	ldr	r3, [r7, #12]
 80019c6:	609a      	str	r2, [r3, #8]
    
    /* Change the DMA state*/
    hdma->State = HAL_DMA_STATE_READY;
 80019c8:	687b      	ldr	r3, [r7, #4]
 80019ca:	2201      	movs	r2, #1
 80019cc:	f883 2035 	strb.w	r2, [r3, #53]	; 0x35
    
    /* Process Unlocked */
    __HAL_UNLOCK(hdma);
 80019d0:	687b      	ldr	r3, [r7, #4]
 80019d2:	2200      	movs	r2, #0
 80019d4:	f883 2034 	strb.w	r2, [r3, #52]	; 0x34
  }
  return HAL_OK;
 80019d8:	2300      	movs	r3, #0
}
 80019da:	4618      	mov	r0, r3
 80019dc:	3710      	adds	r7, #16
 80019de:	46bd      	mov	sp, r7
 80019e0:	bd80      	pop	{r7, pc}

080019e2 <HAL_DMA_Abort_IT>:
  * @param  hdma   pointer to a DMA_HandleTypeDef structure that contains
  *                 the configuration information for the specified DMA Stream.
  * @retval HAL status
  */
HAL_StatusTypeDef HAL_DMA_Abort_IT(DMA_HandleTypeDef *hdma)
{
 80019e2:	b480      	push	{r7}
 80019e4:	b083      	sub	sp, #12
 80019e6:	af00      	add	r7, sp, #0
 80019e8:	6078      	str	r0, [r7, #4]
  if(hdma->State != HAL_DMA_STATE_BUSY)
 80019ea:	687b      	ldr	r3, [r7, #4]
 80019ec:	f893 3035 	ldrb.w	r3, [r3, #53]	; 0x35
 80019f0:	b2db      	uxtb	r3, r3
 80019f2:	2b02      	cmp	r3, #2
 80019f4:	d004      	beq.n	8001a00 <HAL_DMA_Abort_IT+0x1e>
  {
    hdma->ErrorCode = HAL_DMA_ERROR_NO_XFER;
 80019f6:	687b      	ldr	r3, [r7, #4]
 80019f8:	2280      	movs	r2, #128	; 0x80
 80019fa:	655a      	str	r2, [r3, #84]	; 0x54
    return HAL_ERROR;
 80019fc:	2301      	movs	r3, #1
 80019fe:	e00c      	b.n	8001a1a <HAL_DMA_Abort_IT+0x38>
  }
  else
  {
    /* Set Abort State  */
    hdma->State = HAL_DMA_STATE_ABORT;
 8001a00:	687b      	ldr	r3, [r7, #4]
 8001a02:	2205      	movs	r2, #5
 8001a04:	f883 2035 	strb.w	r2, [r3, #53]	; 0x35
    
    /* Disable the stream */
    __HAL_DMA_DISABLE(hdma);
 8001a08:	687b      	ldr	r3, [r7, #4]
 8001a0a:	681b      	ldr	r3, [r3, #0]
 8001a0c:	681a      	ldr	r2, [r3, #0]
 8001a0e:	687b      	ldr	r3, [r7, #4]
 8001a10:	681b      	ldr	r3, [r3, #0]
 8001a12:	f022 0201 	bic.w	r2, r2, #1
 8001a16:	601a      	str	r2, [r3, #0]
  }

  return HAL_OK;
 8001a18:	2300      	movs	r3, #0
}
 8001a1a:	4618      	mov	r0, r3
 8001a1c:	370c      	adds	r7, #12
 8001a1e:	46bd      	mov	sp, r7
 8001a20:	f85d 7b04 	ldr.w	r7, [sp], #4
 8001a24:	4770      	bx	lr
	...

08001a28 <HAL_GPIO_Init>:
  * @param  GPIO_Init pointer to a GPIO_InitTypeDef structure that contains
  *         the configuration information for the specified GPIO peripheral.
  * @retval None
  */
void HAL_GPIO_Init(GPIO_TypeDef  *GPIOx, GPIO_InitTypeDef *GPIO_Init)
{
 8001a28:	b480      	push	{r7}
 8001a2a:	b089      	sub	sp, #36	; 0x24
 8001a2c:	af00      	add	r7, sp, #0
 8001a2e:	6078      	str	r0, [r7, #4]
 8001a30:	6039      	str	r1, [r7, #0]
  uint32_t position;
  uint32_t ioposition = 0x00U;
 8001a32:	2300      	movs	r3, #0
 8001a34:	617b      	str	r3, [r7, #20]
  uint32_t iocurrent = 0x00U;
 8001a36:	2300      	movs	r3, #0
 8001a38:	613b      	str	r3, [r7, #16]
  uint32_t temp = 0x00U;
 8001a3a:	2300      	movs	r3, #0
 8001a3c:	61bb      	str	r3, [r7, #24]
  assert_param(IS_GPIO_ALL_INSTANCE(GPIOx));
  assert_param(IS_GPIO_PIN(GPIO_Init->Pin));
  assert_param(IS_GPIO_MODE(GPIO_Init->Mode));

  /* Configure the port pins */
  for(position = 0U; position < GPIO_NUMBER; position++)
 8001a3e:	2300      	movs	r3, #0
 8001a40:	61fb      	str	r3, [r7, #28]
 8001a42:	e159      	b.n	8001cf8 <HAL_GPIO_Init+0x2d0>
  {
    /* Get the IO position */
    ioposition = 0x01U << position;
 8001a44:	2201      	movs	r2, #1
 8001a46:	69fb      	ldr	r3, [r7, #28]
 8001a48:	fa02 f303 	lsl.w	r3, r2, r3
 8001a4c:	617b      	str	r3, [r7, #20]
    /* Get the current IO position */
    iocurrent = (uint32_t)(GPIO_Init->Pin) & ioposition;
 8001a4e:	683b      	ldr	r3, [r7, #0]
 8001a50:	681b      	ldr	r3, [r3, #0]
 8001a52:	697a      	ldr	r2, [r7, #20]
 8001a54:	4013      	ands	r3, r2
 8001a56:	613b      	str	r3, [r7, #16]

    if(iocurrent == ioposition)
 8001a58:	693a      	ldr	r2, [r7, #16]
 8001a5a:	697b      	ldr	r3, [r7, #20]
 8001a5c:	429a      	cmp	r2, r3
 8001a5e:	f040 8148 	bne.w	8001cf2 <HAL_GPIO_Init+0x2ca>
    {
      /*--------------------- GPIO Mode Configuration ------------------------*/
      /* In case of Output or Alternate function mode selection */
      if(((GPIO_Init->Mode & GPIO_MODE) == MODE_OUTPUT) || \
 8001a62:	683b      	ldr	r3, [r7, #0]
 8001a64:	685b      	ldr	r3, [r3, #4]
 8001a66:	f003 0303 	and.w	r3, r3, #3
 8001a6a:	2b01      	cmp	r3, #1
 8001a6c:	d005      	beq.n	8001a7a <HAL_GPIO_Init+0x52>
          (GPIO_Init->Mode & GPIO_MODE) == MODE_AF)
 8001a6e:	683b      	ldr	r3, [r7, #0]
 8001a70:	685b      	ldr	r3, [r3, #4]
 8001a72:	f003 0303 	and.w	r3, r3, #3
      if(((GPIO_Init->Mode & GPIO_MODE) == MODE_OUTPUT) || \
 8001a76:	2b02      	cmp	r3, #2
 8001a78:	d130      	bne.n	8001adc <HAL_GPIO_Init+0xb4>
      {
        /* Check the Speed parameter */
        assert_param(IS_GPIO_SPEED(GPIO_Init->Speed));
        /* Configure the IO Speed */
        temp = GPIOx->OSPEEDR; 
 8001a7a:	687b      	ldr	r3, [r7, #4]
 8001a7c:	689b      	ldr	r3, [r3, #8]
 8001a7e:	61bb      	str	r3, [r7, #24]
        temp &= ~(GPIO_OSPEEDER_OSPEEDR0 << (position * 2U));
 8001a80:	69fb      	ldr	r3, [r7, #28]
 8001a82:	005b      	lsls	r3, r3, #1
 8001a84:	2203      	movs	r2, #3
 8001a86:	fa02 f303 	lsl.w	r3, r2, r3
 8001a8a:	43db      	mvns	r3, r3
 8001a8c:	69ba      	ldr	r2, [r7, #24]
 8001a8e:	4013      	ands	r3, r2
 8001a90:	61bb      	str	r3, [r7, #24]
        temp |= (GPIO_Init->Speed << (position * 2U));
 8001a92:	683b      	ldr	r3, [r7, #0]
 8001a94:	68da      	ldr	r2, [r3, #12]
 8001a96:	69fb      	ldr	r3, [r7, #28]
 8001a98:	005b      	lsls	r3, r3, #1
 8001a9a:	fa02 f303 	lsl.w	r3, r2, r3
 8001a9e:	69ba      	ldr	r2, [r7, #24]
 8001aa0:	4313      	orrs	r3, r2
 8001aa2:	61bb      	str	r3, [r7, #24]
        GPIOx->OSPEEDR = temp;
 8001aa4:	687b      	ldr	r3, [r7, #4]
 8001aa6:	69ba      	ldr	r2, [r7, #24]
 8001aa8:	609a      	str	r2, [r3, #8]

        /* Configure the IO Output Type */
        temp = GPIOx->OTYPER;
 8001aaa:	687b      	ldr	r3, [r7, #4]
 8001aac:	685b      	ldr	r3, [r3, #4]
 8001aae:	61bb      	str	r3, [r7, #24]
        temp &= ~(GPIO_OTYPER_OT_0 << position) ;
 8001ab0:	2201      	movs	r2, #1
 8001ab2:	69fb      	ldr	r3, [r7, #28]
 8001ab4:	fa02 f303 	lsl.w	r3, r2, r3
 8001ab8:	43db      	mvns	r3, r3
 8001aba:	69ba      	ldr	r2, [r7, #24]
 8001abc:	4013      	ands	r3, r2
 8001abe:	61bb      	str	r3, [r7, #24]
        temp |= (((GPIO_Init->Mode & OUTPUT_TYPE) >> OUTPUT_TYPE_Pos) << position);
 8001ac0:	683b      	ldr	r3, [r7, #0]
 8001ac2:	685b      	ldr	r3, [r3, #4]
 8001ac4:	091b      	lsrs	r3, r3, #4
 8001ac6:	f003 0201 	and.w	r2, r3, #1
 8001aca:	69fb      	ldr	r3, [r7, #28]
 8001acc:	fa02 f303 	lsl.w	r3, r2, r3
 8001ad0:	69ba      	ldr	r2, [r7, #24]
 8001ad2:	4313      	orrs	r3, r2
 8001ad4:	61bb      	str	r3, [r7, #24]
        GPIOx->OTYPER = temp;
 8001ad6:	687b      	ldr	r3, [r7, #4]
 8001ad8:	69ba      	ldr	r2, [r7, #24]
 8001ada:	605a      	str	r2, [r3, #4]
       }

      if((GPIO_Init->Mode & GPIO_MODE) != MODE_ANALOG)
 8001adc:	683b      	ldr	r3, [r7, #0]
 8001ade:	685b      	ldr	r3, [r3, #4]
 8001ae0:	f003 0303 	and.w	r3, r3, #3
 8001ae4:	2b03      	cmp	r3, #3
 8001ae6:	d017      	beq.n	8001b18 <HAL_GPIO_Init+0xf0>
      {
        /* Check the parameters */
        assert_param(IS_GPIO_PULL(GPIO_Init->Pull));
        
        /* Activate the Pull-up or Pull down resistor for the current IO */
        temp = GPIOx->PUPDR;
 8001ae8:	687b      	ldr	r3, [r7, #4]
 8001aea:	68db      	ldr	r3, [r3, #12]
 8001aec:	61bb      	str	r3, [r7, #24]
        temp &= ~(GPIO_PUPDR_PUPDR0 << (position * 2U));
 8001aee:	69fb      	ldr	r3, [r7, #28]
 8001af0:	005b      	lsls	r3, r3, #1
 8001af2:	2203      	movs	r2, #3
 8001af4:	fa02 f303 	lsl.w	r3, r2, r3
 8001af8:	43db      	mvns	r3, r3
 8001afa:	69ba      	ldr	r2, [r7, #24]
 8001afc:	4013      	ands	r3, r2
 8001afe:	61bb      	str	r3, [r7, #24]
        temp |= ((GPIO_Init->Pull) << (position * 2U));
 8001b00:	683b      	ldr	r3, [r7, #0]
 8001b02:	689a      	ldr	r2, [r3, #8]
 8001b04:	69fb      	ldr	r3, [r7, #28]
 8001b06:	005b      	lsls	r3, r3, #1
 8001b08:	fa02 f303 	lsl.w	r3, r2, r3
 8001b0c:	69ba      	ldr	r2, [r7, #24]
 8001b0e:	4313      	orrs	r3, r2
 8001b10:	61bb      	str	r3, [r7, #24]
        GPIOx->PUPDR = temp;
 8001b12:	687b      	ldr	r3, [r7, #4]
 8001b14:	69ba      	ldr	r2, [r7, #24]
 8001b16:	60da      	str	r2, [r3, #12]
      }

      /* In case of Alternate function mode selection */
      if((GPIO_Init->Mode & GPIO_MODE) == MODE_AF)
 8001b18:	683b      	ldr	r3, [r7, #0]
 8001b1a:	685b      	ldr	r3, [r3, #4]
 8001b1c:	f003 0303 	and.w	r3, r3, #3
 8001b20:	2b02      	cmp	r3, #2
 8001b22:	d123      	bne.n	8001b6c <HAL_GPIO_Init+0x144>
      {
        /* Check the Alternate function parameter */
        assert_param(IS_GPIO_AF(GPIO_Init->Alternate));
        /* Configure Alternate function mapped with the current IO */
        temp = GPIOx->AFR[position >> 3U];
 8001b24:	69fb      	ldr	r3, [r7, #28]
 8001b26:	08da      	lsrs	r2, r3, #3
 8001b28:	687b      	ldr	r3, [r7, #4]
 8001b2a:	3208      	adds	r2, #8
 8001b2c:	f853 3022 	ldr.w	r3, [r3, r2, lsl #2]
 8001b30:	61bb      	str	r3, [r7, #24]
        temp &= ~(0xFU << ((uint32_t)(position & 0x07U) * 4U)) ;
 8001b32:	69fb      	ldr	r3, [r7, #28]
 8001b34:	f003 0307 	and.w	r3, r3, #7
 8001b38:	009b      	lsls	r3, r3, #2
 8001b3a:	220f      	movs	r2, #15
 8001b3c:	fa02 f303 	lsl.w	r3, r2, r3
 8001b40:	43db      	mvns	r3, r3
 8001b42:	69ba      	ldr	r2, [r7, #24]
 8001b44:	4013      	ands	r3, r2
 8001b46:	61bb      	str	r3, [r7, #24]
        temp |= ((uint32_t)(GPIO_Init->Alternate) << (((uint32_t)position & 0x07U) * 4U));
 8001b48:	683b      	ldr	r3, [r7, #0]
 8001b4a:	691a      	ldr	r2, [r3, #16]
 8001b4c:	69fb      	ldr	r3, [r7, #28]
 8001b4e:	f003 0307 	and.w	r3, r3, #7
 8001b52:	009b      	lsls	r3, r3, #2
 8001b54:	fa02 f303 	lsl.w	r3, r2, r3
 8001b58:	69ba      	ldr	r2, [r7, #24]
 8001b5a:	4313      	orrs	r3, r2
 8001b5c:	61bb      	str	r3, [r7, #24]
        GPIOx->AFR[position >> 3U] = temp;
 8001b5e:	69fb      	ldr	r3, [r7, #28]
 8001b60:	08da      	lsrs	r2, r3, #3
 8001b62:	687b      	ldr	r3, [r7, #4]
 8001b64:	3208      	adds	r2, #8
 8001b66:	69b9      	ldr	r1, [r7, #24]
 8001b68:	f843 1022 	str.w	r1, [r3, r2, lsl #2]
      }

      /* Configure IO Direction mode (Input, Output, Alternate or Analog) */
      temp = GPIOx->MODER;
 8001b6c:	687b      	ldr	r3, [r7, #4]
 8001b6e:	681b      	ldr	r3, [r3, #0]
 8001b70:	61bb      	str	r3, [r7, #24]
      temp &= ~(GPIO_MODER_MODER0 << (position * 2U));
 8001b72:	69fb      	ldr	r3, [r7, #28]
 8001b74:	005b      	lsls	r3, r3, #1
 8001b76:	2203      	movs	r2, #3
 8001b78:	fa02 f303 	lsl.w	r3, r2, r3
 8001b7c:	43db      	mvns	r3, r3
 8001b7e:	69ba      	ldr	r2, [r7, #24]
 8001b80:	4013      	ands	r3, r2
 8001b82:	61bb      	str	r3, [r7, #24]
      temp |= ((GPIO_Init->Mode & GPIO_MODE) << (position * 2U));
 8001b84:	683b      	ldr	r3, [r7, #0]
 8001b86:	685b      	ldr	r3, [r3, #4]
 8001b88:	f003 0203 	and.w	r2, r3, #3
 8001b8c:	69fb      	ldr	r3, [r7, #28]
 8001b8e:	005b      	lsls	r3, r3, #1
 8001b90:	fa02 f303 	lsl.w	r3, r2, r3
 8001b94:	69ba      	ldr	r2, [r7, #24]
 8001b96:	4313      	orrs	r3, r2
 8001b98:	61bb      	str	r3, [r7, #24]
      GPIOx->MODER = temp;
 8001b9a:	687b      	ldr	r3, [r7, #4]
 8001b9c:	69ba      	ldr	r2, [r7, #24]
 8001b9e:	601a      	str	r2, [r3, #0]

      /*--------------------- EXTI Mode Configuration ------------------------*/
      /* Configure the External Interrupt or event for the current IO */
      if((GPIO_Init->Mode & EXTI_MODE) != 0x00U)
 8001ba0:	683b      	ldr	r3, [r7, #0]
 8001ba2:	685b      	ldr	r3, [r3, #4]
 8001ba4:	f403 3340 	and.w	r3, r3, #196608	; 0x30000
 8001ba8:	2b00      	cmp	r3, #0
 8001baa:	f000 80a2 	beq.w	8001cf2 <HAL_GPIO_Init+0x2ca>
      {
        /* Enable SYSCFG Clock */
        __HAL_RCC_SYSCFG_CLK_ENABLE();
 8001bae:	2300      	movs	r3, #0
 8001bb0:	60fb      	str	r3, [r7, #12]
 8001bb2:	4b57      	ldr	r3, [pc, #348]	; (8001d10 <HAL_GPIO_Init+0x2e8>)
 8001bb4:	6c5b      	ldr	r3, [r3, #68]	; 0x44
 8001bb6:	4a56      	ldr	r2, [pc, #344]	; (8001d10 <HAL_GPIO_Init+0x2e8>)
 8001bb8:	f443 4380 	orr.w	r3, r3, #16384	; 0x4000
 8001bbc:	6453      	str	r3, [r2, #68]	; 0x44
 8001bbe:	4b54      	ldr	r3, [pc, #336]	; (8001d10 <HAL_GPIO_Init+0x2e8>)
 8001bc0:	6c5b      	ldr	r3, [r3, #68]	; 0x44
 8001bc2:	f403 4380 	and.w	r3, r3, #16384	; 0x4000
 8001bc6:	60fb      	str	r3, [r7, #12]
 8001bc8:	68fb      	ldr	r3, [r7, #12]

        temp = SYSCFG->EXTICR[position >> 2U];
 8001bca:	4a52      	ldr	r2, [pc, #328]	; (8001d14 <HAL_GPIO_Init+0x2ec>)
 8001bcc:	69fb      	ldr	r3, [r7, #28]
 8001bce:	089b      	lsrs	r3, r3, #2
 8001bd0:	3302      	adds	r3, #2
 8001bd2:	f852 3023 	ldr.w	r3, [r2, r3, lsl #2]
 8001bd6:	61bb      	str	r3, [r7, #24]
        temp &= ~(0x0FU << (4U * (position & 0x03U)));
 8001bd8:	69fb      	ldr	r3, [r7, #28]
 8001bda:	f003 0303 	and.w	r3, r3, #3
 8001bde:	009b      	lsls	r3, r3, #2
 8001be0:	220f      	movs	r2, #15
 8001be2:	fa02 f303 	lsl.w	r3, r2, r3
 8001be6:	43db      	mvns	r3, r3
 8001be8:	69ba      	ldr	r2, [r7, #24]
 8001bea:	4013      	ands	r3, r2
 8001bec:	61bb      	str	r3, [r7, #24]
        temp |= ((uint32_t)(GPIO_GET_INDEX(GPIOx)) << (4U * (position & 0x03U)));
 8001bee:	687b      	ldr	r3, [r7, #4]
 8001bf0:	4a49      	ldr	r2, [pc, #292]	; (8001d18 <HAL_GPIO_Init+0x2f0>)
 8001bf2:	4293      	cmp	r3, r2
 8001bf4:	d019      	beq.n	8001c2a <HAL_GPIO_Init+0x202>
 8001bf6:	687b      	ldr	r3, [r7, #4]
 8001bf8:	4a48      	ldr	r2, [pc, #288]	; (8001d1c <HAL_GPIO_Init+0x2f4>)
 8001bfa:	4293      	cmp	r3, r2
 8001bfc:	d013      	beq.n	8001c26 <HAL_GPIO_Init+0x1fe>
 8001bfe:	687b      	ldr	r3, [r7, #4]
 8001c00:	4a47      	ldr	r2, [pc, #284]	; (8001d20 <HAL_GPIO_Init+0x2f8>)
 8001c02:	4293      	cmp	r3, r2
 8001c04:	d00d      	beq.n	8001c22 <HAL_GPIO_Init+0x1fa>
 8001c06:	687b      	ldr	r3, [r7, #4]
 8001c08:	4a46      	ldr	r2, [pc, #280]	; (8001d24 <HAL_GPIO_Init+0x2fc>)
 8001c0a:	4293      	cmp	r3, r2
 8001c0c:	d007      	beq.n	8001c1e <HAL_GPIO_Init+0x1f6>
 8001c0e:	687b      	ldr	r3, [r7, #4]
 8001c10:	4a45      	ldr	r2, [pc, #276]	; (8001d28 <HAL_GPIO_Init+0x300>)
 8001c12:	4293      	cmp	r3, r2
 8001c14:	d101      	bne.n	8001c1a <HAL_GPIO_Init+0x1f2>
 8001c16:	2304      	movs	r3, #4
 8001c18:	e008      	b.n	8001c2c <HAL_GPIO_Init+0x204>
 8001c1a:	2307      	movs	r3, #7
 8001c1c:	e006      	b.n	8001c2c <HAL_GPIO_Init+0x204>
 8001c1e:	2303      	movs	r3, #3
 8001c20:	e004      	b.n	8001c2c <HAL_GPIO_Init+0x204>
 8001c22:	2302      	movs	r3, #2
 8001c24:	e002      	b.n	8001c2c <HAL_GPIO_Init+0x204>
 8001c26:	2301      	movs	r3, #1
 8001c28:	e000      	b.n	8001c2c <HAL_GPIO_Init+0x204>
 8001c2a:	2300      	movs	r3, #0
 8001c2c:	69fa      	ldr	r2, [r7, #28]
 8001c2e:	f002 0203 	and.w	r2, r2, #3
 8001c32:	0092      	lsls	r2, r2, #2
 8001c34:	4093      	lsls	r3, r2
 8001c36:	69ba      	ldr	r2, [r7, #24]
 8001c38:	4313      	orrs	r3, r2
 8001c3a:	61bb      	str	r3, [r7, #24]
        SYSCFG->EXTICR[position >> 2U] = temp;
 8001c3c:	4935      	ldr	r1, [pc, #212]	; (8001d14 <HAL_GPIO_Init+0x2ec>)
 8001c3e:	69fb      	ldr	r3, [r7, #28]
 8001c40:	089b      	lsrs	r3, r3, #2
 8001c42:	3302      	adds	r3, #2
 8001c44:	69ba      	ldr	r2, [r7, #24]
 8001c46:	f841 2023 	str.w	r2, [r1, r3, lsl #2]

        /* Clear EXTI line configuration */
        temp = EXTI->IMR;
 8001c4a:	4b38      	ldr	r3, [pc, #224]	; (8001d2c <HAL_GPIO_Init+0x304>)
 8001c4c:	681b      	ldr	r3, [r3, #0]
 8001c4e:	61bb      	str	r3, [r7, #24]
        temp &= ~((uint32_t)iocurrent);
 8001c50:	693b      	ldr	r3, [r7, #16]
 8001c52:	43db      	mvns	r3, r3
 8001c54:	69ba      	ldr	r2, [r7, #24]
 8001c56:	4013      	ands	r3, r2
 8001c58:	61bb      	str	r3, [r7, #24]
        if((GPIO_Init->Mode & EXTI_IT) != 0x00U)
 8001c5a:	683b      	ldr	r3, [r7, #0]
 8001c5c:	685b      	ldr	r3, [r3, #4]
 8001c5e:	f403 3380 	and.w	r3, r3, #65536	; 0x10000
 8001c62:	2b00      	cmp	r3, #0
 8001c64:	d003      	beq.n	8001c6e <HAL_GPIO_Init+0x246>
        {
          temp |= iocurrent;
 8001c66:	69ba      	ldr	r2, [r7, #24]
 8001c68:	693b      	ldr	r3, [r7, #16]
 8001c6a:	4313      	orrs	r3, r2
 8001c6c:	61bb      	str	r3, [r7, #24]
        }
        EXTI->IMR = temp;
 8001c6e:	4a2f      	ldr	r2, [pc, #188]	; (8001d2c <HAL_GPIO_Init+0x304>)
 8001c70:	69bb      	ldr	r3, [r7, #24]
 8001c72:	6013      	str	r3, [r2, #0]

        temp = EXTI->EMR;
 8001c74:	4b2d      	ldr	r3, [pc, #180]	; (8001d2c <HAL_GPIO_Init+0x304>)
 8001c76:	685b      	ldr	r3, [r3, #4]
 8001c78:	61bb      	str	r3, [r7, #24]
        temp &= ~((uint32_t)iocurrent);
 8001c7a:	693b      	ldr	r3, [r7, #16]
 8001c7c:	43db      	mvns	r3, r3
 8001c7e:	69ba      	ldr	r2, [r7, #24]
 8001c80:	4013      	ands	r3, r2
 8001c82:	61bb      	str	r3, [r7, #24]
        if((GPIO_Init->Mode & EXTI_EVT) != 0x00U)
 8001c84:	683b      	ldr	r3, [r7, #0]
 8001c86:	685b      	ldr	r3, [r3, #4]
 8001c88:	f403 3300 	and.w	r3, r3, #131072	; 0x20000
 8001c8c:	2b00      	cmp	r3, #0
 8001c8e:	d003      	beq.n	8001c98 <HAL_GPIO_Init+0x270>
        {
          temp |= iocurrent;
 8001c90:	69ba      	ldr	r2, [r7, #24]
 8001c92:	693b      	ldr	r3, [r7, #16]
 8001c94:	4313      	orrs	r3, r2
 8001c96:	61bb      	str	r3, [r7, #24]
        }
        EXTI->EMR = temp;
 8001c98:	4a24      	ldr	r2, [pc, #144]	; (8001d2c <HAL_GPIO_Init+0x304>)
 8001c9a:	69bb      	ldr	r3, [r7, #24]
 8001c9c:	6053      	str	r3, [r2, #4]

        /* Clear Rising Falling edge configuration */
        temp = EXTI->RTSR;
 8001c9e:	4b23      	ldr	r3, [pc, #140]	; (8001d2c <HAL_GPIO_Init+0x304>)
 8001ca0:	689b      	ldr	r3, [r3, #8]
 8001ca2:	61bb      	str	r3, [r7, #24]
        temp &= ~((uint32_t)iocurrent);
 8001ca4:	693b      	ldr	r3, [r7, #16]
 8001ca6:	43db      	mvns	r3, r3
 8001ca8:	69ba      	ldr	r2, [r7, #24]
 8001caa:	4013      	ands	r3, r2
 8001cac:	61bb      	str	r3, [r7, #24]
        if((GPIO_Init->Mode & TRIGGER_RISING) != 0x00U)
 8001cae:	683b      	ldr	r3, [r7, #0]
 8001cb0:	685b      	ldr	r3, [r3, #4]
 8001cb2:	f403 1380 	and.w	r3, r3, #1048576	; 0x100000
 8001cb6:	2b00      	cmp	r3, #0
 8001cb8:	d003      	beq.n	8001cc2 <HAL_GPIO_Init+0x29a>
        {
          temp |= iocurrent;
 8001cba:	69ba      	ldr	r2, [r7, #24]
 8001cbc:	693b      	ldr	r3, [r7, #16]
 8001cbe:	4313      	orrs	r3, r2
 8001cc0:	61bb      	str	r3, [r7, #24]
        }
        EXTI->RTSR = temp;
 8001cc2:	4a1a      	ldr	r2, [pc, #104]	; (8001d2c <HAL_GPIO_Init+0x304>)
 8001cc4:	69bb      	ldr	r3, [r7, #24]
 8001cc6:	6093      	str	r3, [r2, #8]

        temp = EXTI->FTSR;
 8001cc8:	4b18      	ldr	r3, [pc, #96]	; (8001d2c <HAL_GPIO_Init+0x304>)
 8001cca:	68db      	ldr	r3, [r3, #12]
 8001ccc:	61bb      	str	r3, [r7, #24]
        temp &= ~((uint32_t)iocurrent);
 8001cce:	693b      	ldr	r3, [r7, #16]
 8001cd0:	43db      	mvns	r3, r3
 8001cd2:	69ba      	ldr	r2, [r7, #24]
 8001cd4:	4013      	ands	r3, r2
 8001cd6:	61bb      	str	r3, [r7, #24]
        if((GPIO_Init->Mode & TRIGGER_FALLING) != 0x00U)
 8001cd8:	683b      	ldr	r3, [r7, #0]
 8001cda:	685b      	ldr	r3, [r3, #4]
 8001cdc:	f403 1300 	and.w	r3, r3, #2097152	; 0x200000
 8001ce0:	2b00      	cmp	r3, #0
 8001ce2:	d003      	beq.n	8001cec <HAL_GPIO_Init+0x2c4>
        {
          temp |= iocurrent;
 8001ce4:	69ba      	ldr	r2, [r7, #24]
 8001ce6:	693b      	ldr	r3, [r7, #16]
 8001ce8:	4313      	orrs	r3, r2
 8001cea:	61bb      	str	r3, [r7, #24]
        }
        EXTI->FTSR = temp;
 8001cec:	4a0f      	ldr	r2, [pc, #60]	; (8001d2c <HAL_GPIO_Init+0x304>)
 8001cee:	69bb      	ldr	r3, [r7, #24]
 8001cf0:	60d3      	str	r3, [r2, #12]
  for(position = 0U; position < GPIO_NUMBER; position++)
 8001cf2:	69fb      	ldr	r3, [r7, #28]
 8001cf4:	3301      	adds	r3, #1
 8001cf6:	61fb      	str	r3, [r7, #28]
 8001cf8:	69fb      	ldr	r3, [r7, #28]
 8001cfa:	2b0f      	cmp	r3, #15
 8001cfc:	f67f aea2 	bls.w	8001a44 <HAL_GPIO_Init+0x1c>
      }
    }
  }
}
 8001d00:	bf00      	nop
 8001d02:	bf00      	nop
 8001d04:	3724      	adds	r7, #36	; 0x24
 8001d06:	46bd      	mov	sp, r7
 8001d08:	f85d 7b04 	ldr.w	r7, [sp], #4
 8001d0c:	4770      	bx	lr
 8001d0e:	bf00      	nop
 8001d10:	40023800 	.word	0x40023800
 8001d14:	40013800 	.word	0x40013800
 8001d18:	40020000 	.word	0x40020000
 8001d1c:	40020400 	.word	0x40020400
 8001d20:	40020800 	.word	0x40020800
 8001d24:	40020c00 	.word	0x40020c00
 8001d28:	40021000 	.word	0x40021000
 8001d2c:	40013c00 	.word	0x40013c00

08001d30 <HAL_GPIO_WritePin>:
  *            @arg GPIO_PIN_RESET: to clear the port pin
  *            @arg GPIO_PIN_SET: to set the port pin
  * @retval None
  */
void HAL_GPIO_WritePin(GPIO_TypeDef* GPIOx, uint16_t GPIO_Pin, GPIO_PinState PinState)
{
 8001d30:	b480      	push	{r7}
 8001d32:	b083      	sub	sp, #12
 8001d34:	af00      	add	r7, sp, #0
 8001d36:	6078      	str	r0, [r7, #4]
 8001d38:	460b      	mov	r3, r1
 8001d3a:	807b      	strh	r3, [r7, #2]
 8001d3c:	4613      	mov	r3, r2
 8001d3e:	707b      	strb	r3, [r7, #1]
  /* Check the parameters */
  assert_param(IS_GPIO_PIN(GPIO_Pin));
  assert_param(IS_GPIO_PIN_ACTION(PinState));

  if(PinState != GPIO_PIN_RESET)
 8001d40:	787b      	ldrb	r3, [r7, #1]
 8001d42:	2b00      	cmp	r3, #0
 8001d44:	d003      	beq.n	8001d4e <HAL_GPIO_WritePin+0x1e>
  {
    GPIOx->BSRR = GPIO_Pin;
 8001d46:	887a      	ldrh	r2, [r7, #2]
 8001d48:	687b      	ldr	r3, [r7, #4]
 8001d4a:	619a      	str	r2, [r3, #24]
  }
  else
  {
    GPIOx->BSRR = (uint32_t)GPIO_Pin << 16U;
  }
}
 8001d4c:	e003      	b.n	8001d56 <HAL_GPIO_WritePin+0x26>
    GPIOx->BSRR = (uint32_t)GPIO_Pin << 16U;
 8001d4e:	887b      	ldrh	r3, [r7, #2]
 8001d50:	041a      	lsls	r2, r3, #16
 8001d52:	687b      	ldr	r3, [r7, #4]
 8001d54:	619a      	str	r2, [r3, #24]
}
 8001d56:	bf00      	nop
 8001d58:	370c      	adds	r7, #12
 8001d5a:	46bd      	mov	sp, r7
 8001d5c:	f85d 7b04 	ldr.w	r7, [sp], #4
 8001d60:	4770      	bx	lr
	...

08001d64 <HAL_RCC_OscConfig>:
  *         supported by this API. User should request a transition to HSE Off
  *         first and then HSE On or HSE Bypass.
  * @retval HAL status
  */
__weak HAL_StatusTypeDef HAL_RCC_OscConfig(RCC_OscInitTypeDef  *RCC_OscInitStruct)
{
 8001d64:	b580      	push	{r7, lr}
 8001d66:	b086      	sub	sp, #24
 8001d68:	af00      	add	r7, sp, #0
 8001d6a:	6078      	str	r0, [r7, #4]
  uint32_t tickstart, pll_config;

  /* Check Null pointer */
  if(RCC_OscInitStruct == NULL)
 8001d6c:	687b      	ldr	r3, [r7, #4]
 8001d6e:	2b00      	cmp	r3, #0
 8001d70:	d101      	bne.n	8001d76 <HAL_RCC_OscConfig+0x12>
  {
    return HAL_ERROR;
 8001d72:	2301      	movs	r3, #1
 8001d74:	e264      	b.n	8002240 <HAL_RCC_OscConfig+0x4dc>
  }

  /* Check the parameters */
  assert_param(IS_RCC_OSCILLATORTYPE(RCC_OscInitStruct->OscillatorType));
  /*------------------------------- HSE Configuration ------------------------*/
  if(((RCC_OscInitStruct->OscillatorType) & RCC_OSCILLATORTYPE_HSE) == RCC_OSCILLATORTYPE_HSE)
 8001d76:	687b      	ldr	r3, [r7, #4]
 8001d78:	681b      	ldr	r3, [r3, #0]
 8001d7a:	f003 0301 	and.w	r3, r3, #1
 8001d7e:	2b00      	cmp	r3, #0
 8001d80:	d075      	beq.n	8001e6e <HAL_RCC_OscConfig+0x10a>
  {
    /* Check the parameters */
    assert_param(IS_RCC_HSE(RCC_OscInitStruct->HSEState));
    /* When the HSE is used as system clock or clock source for PLL in these cases HSE will not disabled */
    if((__HAL_RCC_GET_SYSCLK_SOURCE() == RCC_CFGR_SWS_HSE) ||\
 8001d82:	4ba3      	ldr	r3, [pc, #652]	; (8002010 <HAL_RCC_OscConfig+0x2ac>)
 8001d84:	689b      	ldr	r3, [r3, #8]
 8001d86:	f003 030c 	and.w	r3, r3, #12
 8001d8a:	2b04      	cmp	r3, #4
 8001d8c:	d00c      	beq.n	8001da8 <HAL_RCC_OscConfig+0x44>
      ((__HAL_RCC_GET_SYSCLK_SOURCE() == RCC_CFGR_SWS_PLL) && ((RCC->PLLCFGR & RCC_PLLCFGR_PLLSRC) == RCC_PLLCFGR_PLLSRC_HSE)))
 8001d8e:	4ba0      	ldr	r3, [pc, #640]	; (8002010 <HAL_RCC_OscConfig+0x2ac>)
 8001d90:	689b      	ldr	r3, [r3, #8]
 8001d92:	f003 030c 	and.w	r3, r3, #12
    if((__HAL_RCC_GET_SYSCLK_SOURCE() == RCC_CFGR_SWS_HSE) ||\
 8001d96:	2b08      	cmp	r3, #8
 8001d98:	d112      	bne.n	8001dc0 <HAL_RCC_OscConfig+0x5c>
      ((__HAL_RCC_GET_SYSCLK_SOURCE() == RCC_CFGR_SWS_PLL) && ((RCC->PLLCFGR & RCC_PLLCFGR_PLLSRC) == RCC_PLLCFGR_PLLSRC_HSE)))
 8001d9a:	4b9d      	ldr	r3, [pc, #628]	; (8002010 <HAL_RCC_OscConfig+0x2ac>)
 8001d9c:	685b      	ldr	r3, [r3, #4]
 8001d9e:	f403 0380 	and.w	r3, r3, #4194304	; 0x400000
 8001da2:	f5b3 0f80 	cmp.w	r3, #4194304	; 0x400000
 8001da6:	d10b      	bne.n	8001dc0 <HAL_RCC_OscConfig+0x5c>
    {
      if((__HAL_RCC_GET_FLAG(RCC_FLAG_HSERDY) != RESET) && (RCC_OscInitStruct->HSEState == RCC_HSE_OFF))
 8001da8:	4b99      	ldr	r3, [pc, #612]	; (8002010 <HAL_RCC_OscConfig+0x2ac>)
 8001daa:	681b      	ldr	r3, [r3, #0]
 8001dac:	f403 3300 	and.w	r3, r3, #131072	; 0x20000
 8001db0:	2b00      	cmp	r3, #0
 8001db2:	d05b      	beq.n	8001e6c <HAL_RCC_OscConfig+0x108>
 8001db4:	687b      	ldr	r3, [r7, #4]
 8001db6:	685b      	ldr	r3, [r3, #4]
 8001db8:	2b00      	cmp	r3, #0
 8001dba:	d157      	bne.n	8001e6c <HAL_RCC_OscConfig+0x108>
      {
        return HAL_ERROR;
 8001dbc:	2301      	movs	r3, #1
 8001dbe:	e23f      	b.n	8002240 <HAL_RCC_OscConfig+0x4dc>
      }
    }
    else
    {
      /* Set the new HSE configuration ---------------------------------------*/
      __HAL_RCC_HSE_CONFIG(RCC_OscInitStruct->HSEState);
 8001dc0:	687b      	ldr	r3, [r7, #4]
 8001dc2:	685b      	ldr	r3, [r3, #4]
 8001dc4:	f5b3 3f80 	cmp.w	r3, #65536	; 0x10000
 8001dc8:	d106      	bne.n	8001dd8 <HAL_RCC_OscConfig+0x74>
 8001dca:	4b91      	ldr	r3, [pc, #580]	; (8002010 <HAL_RCC_OscConfig+0x2ac>)
 8001dcc:	681b      	ldr	r3, [r3, #0]
 8001dce:	4a90      	ldr	r2, [pc, #576]	; (8002010 <HAL_RCC_OscConfig+0x2ac>)
 8001dd0:	f443 3380 	orr.w	r3, r3, #65536	; 0x10000
 8001dd4:	6013      	str	r3, [r2, #0]
 8001dd6:	e01d      	b.n	8001e14 <HAL_RCC_OscConfig+0xb0>
 8001dd8:	687b      	ldr	r3, [r7, #4]
 8001dda:	685b      	ldr	r3, [r3, #4]
 8001ddc:	f5b3 2fa0 	cmp.w	r3, #327680	; 0x50000
 8001de0:	d10c      	bne.n	8001dfc <HAL_RCC_OscConfig+0x98>
 8001de2:	4b8b      	ldr	r3, [pc, #556]	; (8002010 <HAL_RCC_OscConfig+0x2ac>)
 8001de4:	681b      	ldr	r3, [r3, #0]
 8001de6:	4a8a      	ldr	r2, [pc, #552]	; (8002010 <HAL_RCC_OscConfig+0x2ac>)
 8001de8:	f443 2380 	orr.w	r3, r3, #262144	; 0x40000
 8001dec:	6013      	str	r3, [r2, #0]
 8001dee:	4b88      	ldr	r3, [pc, #544]	; (8002010 <HAL_RCC_OscConfig+0x2ac>)
 8001df0:	681b      	ldr	r3, [r3, #0]
 8001df2:	4a87      	ldr	r2, [pc, #540]	; (8002010 <HAL_RCC_OscConfig+0x2ac>)
 8001df4:	f443 3380 	orr.w	r3, r3, #65536	; 0x10000
 8001df8:	6013      	str	r3, [r2, #0]
 8001dfa:	e00b      	b.n	8001e14 <HAL_RCC_OscConfig+0xb0>
 8001dfc:	4b84      	ldr	r3, [pc, #528]	; (8002010 <HAL_RCC_OscConfig+0x2ac>)
 8001dfe:	681b      	ldr	r3, [r3, #0]
 8001e00:	4a83      	ldr	r2, [pc, #524]	; (8002010 <HAL_RCC_OscConfig+0x2ac>)
 8001e02:	f423 3380 	bic.w	r3, r3, #65536	; 0x10000
 8001e06:	6013      	str	r3, [r2, #0]
 8001e08:	4b81      	ldr	r3, [pc, #516]	; (8002010 <HAL_RCC_OscConfig+0x2ac>)
 8001e0a:	681b      	ldr	r3, [r3, #0]
 8001e0c:	4a80      	ldr	r2, [pc, #512]	; (8002010 <HAL_RCC_OscConfig+0x2ac>)
 8001e0e:	f423 2380 	bic.w	r3, r3, #262144	; 0x40000
 8001e12:	6013      	str	r3, [r2, #0]

      /* Check the HSE State */
      if((RCC_OscInitStruct->HSEState) != RCC_HSE_OFF)
 8001e14:	687b      	ldr	r3, [r7, #4]
 8001e16:	685b      	ldr	r3, [r3, #4]
 8001e18:	2b00      	cmp	r3, #0
 8001e1a:	d013      	beq.n	8001e44 <HAL_RCC_OscConfig+0xe0>
      {
        /* Get Start Tick */
        tickstart = HAL_GetTick();
 8001e1c:	f7ff f83e 	bl	8000e9c <HAL_GetTick>
 8001e20:	6138      	str	r0, [r7, #16]

        /* Wait till HSE is ready */
        while(__HAL_RCC_GET_FLAG(RCC_FLAG_HSERDY) == RESET)
 8001e22:	e008      	b.n	8001e36 <HAL_RCC_OscConfig+0xd2>
        {
          if((HAL_GetTick() - tickstart ) > HSE_TIMEOUT_VALUE)
 8001e24:	f7ff f83a 	bl	8000e9c <HAL_GetTick>
 8001e28:	4602      	mov	r2, r0
 8001e2a:	693b      	ldr	r3, [r7, #16]
 8001e2c:	1ad3      	subs	r3, r2, r3
 8001e2e:	2b64      	cmp	r3, #100	; 0x64
 8001e30:	d901      	bls.n	8001e36 <HAL_RCC_OscConfig+0xd2>
          {
            return HAL_TIMEOUT;
 8001e32:	2303      	movs	r3, #3
 8001e34:	e204      	b.n	8002240 <HAL_RCC_OscConfig+0x4dc>
        while(__HAL_RCC_GET_FLAG(RCC_FLAG_HSERDY) == RESET)
 8001e36:	4b76      	ldr	r3, [pc, #472]	; (8002010 <HAL_RCC_OscConfig+0x2ac>)
 8001e38:	681b      	ldr	r3, [r3, #0]
 8001e3a:	f403 3300 	and.w	r3, r3, #131072	; 0x20000
 8001e3e:	2b00      	cmp	r3, #0
 8001e40:	d0f0      	beq.n	8001e24 <HAL_RCC_OscConfig+0xc0>
 8001e42:	e014      	b.n	8001e6e <HAL_RCC_OscConfig+0x10a>
        }
      }
      else
      {
        /* Get Start Tick */
        tickstart = HAL_GetTick();
 8001e44:	f7ff f82a 	bl	8000e9c <HAL_GetTick>
 8001e48:	6138      	str	r0, [r7, #16]

        /* Wait till HSE is bypassed or disabled */
        while(__HAL_RCC_GET_FLAG(RCC_FLAG_HSERDY) != RESET)
 8001e4a:	e008      	b.n	8001e5e <HAL_RCC_OscConfig+0xfa>
        {
          if((HAL_GetTick() - tickstart ) > HSE_TIMEOUT_VALUE)
 8001e4c:	f7ff f826 	bl	8000e9c <HAL_GetTick>
 8001e50:	4602      	mov	r2, r0
 8001e52:	693b      	ldr	r3, [r7, #16]
 8001e54:	1ad3      	subs	r3, r2, r3
 8001e56:	2b64      	cmp	r3, #100	; 0x64
 8001e58:	d901      	bls.n	8001e5e <HAL_RCC_OscConfig+0xfa>
          {
            return HAL_TIMEOUT;
 8001e5a:	2303      	movs	r3, #3
 8001e5c:	e1f0      	b.n	8002240 <HAL_RCC_OscConfig+0x4dc>
        while(__HAL_RCC_GET_FLAG(RCC_FLAG_HSERDY) != RESET)
 8001e5e:	4b6c      	ldr	r3, [pc, #432]	; (8002010 <HAL_RCC_OscConfig+0x2ac>)
 8001e60:	681b      	ldr	r3, [r3, #0]
 8001e62:	f403 3300 	and.w	r3, r3, #131072	; 0x20000
 8001e66:	2b00      	cmp	r3, #0
 8001e68:	d1f0      	bne.n	8001e4c <HAL_RCC_OscConfig+0xe8>
 8001e6a:	e000      	b.n	8001e6e <HAL_RCC_OscConfig+0x10a>
      if((__HAL_RCC_GET_FLAG(RCC_FLAG_HSERDY) != RESET) && (RCC_OscInitStruct->HSEState == RCC_HSE_OFF))
 8001e6c:	bf00      	nop
        }
      }
    }
  }
  /*----------------------------- HSI Configuration --------------------------*/
  if(((RCC_OscInitStruct->OscillatorType) & RCC_OSCILLATORTYPE_HSI) == RCC_OSCILLATORTYPE_HSI)
 8001e6e:	687b      	ldr	r3, [r7, #4]
 8001e70:	681b      	ldr	r3, [r3, #0]
 8001e72:	f003 0302 	and.w	r3, r3, #2
 8001e76:	2b00      	cmp	r3, #0
 8001e78:	d063      	beq.n	8001f42 <HAL_RCC_OscConfig+0x1de>
    /* Check the parameters */
    assert_param(IS_RCC_HSI(RCC_OscInitStruct->HSIState));
    assert_param(IS_RCC_CALIBRATION_VALUE(RCC_OscInitStruct->HSICalibrationValue));

    /* Check if HSI is used as system clock or as PLL source when PLL is selected as system clock */
    if((__HAL_RCC_GET_SYSCLK_SOURCE() == RCC_CFGR_SWS_HSI) ||\
 8001e7a:	4b65      	ldr	r3, [pc, #404]	; (8002010 <HAL_RCC_OscConfig+0x2ac>)
 8001e7c:	689b      	ldr	r3, [r3, #8]
 8001e7e:	f003 030c 	and.w	r3, r3, #12
 8001e82:	2b00      	cmp	r3, #0
 8001e84:	d00b      	beq.n	8001e9e <HAL_RCC_OscConfig+0x13a>
      ((__HAL_RCC_GET_SYSCLK_SOURCE() == RCC_CFGR_SWS_PLL) && ((RCC->PLLCFGR & RCC_PLLCFGR_PLLSRC) == RCC_PLLCFGR_PLLSRC_HSI)))
 8001e86:	4b62      	ldr	r3, [pc, #392]	; (8002010 <HAL_RCC_OscConfig+0x2ac>)
 8001e88:	689b      	ldr	r3, [r3, #8]
 8001e8a:	f003 030c 	and.w	r3, r3, #12
    if((__HAL_RCC_GET_SYSCLK_SOURCE() == RCC_CFGR_SWS_HSI) ||\
 8001e8e:	2b08      	cmp	r3, #8
 8001e90:	d11c      	bne.n	8001ecc <HAL_RCC_OscConfig+0x168>
      ((__HAL_RCC_GET_SYSCLK_SOURCE() == RCC_CFGR_SWS_PLL) && ((RCC->PLLCFGR & RCC_PLLCFGR_PLLSRC) == RCC_PLLCFGR_PLLSRC_HSI)))
 8001e92:	4b5f      	ldr	r3, [pc, #380]	; (8002010 <HAL_RCC_OscConfig+0x2ac>)
 8001e94:	685b      	ldr	r3, [r3, #4]
 8001e96:	f403 0380 	and.w	r3, r3, #4194304	; 0x400000
 8001e9a:	2b00      	cmp	r3, #0
 8001e9c:	d116      	bne.n	8001ecc <HAL_RCC_OscConfig+0x168>
    {
      /* When HSI is used as system clock it will not disabled */
      if((__HAL_RCC_GET_FLAG(RCC_FLAG_HSIRDY) != RESET) && (RCC_OscInitStruct->HSIState != RCC_HSI_ON))
 8001e9e:	4b5c      	ldr	r3, [pc, #368]	; (8002010 <HAL_RCC_OscConfig+0x2ac>)
 8001ea0:	681b      	ldr	r3, [r3, #0]
 8001ea2:	f003 0302 	and.w	r3, r3, #2
 8001ea6:	2b00      	cmp	r3, #0
 8001ea8:	d005      	beq.n	8001eb6 <HAL_RCC_OscConfig+0x152>
 8001eaa:	687b      	ldr	r3, [r7, #4]
 8001eac:	68db      	ldr	r3, [r3, #12]
 8001eae:	2b01      	cmp	r3, #1
 8001eb0:	d001      	beq.n	8001eb6 <HAL_RCC_OscConfig+0x152>
      {
        return HAL_ERROR;
 8001eb2:	2301      	movs	r3, #1
 8001eb4:	e1c4      	b.n	8002240 <HAL_RCC_OscConfig+0x4dc>
      }
      /* Otherwise, just the calibration is allowed */
      else
      {
        /* Adjusts the Internal High Speed oscillator (HSI) calibration value.*/
        __HAL_RCC_HSI_CALIBRATIONVALUE_ADJUST(RCC_OscInitStruct->HSICalibrationValue);
 8001eb6:	4b56      	ldr	r3, [pc, #344]	; (8002010 <HAL_RCC_OscConfig+0x2ac>)
 8001eb8:	681b      	ldr	r3, [r3, #0]
 8001eba:	f023 02f8 	bic.w	r2, r3, #248	; 0xf8
 8001ebe:	687b      	ldr	r3, [r7, #4]
 8001ec0:	691b      	ldr	r3, [r3, #16]
 8001ec2:	00db      	lsls	r3, r3, #3
 8001ec4:	4952      	ldr	r1, [pc, #328]	; (8002010 <HAL_RCC_OscConfig+0x2ac>)
 8001ec6:	4313      	orrs	r3, r2
 8001ec8:	600b      	str	r3, [r1, #0]
      if((__HAL_RCC_GET_FLAG(RCC_FLAG_HSIRDY) != RESET) && (RCC_OscInitStruct->HSIState != RCC_HSI_ON))
 8001eca:	e03a      	b.n	8001f42 <HAL_RCC_OscConfig+0x1de>
      }
    }
    else
    {
      /* Check the HSI State */
      if((RCC_OscInitStruct->HSIState)!= RCC_HSI_OFF)
 8001ecc:	687b      	ldr	r3, [r7, #4]
 8001ece:	68db      	ldr	r3, [r3, #12]
 8001ed0:	2b00      	cmp	r3, #0
 8001ed2:	d020      	beq.n	8001f16 <HAL_RCC_OscConfig+0x1b2>
      {
        /* Enable the Internal High Speed oscillator (HSI). */
        __HAL_RCC_HSI_ENABLE();
 8001ed4:	4b4f      	ldr	r3, [pc, #316]	; (8002014 <HAL_RCC_OscConfig+0x2b0>)
 8001ed6:	2201      	movs	r2, #1
 8001ed8:	601a      	str	r2, [r3, #0]

        /* Get Start Tick*/
        tickstart = HAL_GetTick();
 8001eda:	f7fe ffdf 	bl	8000e9c <HAL_GetTick>
 8001ede:	6138      	str	r0, [r7, #16]

        /* Wait till HSI is ready */
        while(__HAL_RCC_GET_FLAG(RCC_FLAG_HSIRDY) == RESET)
 8001ee0:	e008      	b.n	8001ef4 <HAL_RCC_OscConfig+0x190>
        {
          if((HAL_GetTick() - tickstart ) > HSI_TIMEOUT_VALUE)
 8001ee2:	f7fe ffdb 	bl	8000e9c <HAL_GetTick>
 8001ee6:	4602      	mov	r2, r0
 8001ee8:	693b      	ldr	r3, [r7, #16]
 8001eea:	1ad3      	subs	r3, r2, r3
 8001eec:	2b02      	cmp	r3, #2
 8001eee:	d901      	bls.n	8001ef4 <HAL_RCC_OscConfig+0x190>
          {
            return HAL_TIMEOUT;
 8001ef0:	2303      	movs	r3, #3
 8001ef2:	e1a5      	b.n	8002240 <HAL_RCC_OscConfig+0x4dc>
        while(__HAL_RCC_GET_FLAG(RCC_FLAG_HSIRDY) == RESET)
 8001ef4:	4b46      	ldr	r3, [pc, #280]	; (8002010 <HAL_RCC_OscConfig+0x2ac>)
 8001ef6:	681b      	ldr	r3, [r3, #0]
 8001ef8:	f003 0302 	and.w	r3, r3, #2
 8001efc:	2b00      	cmp	r3, #0
 8001efe:	d0f0      	beq.n	8001ee2 <HAL_RCC_OscConfig+0x17e>
          }
        }

        /* Adjusts the Internal High Speed oscillator (HSI) calibration value. */
        __HAL_RCC_HSI_CALIBRATIONVALUE_ADJUST(RCC_OscInitStruct->HSICalibrationValue);
 8001f00:	4b43      	ldr	r3, [pc, #268]	; (8002010 <HAL_RCC_OscConfig+0x2ac>)
 8001f02:	681b      	ldr	r3, [r3, #0]
 8001f04:	f023 02f8 	bic.w	r2, r3, #248	; 0xf8
 8001f08:	687b      	ldr	r3, [r7, #4]
 8001f0a:	691b      	ldr	r3, [r3, #16]
 8001f0c:	00db      	lsls	r3, r3, #3
 8001f0e:	4940      	ldr	r1, [pc, #256]	; (8002010 <HAL_RCC_OscConfig+0x2ac>)
 8001f10:	4313      	orrs	r3, r2
 8001f12:	600b      	str	r3, [r1, #0]
 8001f14:	e015      	b.n	8001f42 <HAL_RCC_OscConfig+0x1de>
      }
      else
      {
        /* Disable the Internal High Speed oscillator (HSI). */
        __HAL_RCC_HSI_DISABLE();
 8001f16:	4b3f      	ldr	r3, [pc, #252]	; (8002014 <HAL_RCC_OscConfig+0x2b0>)
 8001f18:	2200      	movs	r2, #0
 8001f1a:	601a      	str	r2, [r3, #0]

        /* Get Start Tick*/
        tickstart = HAL_GetTick();
 8001f1c:	f7fe ffbe 	bl	8000e9c <HAL_GetTick>
 8001f20:	6138      	str	r0, [r7, #16]

        /* Wait till HSI is ready */
        while(__HAL_RCC_GET_FLAG(RCC_FLAG_HSIRDY) != RESET)
 8001f22:	e008      	b.n	8001f36 <HAL_RCC_OscConfig+0x1d2>
        {
          if((HAL_GetTick() - tickstart ) > HSI_TIMEOUT_VALUE)
 8001f24:	f7fe ffba 	bl	8000e9c <HAL_GetTick>
 8001f28:	4602      	mov	r2, r0
 8001f2a:	693b      	ldr	r3, [r7, #16]
 8001f2c:	1ad3      	subs	r3, r2, r3
 8001f2e:	2b02      	cmp	r3, #2
 8001f30:	d901      	bls.n	8001f36 <HAL_RCC_OscConfig+0x1d2>
          {
            return HAL_TIMEOUT;
 8001f32:	2303      	movs	r3, #3
 8001f34:	e184      	b.n	8002240 <HAL_RCC_OscConfig+0x4dc>
        while(__HAL_RCC_GET_FLAG(RCC_FLAG_HSIRDY) != RESET)
 8001f36:	4b36      	ldr	r3, [pc, #216]	; (8002010 <HAL_RCC_OscConfig+0x2ac>)
 8001f38:	681b      	ldr	r3, [r3, #0]
 8001f3a:	f003 0302 	and.w	r3, r3, #2
 8001f3e:	2b00      	cmp	r3, #0
 8001f40:	d1f0      	bne.n	8001f24 <HAL_RCC_OscConfig+0x1c0>
        }
      }
    }
  }
  /*------------------------------ LSI Configuration -------------------------*/
  if(((RCC_OscInitStruct->OscillatorType) & RCC_OSCILLATORTYPE_LSI) == RCC_OSCILLATORTYPE_LSI)
 8001f42:	687b      	ldr	r3, [r7, #4]
 8001f44:	681b      	ldr	r3, [r3, #0]
 8001f46:	f003 0308 	and.w	r3, r3, #8
 8001f4a:	2b00      	cmp	r3, #0
 8001f4c:	d030      	beq.n	8001fb0 <HAL_RCC_OscConfig+0x24c>
  {
    /* Check the parameters */
    assert_param(IS_RCC_LSI(RCC_OscInitStruct->LSIState));

    /* Check the LSI State */
    if((RCC_OscInitStruct->LSIState)!= RCC_LSI_OFF)
 8001f4e:	687b      	ldr	r3, [r7, #4]
 8001f50:	695b      	ldr	r3, [r3, #20]
 8001f52:	2b00      	cmp	r3, #0
 8001f54:	d016      	beq.n	8001f84 <HAL_RCC_OscConfig+0x220>
    {
      /* Enable the Internal Low Speed oscillator (LSI). */
      __HAL_RCC_LSI_ENABLE();
 8001f56:	4b30      	ldr	r3, [pc, #192]	; (8002018 <HAL_RCC_OscConfig+0x2b4>)
 8001f58:	2201      	movs	r2, #1
 8001f5a:	601a      	str	r2, [r3, #0]

      /* Get Start Tick*/
      tickstart = HAL_GetTick();
 8001f5c:	f7fe ff9e 	bl	8000e9c <HAL_GetTick>
 8001f60:	6138      	str	r0, [r7, #16]

      /* Wait till LSI is ready */
      while(__HAL_RCC_GET_FLAG(RCC_FLAG_LSIRDY) == RESET)
 8001f62:	e008      	b.n	8001f76 <HAL_RCC_OscConfig+0x212>
      {
        if((HAL_GetTick() - tickstart ) > LSI_TIMEOUT_VALUE)
 8001f64:	f7fe ff9a 	bl	8000e9c <HAL_GetTick>
 8001f68:	4602      	mov	r2, r0
 8001f6a:	693b      	ldr	r3, [r7, #16]
 8001f6c:	1ad3      	subs	r3, r2, r3
 8001f6e:	2b02      	cmp	r3, #2
 8001f70:	d901      	bls.n	8001f76 <HAL_RCC_OscConfig+0x212>
        {
          return HAL_TIMEOUT;
 8001f72:	2303      	movs	r3, #3
 8001f74:	e164      	b.n	8002240 <HAL_RCC_OscConfig+0x4dc>
      while(__HAL_RCC_GET_FLAG(RCC_FLAG_LSIRDY) == RESET)
 8001f76:	4b26      	ldr	r3, [pc, #152]	; (8002010 <HAL_RCC_OscConfig+0x2ac>)
 8001f78:	6f5b      	ldr	r3, [r3, #116]	; 0x74
 8001f7a:	f003 0302 	and.w	r3, r3, #2
 8001f7e:	2b00      	cmp	r3, #0
 8001f80:	d0f0      	beq.n	8001f64 <HAL_RCC_OscConfig+0x200>
 8001f82:	e015      	b.n	8001fb0 <HAL_RCC_OscConfig+0x24c>
      }
    }
    else
    {
      /* Disable the Internal Low Speed oscillator (LSI). */
      __HAL_RCC_LSI_DISABLE();
 8001f84:	4b24      	ldr	r3, [pc, #144]	; (8002018 <HAL_RCC_OscConfig+0x2b4>)
 8001f86:	2200      	movs	r2, #0
 8001f88:	601a      	str	r2, [r3, #0]

      /* Get Start Tick */
      tickstart = HAL_GetTick();
 8001f8a:	f7fe ff87 	bl	8000e9c <HAL_GetTick>
 8001f8e:	6138      	str	r0, [r7, #16]

      /* Wait till LSI is ready */
      while(__HAL_RCC_GET_FLAG(RCC_FLAG_LSIRDY) != RESET)
 8001f90:	e008      	b.n	8001fa4 <HAL_RCC_OscConfig+0x240>
      {
        if((HAL_GetTick() - tickstart ) > LSI_TIMEOUT_VALUE)
 8001f92:	f7fe ff83 	bl	8000e9c <HAL_GetTick>
 8001f96:	4602      	mov	r2, r0
 8001f98:	693b      	ldr	r3, [r7, #16]
 8001f9a:	1ad3      	subs	r3, r2, r3
 8001f9c:	2b02      	cmp	r3, #2
 8001f9e:	d901      	bls.n	8001fa4 <HAL_RCC_OscConfig+0x240>
        {
          return HAL_TIMEOUT;
 8001fa0:	2303      	movs	r3, #3
 8001fa2:	e14d      	b.n	8002240 <HAL_RCC_OscConfig+0x4dc>
      while(__HAL_RCC_GET_FLAG(RCC_FLAG_LSIRDY) != RESET)
 8001fa4:	4b1a      	ldr	r3, [pc, #104]	; (8002010 <HAL_RCC_OscConfig+0x2ac>)
 8001fa6:	6f5b      	ldr	r3, [r3, #116]	; 0x74
 8001fa8:	f003 0302 	and.w	r3, r3, #2
 8001fac:	2b00      	cmp	r3, #0
 8001fae:	d1f0      	bne.n	8001f92 <HAL_RCC_OscConfig+0x22e>
        }
      }
    }
  }
  /*------------------------------ LSE Configuration -------------------------*/
  if(((RCC_OscInitStruct->OscillatorType) & RCC_OSCILLATORTYPE_LSE) == RCC_OSCILLATORTYPE_LSE)
 8001fb0:	687b      	ldr	r3, [r7, #4]
 8001fb2:	681b      	ldr	r3, [r3, #0]
 8001fb4:	f003 0304 	and.w	r3, r3, #4
 8001fb8:	2b00      	cmp	r3, #0
 8001fba:	f000 80a0 	beq.w	80020fe <HAL_RCC_OscConfig+0x39a>
  {
    FlagStatus       pwrclkchanged = RESET;
 8001fbe:	2300      	movs	r3, #0
 8001fc0:	75fb      	strb	r3, [r7, #23]
    /* Check the parameters */
    assert_param(IS_RCC_LSE(RCC_OscInitStruct->LSEState));

    /* Update LSE configuration in Backup Domain control register    */
    /* Requires to enable write access to Backup Domain of necessary */
    if(__HAL_RCC_PWR_IS_CLK_DISABLED())
 8001fc2:	4b13      	ldr	r3, [pc, #76]	; (8002010 <HAL_RCC_OscConfig+0x2ac>)
 8001fc4:	6c1b      	ldr	r3, [r3, #64]	; 0x40
 8001fc6:	f003 5380 	and.w	r3, r3, #268435456	; 0x10000000
 8001fca:	2b00      	cmp	r3, #0
 8001fcc:	d10f      	bne.n	8001fee <HAL_RCC_OscConfig+0x28a>
    {
      __HAL_RCC_PWR_CLK_ENABLE();
 8001fce:	2300      	movs	r3, #0
 8001fd0:	60bb      	str	r3, [r7, #8]
 8001fd2:	4b0f      	ldr	r3, [pc, #60]	; (8002010 <HAL_RCC_OscConfig+0x2ac>)
 8001fd4:	6c1b      	ldr	r3, [r3, #64]	; 0x40
 8001fd6:	4a0e      	ldr	r2, [pc, #56]	; (8002010 <HAL_RCC_OscConfig+0x2ac>)
 8001fd8:	f043 5380 	orr.w	r3, r3, #268435456	; 0x10000000
 8001fdc:	6413      	str	r3, [r2, #64]	; 0x40
